:100000000C945D000C9474000C9474000C947400B7
:100010000C9474000C9474000C9474000C94740090
:100020000C9474000C9474000C9474000C94740080
:100030000C9474000C9474000C9474000C94740070
:100040000C9474000C9474000C9474000C94740060
:100050000C9474000C9474000C9474000C94740050
:100060000C9474000C9474000C9474000C94740040
:100070000C9474000C9474000C9474000C94740030
:100080000C9474000C9474000C947400084AD73BD0
:100090003BCE016E84BCBFFDC12F3D6C74319ABD57
:1000A00056833DDA3D00C77F11BED9E4BB4C3E917B
:1000B0006BAAAABE000000803F0011241FBECFEF34
:1000C000D0E1DEBFCDBF11E0A0E0B1E0EAE9F5E1AB
:1000D00000E00BBF02C007900D92A035B107D9F721
:1000E0000E9443070C94CB0A0C940000EF92FF92FD
:1000F0000F931F930E945F0380E091E00E94A5038D
:10010000E12CF12C08E412E420E030E046E952E46E
:10011000CA01B9010E94A0052FEF87EA91E621509C
:1001200080409040E1F700C000000E945F0388E03B
:1001300091E00E94A503E12CF12C870120E030E042
:1001400048E452E4CA01B9010E94A0052FEF8BE7F1
:1001500092E9215080409040E1F700C000000E94E9
:100160005F038DE091E00E94A503E12CF12C08E4EF
:1001700012E420E030E046E952E460E070E088EC10
:1001800091E40E94A0052FEF87EA91E6215080407C
:100190009040E1F700C000000E945F0380E091E022
:1001A0000E94A50320E030E046E952E4CA01B9010B
:1001B0000E94A0052FEF87EA91E6215080409040F1
:1001C000E1F700C000000E945F038DE091E00E9413
:1001D000A50320E030E046E952E460E070E088ECFE
:1001E00091E40E94A0052FEF87EA91E6215080401C
:1001F0009040E1F700C000000E945F0380E091E0C2
:100200000E94A50320E030E046E952E4CA01B901AA
:100210000E94A0052FEF87EA91E621508040904090
:10022000E1F700C000000E945F0387E191E00E94B7
:10023000A503E12CF12C08EC12E420E030E048E4C6
:1002400052E4CA01B9010E94A0050E945F0380E048
:1002500091E00E94A503E12CF12C08E412E420E0D7
:1002600030E046E952E4CA01B9010E94A0050E94AB
:100270005F038DE091E00E94A50320E030E046E9B5
:1002800052E460E070E088EC91E40E94A0052FEF5A
:1002900087EA91E6215080409040E1F700C00000DD
:1002A0001F910F91FF90EF90089508950895CF92B8
:1002B000DF92EF92FF920F931F93CF93DF93EC01A6
:1002C00040E050E060E070E080E090E00E94800656
:1002D0006B017C01BE010D2E000C880B990B0E9456
:1002E0004509A70196010E94B8070E940D09CB019C
:1002F00068E671E00E949A0A8C01D7FD29C0CD2BD7
:10030000F1F0C701B6010E940D0906171707B9F0F1
:10031000E12CF12C08E412E420E030E040E751EC5D
:1003200060E070E080E791E40E94A00540E050E0CA
:1003300060E070E080E090E00E948006E9CFDF910D
:10034000CF911F910F91FF90EF90DF90CF90089584
:10035000C701B6010E940D090617170781F3E12CAA
:10036000F12C08E412E420E030E040E751E460E0E2
:1003700070E080E791EC0E94A00540E050E060E072
:1003800070E080E090E00E948006E9CF88E48093EE
:10039000700008951092740094EA90937400909104
:1003A000740097FFFCCF90917100987F983011F006
:1003B00081E008958093730084E8809374008091B5
:1003C000740087FFFCCF80917100887F883111F025
:1003D000803471F780E008958093730084E88093FF
:1003E00074008091740087FFFCCF90917100987F1A
:1003F00081E0983209F0089580E0089584EC8093BC
:1004000074008091740087FFFCCF80917300089581
:1004100084E8809374008091740087FFFCCF809102
:10042000730008950F931F93CF93DF938B01EA011D
:100430000E94CA0181111FC02097A9F0F801C00FC6
:10044000D11F24E8919190937300209374009091B0
:10045000740097FFFCCF90917100987F983259F407
:10046000EC17FD0779F794E990937400DF91CF9131
:100470001F910F91089581E0DF91CF911F910F910E
:1004800008950F931F93CF93DF938B01EA0181604F
:100490000E94CA01811125C0DE01119741F1F801C6
:1004A000A00FB11F24EC209374009091740097FF6B
:1004B000FCCF909173009193AE17BF07A1F794E81A
:1004C000909374009091740097FFFCCF909173000B
:1004D0009C9394E990937400DF91CF911F910F91B9
:1004E000089581E0DF91CF911F910F910895D80178
:1004F000E6CFFF920F931F93CF93DF93162FF42E27
:10050000052FE9010E94CA0181112CC010937300CC
:1005100094E8909374009091740097FFFCCF9091B1
:1005200071002097B1F0EF2DF02FCE0FDF1F44E8C0
:10053000919190937300409374009091740097FF91
:10054000FCCF90917100987F983261F4EC17FD0711
:1005500079F794E990937400DF91CF911F910F91F7
:10056000FF90089581E0DF91CF911F910F91FF904F
:100570000895EF92FF920F931F93CF93DF93182F5D
:10058000062F7A01E9010E94CA01811138C0009347
:10059000730084E8809374008091740087FFFCCF1F
:1005A00080917100812F81600E94CA01811127C052
:1005B000DE01119761F1F701AE0DBF1D24EC209310
:1005C00074009091740097FFFCCF90917300919309
:1005D000EA17FB07A1F794E89093740090917400D8
:1005E00097FFFCCF909173009C9394E990937400D3
:1005F000DF91CF911F910F91FF90EF90089581E0CF
:10060000DF91CF911F910F91FF90EF900895D70147
:10061000E2CF84E9809374000895109261001092F3
:10062000620080E487B980E886B986B1876086B9C0
:10063000339A369A0895FC010897FCF440E050E0A4
:1006400061E070E097B19B01042E01C0220F0A9473
:10065000EAF72095292327B94F5F5F4F45305105B1
:1006600089F797B1892F8E2B87B9369A349BFECFA5
:1006700084B125B190E0922B08958FEF9FEF0895FC
:100680008830910520F060E070E0CB0108950E9471
:100690001B03BC01990F880B990B0E94450920E0B0
:1006A00030E040EA5BE30E94290A0895E2E6F0E0C8
:1006B0008081886080838081877F80830895779B95
:1006C000FECF1FB8779BFECF81E08FB9779BFECF1F
:1006D0008091620088608093620080916200877FD1
:1006E000809362008FE998E20197F1F700C0000063
:1006F00008951FB8779BFECF80EC8FB9779BFECF14
:100700008091620088608093620080916200877FA0
:100710008093620085EC8A95F1F70000089591E0DE
:100720009FB9779BFECF8FB9779BFECF80916200F8
:1007300088608093620080916200877F809362006E
:1007400085EC8A95F1F700000895CF93DF93FC01C3
:10075000DC0140E050E061E0779BFECF6FB9779B12
:10076000FECF8D918FB9779BFECF909162009860FC
:100770009093620090916200977F9093620085EC65
:100780008A95F1F700004F5F5F4FEF01099000205D
:10079000E9F79E012E1B3F0B225031092417350724
:1007A000D8F6DF91CF910895E1E6F0E0808188608E
:1007B000808388B388BB87B3876087BB80E58DB9AA
:1007C00081E08EB908958FE59AEE0197F1F700C0A8
:1007D000000023E030E090E31FB8779BFECF9FB985
:1007E000779BFECF80916200886080936200809149
:1007F0006200877F8093620085EC8A95F1F70000A4
:100800002150310949F71FB8779BFECF88E38FB994
:10081000779BFECF80916200886080936200809118
:100820006200877F8093620095EC9A95F1F7000053
:100830001FB8779BFECF88E08FB9779BFECF809162
:10084000620088608093620080916200877F80935D
:10085000620085EC8A95F1F700001FB8779BFECF08
:1008600081E08FB9779BFECF809162008860809392
:10087000620080916200877F809362008FEF98E131
:100880000197F1F700C000001FB8779BFECF86E00C
:100890008FB9779BFECF8091620088608093620061
:1008A00080916200877F8093620095EC9A95F1F7C2
:1008B00000001FB8779BFECF8EE08FB9779BFECFED
:1008C0008091620088608093620080916200877FDF
:1008D0008093620085EC8A95F1F70000089590936B
:1008E00098008093990088E180939A0086E0809335
:1008F0009D002FEF81EE94E0215080409040E1F781
:1009000000C00000089590919B0095FFFCCF80935C
:100910009C000895FC012081222351F03196909192
:100920009B0095FFFCCF20939C0021912111F7CFD4
:10093000089580919B0087FFFCCF80919C000895D3
:10094000DC01FC019C012B5F3F4F90919B0097FFC6
:10095000FCCF90919C009E3729F0E217F30719F025
:100960009193F3CF089582E38C9389E111968C9350
:1009700011978BE412968C9312978EE713968C93B3
:10098000139714961C920895E2E4F1E096E48091A6
:100990009B0085FFFCCF90939C0091919111F7CF24
:1009A00080919B0087FF0CC090919C0080919B00E0
:1009B00085FFFCCF90939C0080919B0087FDF4CF36
:1009C00008959093900089B988E18AB98EE0809368
:1009D00095002FEF81EE94E0215080409040E1F7A8
:1009E00000C0000008955D9BFECF8CB90895FC0106
:1009F0009081992339F031965D9BFECF9CB99191FE
:100A00009111FACF089580E89DE8ABE5B0E004C00D
:100A10000197A109B10921F05F9BFACF8CB108952C
:100A20008FEF0895DC01FC019C012B5F3F4F40E8F4
:100A30005DE86BE570E005C041505109610971093D
:100A400061F05F9BF9CF9CB19E37B1F09F3F29F0D9
:100A5000E217F30711F09193EACF82E38C9311969A
:100A60008C93119712968C9312978EE713968C9312
:100A7000139714961C92089508955F9B03C08CB140
:100A80005F99FDCF089583E090E0C49AEFE6F7E127
:100A90003197F1F700C00000C498FFEF23ED30E379
:100AA000F15020403040E1F700C00000019769F7A5
:100AB00008958FB580688FBD8FB580628FBD8FB56B
:100AC00088608FBD8FB582608FBD8EB588618EBD09
:100AD0008EB582608EBD8FB7F89421E030E03DBDC9
:100AE0002CBD78948FBF8FEF9FEF97BD86BD2FEF02
:100AF00081EE94E0215080409040E1F700C000007A
:100B0000089583E090E0C49AEFE6F7E13197F1F7BA
:100B100000C00000C498FFEF23ED30E3F150204007
:100B20003040E1F700C00000019769F70C945905C7
:100B30009C019FB7F8943DBD2CBD78949FBF08954C
:100B40004F925F926F927F928F929F92AF92BF92DD
:100B5000CF92DF92EF92FF920F931F93CF93DF9389
:100B60002B013C0149015A016701780120E030E086
:100B700040EF51E40E94960887FD64C020E030E019
:100B80004CE852E4C301B2010E941C0A18160CF092
:100B900067C008EF1CE020E030E040EF51E4C50101
:100BA000B4010E94960887FD58C020E030E04CE870
:100BB00052E4C501B4010E941C0A18160CF06DC065
:100BC000C8EFDCE020E030E040EF51E4C701B601BF
:100BD0000E94960887FD39C020E030E04CE852E4DE
:100BE000C701B6010E941C0A18160CF04BC083E323
:100BF000C82EDC2CEC2C8FE3F82E66B577B580E0A0
:100C000090E00E944309A70196010E94290A0E94D0
:100C100014091BBD0ABDD9BDC8BD7093790060938E
:100C20007800DF91CF911F910F91FF90EF90DF90AF
:100C3000CF90BF90AF909F908F907F906F905F907C
:100C40004F90089508E71AE0A6CF9AE9C92E99E9CE
:100C5000D92EED2C9EE3F92ED0CFC8E7DAE0B2CF43
:100C600020E030E040E851E4C301B2010E94290ACB
:100C700020E030E849E055E40E94B8070E941409DA
:100C80008B0189CF20E030E048EC52E4C701B60187
:100C90000E949B086B017C01B0CF20E030E040E86F
:100CA00051E4C501B4010E94290A20E030E849E07E
:100CB00055E40E94B8070E941409EB0183CF8CE32E
:100CC0000E94CA0180E00E94EC0180E70E94EC01D2
:100CD0000E9409038CE30E94CA0181E00E94EC019A
:100CE00080EA0E94EC010E9409038CE30E94CA0181
:100CF00082E00E94EC0180E00E94EC010C94090368
:100D0000CF92DF92EF92FF920F931F93CF93DF93D7
:100D10008C01EB017A018CE30E94CA0183E00E94FE
:100D2000EC010E9409038DE30E94CA010E94FE01AA
:100D3000F801108281830E94FE01F8012081318137
:100D4000282B318320830E94FE01F70110828183CA
:100D50000E94FE01F70120813181282B31832083FD
:100D60000E94FE01188289830E940802288139812D
:100D7000282B398328830E940903F801608171813F
:100D8000072E000C880B990B0E9445096B017C0112
:100D900068817981072E000C880B990B0E94450908
:100DA000A70196010E94370820E030E044E353E4B5
:100DB0000E94290A2BED3FE049E450E40E949B0881
:100DC00020E030E044E353E40E94B807DF91CF9184
:100DD0001F910F91FF90EF90DF90CF90089560E00A
:100DE00070E0CB01089560E070E0CB010895439876
:100DF00080B5886080BD87B1887F87B9389A479869
:100E000088B1836088B9439A08954398479A80B51A
:100E1000877F80BD0895C09A0895C098089580E0A6
:100E200090E00E94400320E030E040E05FE30E9459
:100E3000B7072AE939E949E95FE30E94290A20E076
:100E400030E040E85EE30E94290A089580E090E0E7
:100E50000E94400320E030E040E05FE30E94B707DB
:100E60002AE939E949E95FE30E94290A20E030E0F4
:100E700040E85EE30E94290A29EF37E447EA53E499
:100E80000E94290A0895CF93DF9300D000D01F92CB
:100E9000CDB7DEB78FEF87BB18BA87E690E00E9428
:100EA000E1048AE191E00E94F7040E948105198221
:100EB0001A821B821D828EE78C83E12CF12C08E4C0
:100EC00012E4A8019701C801B7010E94A00523E719
:100ED000522E34E7632E4FE6742ECE0101960E9407
:100EE000120567E371E0CE0101960E94C20A892BC8
:100EF000D9F16CE371E0CE0101960E94C20A892B00
:100F000091F459826A827B82E12CF12C08E412E48C
:100F1000A8019701C801B7010E94A005CE01019662
:100F20000E94F704DACFCE0101960E94F7046B818C
:100F300070E080E090E00E9443096B017C016A81CF
:100F400070E080E090E00E9443094B015C01698100
:100F500070E080E090E00E94430987017601A501DE
:100F600094010E94A005B9CF0E947600B6CF5058D8
:100F7000BB27AA270E94CF070C94E2090E94D4093C
:100F800038F00E94DB0920F039F49F3F19F426F471
:100F90000C94AA090EF4E095E7FB0C94A409E92F40
:100FA0000E94F30958F3BA1762077307840795077D
:100FB00020F079F4A6F50C94150A0EF4E0950B2EAA
:100FC000BA2FA02D0B01B90190010C01CA01A0019B
:100FD0001124FF27591B99F0593F50F4503E68F1F6
:100FE0001A16F040A22F232F342F4427585FF3CF37
:100FF000469537952795A795F0405395C9F77EF408
:101000001F16BA0B620B730B840BBAF09150A1F050
:10101000FF0FBB1F661F771F881FC2F70EC0BA0FD6
:10102000621F731F841F48F4879577956795B7955E
:10103000F7959E3F08F0B0CF9395880F08F0992759
:10104000EE0F9795879508950E94D40960F080E887
:1010500091E009F49EEF0E94DB0928F040E851E09E
:1010600071F45EEF0CC00C94AA090C94150AE92FD8
:10107000E0780E94F30940F3092E052AB1F3261700
:1010800037074807590738F00E2E07F8E02569F0B2
:10109000E025E0640AC0EF6307F8009407FADB017B
:1010A000B9019D01DC01CA01AD01EF930E94B208B4
:1010B0000E94E2090E9467085F91552339F02BEDE9
:1010C0003FE049E450FD49EC0C94B8070895DF93E4
:1010D000DD27B92FBF7740E85FE3161617064807EC
:1010E0005B0718F4D92F0E94210A9F938F937F9357
:1010F0006F930E94960AECE8F0E00E94AD090E940E
:10110000E2092F913F914F915F910E943C0ADD23AC
:1011100051F09058A2EA2AED3FE049EC5FE3D07825
:101120005D270E94CF07DF910C94E2090E9480099D
:1011300008F481E008950E94AF080C94E2090E942F
:10114000DB0958F00E94D40940F029F45F3F29F0F0
:101150000C94A40951110C94160A0C94AA090E942B
:10116000F30968F39923B1F3552391F3951B550BBC
:10117000BB27AA2762177307840738F09F5F5F4F6A
:10118000220F331F441FAA1FA9F335D00E2E3AF0A9
:10119000E0E832D091505040E695001CCAF72BD0C1
:1011A000FE2F29D0660F771F881FBB1F2617370712
:1011B0004807AB07B0E809F0BB0B802DBF01FF2744
:1011C00093585F4F3AF09E3F510578F00C94A40974
:1011D0000C94160A5F3FE4F3983ED4F38695779516
:1011E0006795B795F7959F5FC9F7880F911D9695FD
:1011F000879597F90895E1E0660F771F881FBB1F59
:10120000621773078407BA0720F0621B730B840B05
:10121000BA0BEE1F88F7E09508950E9414096894B0
:10122000B1110C94160A08950E94FB0988F09F578B
:1012300098F0B92F9927B751B0F0E1F0660F771FFA
:10124000881F991F1AF0BA95C9F714C0B13091F0F0
:101250000E94150AB1E008950C94150A672F782FA3
:101260008827B85F39F0B93FCCF3869577956795B5
:10127000B395D9F73EF490958095709561957F4F21
:101280008F4F9F4F0895E89409C097FB3EF49095C7
:101290008095709561957F4F8F4F9F4F9923A9F04F
:1012A000F92F96E9BB279395F695879577956795DE
:1012B000B795F111F8CFFAF4BB0F11F460FF1BC022
:1012C0006F5F7F4F8F4F9F4F16C0882311F096E9B5
:1012D00011C0772321F09EE8872F762F05C0662363
:1012E00071F096E8862F70E060E02AF09A95660F1C
:1012F000771F881FDAF7880F9695879597F90895D5
:10130000990F0008550FAA0BE0E8FEEF1616170616
:10131000E807F907C0F012161306E407F50798F07E
:10132000621B730B840B950B39F40A2661F0232B97
:10133000242B252B21F408950A2609F4A140A69513
:101340008FEF811D811D089597F99F6780E870E0F8
:1013500060E008959FEF80EC0895DF93CF931F9393
:101360000F93FF92EF92DF927B018C01689406C08D
:10137000DA2EEF010E943C0AFE01E894A591259126
:10138000359145915591A6F3EF010E94CF07FE01DB
:101390009701A801DA9469F7DF90EF90FF900F9121
:1013A0001F91CF91DF91089500240A941616170615
:1013B00018060906089500240A9412161306140646
:1013C00005060895092E0394000C11F4882352F0A9
:1013D000BB0F40F4BF2B11F460FF04C06F5F7F4F61
:1013E0008F4F9F4F089557FD9058440F551F59F048
:1013F0005F3F71F04795880F97FB991F61F09F3F02
:1014000079F087950895121613061406551FF2CF2A
:101410004695F1DF08C0161617061806991FF1CF7A
:1014200086957105610508940895E894BB276627A1
:101430007727CB0197F908950E94800908F48FEF70
:1014400008959B01AC0160E070E080E89FE30C949C
:101450009B080E943C0A0C94E2090E94D40938F0CF
:101460000E94DB0920F0952311F00C94A4090C9440
:10147000AA0911240C94160A0E94F30970F3959F8F
:10148000C1F3950F50E0551F629FF001729FBB277B
:10149000F00DB11D639FAA27F00DB11DAA1F649F17
:1014A0006627B00DA11D661F829F2227B00DA11DCA
:1014B000621F739FB00DA11D621F839FA00D611D50
:1014C000221F749F3327A00D611D231F849F600D71
:1014D000211D822F762F6A2F11249F5750409AF09A
:1014E000F1F088234AF0EE0FFF1FBB1F661F771F26
:1014F000881F91505040A9F79E3F510580F00C94F1
:10150000A4090C94160A5F3FE4F3983ED4F3869541
:1015100077956795B795F795E7959F5FC1F7FE2B90
:10152000880F911D9695879597F908959B01AC01B9
:101530000C94290A97FB072E16F4009407D077FD28
:1015400009D00E94AE0A07FC05D03EF49095819523
:101550009F4F0895709561957F4F0895AA1BBB1BFF
:1015600051E107C0AA1FBB1FA617B70710F0A61BA3
:10157000B70B881F991F5A95A9F780959095BC01C4
:10158000CD010895FB01DC018D91019080190110BE
:0A159000D9F3990B0895F894FFCFEA
:10159A00466F727761726400446F776E0054757299
:1015AA006E204C6566740055700055534152543094
:1015BA00202852533233322920496E697469616C8A
:1015CA00697A6564200D006565657E003232327E77
:1015DA0000466C757368696E672055415254310034
:00000001FF
