:100000000C94DA000C94F9000C94F9000C94F900AB
:100010000C94F9000C94F9000C94F9000C94F9007C
:100020000C94F9000C94F9000C94F9000C94F9006C
:100030000C94F9000C94F9000C94F9000C94F9005C
:100040000C94F9000C94F9000C94F9000C94F9004C
:100050000C94F9000C94F9000C94F9000C94F9003C
:100060000C94F9000C94F9000C94F9000C94F9002C
:100070000C94F9000C94F9000C94F9000C94F9001C
:100080000C94F9000C94F9000C94F900084AD73B41
:100090003BCE016E84BCBFFDC12F3D6C74319ABD57
:1000A00056833DDA3D00C77F11BED9E4BB4C3E917B
:1000B0006BAAAABE000000803F0000407A10F35AED
:1000C00000A0724E18090010A5D4E80000E8764898
:1000D000170000E40B54020000CA9A3B000000E144
:1000E000F505000080969800000040420F000000D7
:1000F000A08601000000102700000000E8030000B7
:1001000000006400000000000A0000000000010080
:10011000000000002C76D888DC674F0823DFC1DFA1
:10012000AE59E1B1B796E5E3E453C63AE6519976A4
:1001300096E8E6C28426EB898C9B62ED407C6FFCDE
:10014000EFBC9C9F40F2BAA56FA5F490055A2AF720
:100150005C936B6CF9676DC11BFCE0E40D47FEF529
:1001600020E6B500D0ED902E030094357705008091
:10017000841E080000204E0A000000C80C333333F0
:10018000330F986E12831141EF8D2114893BE65590
:1001900016CFFEE6DB18D1844B381BF77C1D901D73
:1001A000A4BBE424203284725E228100C9F124ECD5
:1001B000A1E53D2711241FBECFEFD0E1DEBFCDBFAB
:1001C00011E0A0E0B1E0E8EEFBE100E00BBF02C00F
:1001D00007900D92AC34B107D9F721E0ACE4B1E05F
:1001E00001C01D92A035B207E1F70E94B1070C943F
:1001F000F20D0C940000EF92FF920F931F93E12CED
:10020000F12C08E412E420E030E046E952E4CA01AF
:10021000B9010E94EF052FEF87EA91E62150804057
:100220009040E1F700C00000E12CF12C870120E0B4
:1002300030E048E452E4CA01B9010E94EF052FEF13
:100240008BE792E9215080409040E1F700C0000028
:10025000E12CF12C08E412E420E030E046E952E41D
:1002600060E070E088EC91E40E94EF052FEF87EAF0
:1002700091E6215080409040E1F700C0000020E06E
:1002800030E046E952E4CA01B9010E94EF052FEFC0
:1002900087EA91E6215080409040E1F700C00000DD
:1002A00020E030E046E952E460E070E088EC91E460
:1002B0000E94EF052FEF87EA91E6215080409040A1
:1002C000E1F700C0000020E030E046E952E4CA0156
:1002D000B9010E94EF052FEF87EA91E62150804097
:1002E0009040E1F700C00000E12CF12C08EC12E492
:1002F00020E030E048E452E4CA01B9010E94EF0571
:10030000E12CF12C08E412E420E030E046E952E46C
:10031000CA01B9010E94EF0520E030E046E952E44D
:1003200060E070E088EC91E40E94EF052FEF87EA2F
:1003300091E6215080409040E1F700C000001F91FD
:100340000F91FF90EF90089508950895CF92DF9256
:10035000EF92FF920F931F93CF93DF93EC0140E056
:1003600050E060E070E080E090E00E94CF066B011A
:100370007C01BE010D2E000C880B990B0E94F30925
:10038000A70196010E9466080E94BB09CB0168E69E
:1003900071E00E94480B8C01D7FD29C0CD2BF1F0F4
:1003A000C701B6010E94BB0906171707B9F0E12C77
:1003B000F12C08E412E420E030E040E751EC60E08A
:1003C00070E080E791E40E94EF0540E050E060E0DB
:1003D00070E080E090E00E94CF06E9CFDF91CF91FE
:1003E0001F910F91FF90EF90DF90CF900895C7017C
:1003F000B6010E94BB090617170781F3E12CF12C07
:1004000008E412E420E030E040E751E460E070E00E
:1004100080E791EC0E94EF0540E050E060E070E082
:1004200080E090E00E94CF06E9CF88E480937000DE
:1004300008951092740094EA90937400909174005F
:1004400097FFFCCF90917100987F983011F081E078
:1004500008958093730084E8809374008091740001
:1004600087FFFCCF80917100887F883111F0803444
:1004700071F780E008958093730084E8809374009E
:100480008091740087FFFCCF90917100987F81E08C
:10049000983209F0089580E0089584EC8093740008
:1004A0008091740087FFFCCF80917300089584E8E9
:1004B000809374008091740087FFFCCF809173005B
:1004C00008950F931F93CF93DF938B01EA010E944E
:1004D000190281111FC02097A9F0F801C00FD11F88
:1004E00024E891919093730020937400909174008C
:1004F00097FFFCCF90917100987F983259F4EC17D8
:10050000FD0779F794E990937400DF91CF911F91E3
:100510000F91089581E0DF91CF911F910F91089580
:100520000F931F93CF93DF938B01EA0181600E94A9
:100530001902811125C0DE01119741F1F801A00FC8
:10054000B11F24EC209374009091740097FFFCCFAE
:10055000909173009193AE17BF07A1F794E8909321
:1005600074009091740097FFFCCF909173009C935E
:1005700094E990937400DF91CF911F910F910895AA
:1005800081E0DF91CF911F910F910895D801E6CFBF
:10059000FF920F931F93CF93DF93162FF42E052F07
:1005A000E9010E94190281112CC01093730094E894
:1005B000909374009091740097FFFCCF909171001C
:1005C0002097B1F0EF2DF02FCE0FDF1F44E891916F
:1005D00090937300409374009091740097FFFCCF48
:1005E00090917100987F983261F4EC17FD0779F7CC
:1005F00094E990937400DF91CF911F910F91FF9038
:10060000089581E0DF91CF911F910F91FF900895A0
:10061000EF92FF920F931F93CF93DF93182F062F24
:100620007A01E9010E941902811138C00093730018
:1006300084E8809374008091740087FFFCCF8091E0
:100640007100812F81600E941902811127C0DE0193
:10065000119761F1F701AE0DBF1D24EC20937400DA
:100660009091740097FFFCCF909173009193EA17DB
:10067000FB07A1F794E8909374009091740097FFA2
:10068000FCCF909173009C9394E990937400DF9158
:10069000CF911F910F91FF90EF90089581E0DF912E
:1006A000CF911F910F91FF90EF900895D701E2CF66
:1006B00084E98093740008951092610010926200A2
:1006C00080E487B980E886B986B1876086B9339AB5
:1006D000369A0895FC010897FCF440E050E061E090
:1006E00070E097B19B01042E01C0220F0A94EAF733
:1006F0002095292327B94F5F5F4F4530510589F772
:1007000097B1892F8E2B87B9369A349BFECF84B14F
:1007100025B190E0922B08958FEF9FEF08958830D8
:10072000910520F060E070E0CB0108950E946A031B
:10073000BC01990F880B990B0E94F30920E030E06F
:1007400040EA5BE30E94D70A0895E2E6F0E0808188
:10075000886080838081877F80830895779BFECF28
:100760001FB8779BFECF81E08FB9779BFECF80913A
:10077000620088608093620080916200877F80932E
:1007800062008FE998E20197F1F700C00000089538
:100790001FB8779BFECF80EC8FB9779BFECF8091FF
:1007A000620088608093620080916200877F8093FE
:1007B000620085EC8A95F1F70000089591E09FB9F9
:1007C000779BFECF8FB9779BFECF809162008860C8
:1007D0008093620080916200877F8093620085EC45
:1007E0008A95F1F700000895CF93DF93FC01DC01B7
:1007F00040E050E061E0779BFECF6FB9779BFECF82
:100800008D918FB9779BFECF909162009860909305
:10081000620090916200977F9093620085EC8A95C8
:10082000F1F700004F5F5F4FEF0109900020E9F7FB
:100830009E012E1B3F0B2250310924173507D8F695
:10084000DF91CF910895E1E6F0E0808188608083B8
:1008500088B388BB87B3876087BB80E58DB981E0AB
:100860008EB908958FE59AEE0197F1F700C0000068
:1008700023E030E090E31FB8779BFECF9FB9779BD2
:10088000FECF809162008860809362008091620058
:10089000877F8093620085EC8A95F1F700002150F4
:1008A000310949F71FB8779BFECF88E38FB9779B53
:1008B000FECF809162008860809362008091620028
:1008C000877F8093620095EC9A95F1F700001FB83E
:1008D000779BFECF88E08FB9779BFECF8091620037
:1008E00088608093620080916200877F80936200BD
:1008F00085EC8A95F1F700001FB8779BFECF81E069
:100900008FB9779BFECF80916200886080936200F0
:1009100080916200877F809362008FEF98E101975A
:10092000F1F700C000001FB8779BFECF86E08FB9BB
:10093000779BFECF809162008860809362008091F7
:100940006200877F8093620095EC9A95F1F7000032
:100950001FB8779BFECF8EE08FB9779BFECF80913B
:10096000620088608093620080916200877F80933C
:10097000620085EC8A95F1F7000008959093980045
:100980008093990088E180939A0086E080939D008F
:100990002FEF81EE94E0215080409040E1F700C0BD
:1009A0000000089590919B0095FFFCCF80939C00E0
:1009B0000895FC012081222351F0319690919B00F3
:1009C00095FFFCCF20939C0021912111F7CF089532
:1009D00080919B0087FFFCCF80919C000895DC01F3
:1009E000FC019C012B5F3F4F90919B0097FFFCCF38
:1009F00090919C009E3729F0E217F30719F091932C
:100A0000F3CF089582E38C9389E111968C9311972B
:100A10008BE412968C9312978EE713968C93139710
:100A200014961C920895EEE3F1E096E480919B0009
:100A300085FFFCCF90939C0091919111F7CF80910D
:100A40009B0087FF0CC090919C0080919B0085FFCC
:100A5000FCCF90939C0080919B0087FDF4CF08957C
:100A60009093900089B988E18AB98EE080939500CF
:100A70002FEF81EE94E0215080409040E1F700C0DC
:100A8000000008955D9BFECF8CB90895FC01908114
:100A9000992339F031965D9BFECF9CB991919111CC
:100AA000FACF089580E89DE8ABE5B0E004C0019777
:100AB000A109B10921F05F9BFACF8CB108958FEFA6
:100AC0000895DC01FC019C012B5F3F4F40E85DE88D
:100AD0006BE570E005C0415051096109710961F091
:100AE0005F9BF9CF9CB19E37B1F09F3F29F0E21791
:100AF000F30711F09193EACF82E38C9311968C93D4
:100B0000119712968C9312978EE713968C931397E6
:100B100014961C92089508955F9B03C08CB15F9951
:100B2000FDCF089583E090E0C49AEFE6F7E13197B6
:100B3000F1F700C00000C498FFEF23ED30E3F1505F
:100B400020403040E1F700C00000019769F70895A8
:100B50008FB580688FBD8FB580628FBD8FB588607F
:100B60008FBD8FB582608FBD8EB588618EBD8EB50D
:100B700082608EBD8FB7F89421E030E03DBD2CBD82
:100B800078948FBF8FEF9FEF97BD86BD2FEF81EEDB
:100B900094E0215080409040E1F700C000000895AB
:100BA00083E090E0C49AEFE6F7E13197F1F700C0F7
:100BB0000000C498FFEF23ED30E3F15020403040B7
:100BC000E1F700C00000019769F70C94A8059C01AB
:100BD0009FB7F8943DBD2CBD78949FBF08954F9268
:100BE0005F926F927F928F929F92AF92BF92CF92BD
:100BF000DF92EF92FF920F931F93CF93DF932B011E
:100C00003C0149015A016701780120E030E040EFE2
:100C100051E40E94440987FD64C020E030E04CE8C4
:100C200052E4C301B2010E94CA0A18160CF067C050
:100C300008EF1CE020E030E040EF51E4C501B401D2
:100C40000E94440987FD58C020E030E04CE852E49F
:100C5000C501B4010E94CA0A18160CF06DC0C8EF95
:100C6000DCE020E030E040EF51E4C701B6010E9433
:100C7000440987FD39C020E030E04CE852E4C70168
:100C8000B6010E94CA0A18160CF04BC083E3C82EA6
:100C9000DC2CEC2C8FE3F82E66B577B580E090E085
:100CA0000E94F109A70196010E94D70A0E94C20979
:100CB0001BBD0ABDD9BDC8BD709379006093780093
:100CC000DF91CF911F910F91FF90EF90DF90CF9028
:100CD000BF90AF909F908F907F906F905F904F905C
:100CE000089508E71AE0A6CF9AE9C92E99E9D92E06
:100CF000ED2C9EE3F92ED0CFC8E7DAE0B2CF20E0AA
:100D000030E040E851E4C301B2010E94D70A20E07C
:100D100030E849E055E40E9466080E94C2098B0150
:100D200089CF20E030E048EC52E4C701B6010E94D0
:100D300049096B017C01B0CF20E030E040E851E48C
:100D4000C501B4010E94D70A20E030E849E055E42B
:100D50000E9466080E94C209EB0183CF8CE30E94C7
:100D6000190280E00E943B0280E70E943B020E9441
:100D700058038CE30E94190281E00E943B0280EA42
:100D80000E943B020E9458038CE30E94190282E0F9
:100D90000E943B0280E00E943B020C945803CF92D9
:100DA000DF92EF92FF920F931F93CF93DF938C010B
:100DB000EB017A018CE30E94190283E00E943B025E
:100DC0000E9458038DE30E9419020E944D02F8010F
:100DD000108281830E944D02F80120813181282BED
:100DE000318320830E944D02F701108281830E948B
:100DF0004D02F70120813181282B318320830E940D
:100E00004D02188289830E94570228813981282B3C
:100E1000398328830E945803F80160817181072E6D
:100E2000000C880B990B0E94F3096B017C0168810F
:100E30007981072E000C880B990B0E94F309A701FA
:100E400096010E94E50820E030E044E353E40E946C
:100E5000D70A2BED3FE049E450E40E94490920E025
:100E600030E044E353E40E946608DF91CF911F9184
:100E70000F91FF90EF90DF90CF90089560E070E0C9
:100E8000CB01089560E070E0CB010895439880B5F0
:100E9000886080BD87B1887F87B9389A479888B1C4
:100EA000836088B9439A08954398479A80B5877FAD
:100EB00080BD0895C09A0895C098089580E090E09C
:100EC0000E948F0360934C0170934D0180934E01FB
:100ED00090934F0108958F929F92AF92BF92CF92BD
:100EE000DF92EF92FF9280E090E00E948F032091CA
:100EF0004C0130914D0140914E0150914F01809035
:100F00004C0190904D01A0904E01B0904F010E9475
:100F100065082AE939E949E95FE30E94D70A6B01CC
:100F20007C01A501940160E070E080E990E40E94FA
:100F300065089B01AC01C701B6010E944909FF90F9
:100F4000EF90DF90CF90BF90AF909F908F900895DB
:100F50000E946B0729EF37E447EA53E40E94D70A5F
:100F60000895CF93DF93CDB7DEB72F970FB6F894E0
:100F7000DEBF0FBECDBF8FEF87BB18BA87E690E00C
:100F80000E94300580E091E00E9446050E945C03CB
:100F90000E945E070E94D0051B861C861D861F8648
:100FA0008EE78E87E12CF12C08E412E4A80197016A
:100FB000C801B7010E94EF0523E7322E34E7C32EA4
:100FC0004FE6D42E8CE191E00E9446050E94A807CE
:100FD0008E010F5F1F4F27E043E00E94700B0E94BD
:100FE00046058AE191E00E94460584E291E00E9474
:100FF000460580E090E00E948F0327E043E00E94D6
:10100000700B0E9446058AE191E00E944605CE01E0
:101010000B960E9461056EE271E0CE010B960E9474
:10102000900B892B19F163E371E0CE010B960E94BE
:10103000900B892B09F442C068E371E0CE010B9656
:101040000E94900B892BC9F43B86CC86DD86E12C6F
:10105000F12C08E412E4A8019701C801B7010E942D
:10106000EF05CE010B960E944605ACCF8EE291E0D3
:101070000E9446050E94FB00A5CFCE010B960E9460
:1010800046056D8570E080E090E00E94F1094B011B
:101090005C016C8570E080E090E00E94F1092B011A
:1010A0003C016B8570E080E090E00E94F1098501D1
:1010B0007401A30192010E94EF0584CF0E945E0794
:1010C000CE010B960E9446057DCF5058BB27AA271C
:1010D0000E947D080C94900A0E94820A38F00E94B7
:1010E000890A20F039F49F3F19F426F40C94580A29
:1010F0000EF4E095E7FB0C94520AE92F0E94A10A36
:1011000058F3BA17620773078407950720F079F43C
:10111000A6F50C94C30A0EF4E0950B2EBA2FA02D61
:101120000B01B90190010C01CA01A0011124FF2794
:10113000591B99F0593F50F4503E68F11A16F0408F
:10114000A22F232F342F4427585FF3CF469537958E
:101150002795A795F0405395C9F77EF41F16BA0B53
:10116000620B730B840BBAF09150A1F0FF0FBB1F01
:10117000661F771F881FC2F70EC0BA0F621F731F4A
:10118000841F48F4879577956795B795F7959E3FA7
:1011900008F0B0CF9395880F08F09927EE0F979538
:1011A000879508950E94820A60F080E891E009F432
:1011B0009EEF0E94890A28F040E851E071F45EEF4A
:1011C0000CC00C94580A0C94C30AE92FE0780E94D2
:1011D000A10A40F3092E052AB1F32617370748075D
:1011E000590738F00E2E07F8E02569F0E025E06495
:1011F0000AC0EF6307F8009407FADB01B9019D010B
:10120000DC01CA01AD01EF930E9460090E94900ABF
:101210000E9415095F91552339F02BED3FE049E419
:1012200050FD49EC0C9466080895DF93DD27B92F33
:10123000BF7740E85FE31616170648075B0718F408
:10124000D92F0E94CF0A9F938F937F936F930E9411
:10125000440BECE8F0E00E945B0A0E94900A2F9198
:101260003F914F915F910E94EA0ADD2351F090581F
:10127000A2EA2AED3FE049EC5FE3D0785D270E94C7
:101280007D08DF910C94900A0E942E0A08F481E0F8
:1012900008950E945D090C94900A0E94890A58F0F2
:1012A0000E94820A40F029F45F3F29F00C94520A10
:1012B00051110C94C40A0C94580A0E94A10A68F3B4
:1012C0009923B1F3552391F3951B550BBB27AA27FF
:1012D00062177307840738F09F5F5F4F220F331F39
:1012E000441FAA1FA9F335D00E2E3AF0E0E832D001
:1012F00091505040E695001CCAF72BD0FE2F29D004
:10130000660F771F881FBB1F261737074807AB07D5
:10131000B0E809F0BB0B802DBF01FF2793585F4F4A
:101320003AF09E3F510578F00C94520A0C94C40A8E
:101330005F3FE4F3983ED4F3869577956795B7952C
:10134000F7959F5FC9F7880F911D9695879597F937
:101350000895E1E0660F771F881FBB1F62177307B0
:101360008407BA0720F0621B730B840BBA0BEE1FC5
:1013700088F7E09508950E94C2096894B1110C9411
:10138000C40A08950E94A90A88F09F5798F0B92FBF
:101390009927B751B0F0E1F0660F771F881F991FAA
:1013A0001AF0BA95C9F714C0B13091F00E94C30A7F
:1013B000B1E008950C94C30A672F782F8827B85F8F
:1013C00039F0B93FCCF3869577956795B395D9F702
:1013D0003EF490958095709561957F4F8F4F9F4F0C
:1013E0000895E89409C097FB3EF490958095709518
:1013F00061957F4F8F4F9F4F9923A9F0F92F96E961
:10140000BB279395F695879577956795B795F111D5
:10141000F8CFFAF4BB0F11F460FF1BC06F5F7F4F72
:101420008F4F9F4F16C0882311F096E911C0772384
:1014300021F09EE8872F762F05C0662371F096E88D
:10144000862F70E060E02AF09A95660F771F881F5C
:10145000DAF7880F9695879597F90895990F000800
:10146000550FAA0BE0E8FEEF16161706E807F90776
:10147000C0F012161306E407F50798F0621B730B11
:10148000840B950B39F40A2661F0232B242B252B92
:1014900021F408950A2609F4A140A6958FEF811D35
:1014A000811D089597F99F6780E870E060E00895D6
:1014B0009FEF80EC0895DF93CF931F930F93FF92DC
:1014C000EF92DF927B018C01689406C0DA2EEF0167
:1014D0000E94EA0AFE01E894A59125913591459173
:1014E0005591A6F3EF010E947D08FE019701A80126
:1014F000DA9469F7DF90EF90FF900F911F91CF91F1
:10150000DF91089500240A94161617061806090696
:10151000089500240A941216130614060506089569
:10152000092E0394000C11F4882352F0BB0F40F4F1
:10153000BF2B11F460FF04C06F5F7F4F8F4F9F4F31
:10154000089557FD9058440F551F59F05F3F71F0B3
:101550004795880F97FB991F61F09F3F79F087951A
:101560000895121613061406551FF2CF4695F1DFA3
:1015700008C0161617061806991FF1CF8695710533
:10158000610508940895E894BB2766277727CB0167
:1015900097F908950E942E0A08F48FEF08959B0191
:1015A000AC0160E070E080E89FE30C9449090E9480
:1015B000EA0A0C94900A0E94820A38F00E94890A72
:1015C00020F0952311F00C94520A0C94580A11241F
:1015D0000C94C40A0E94A10A70F3959FC1F3950F61
:1015E00050E0551F629FF001729FBB27F00DB11DA7
:1015F000639FAA27F00DB11DAA1F649F6627B00D37
:10160000A11D661F829F2227B00DA11D621F739F1F
:10161000B00DA11D621F839FA00D611D221F749F2D
:101620003327A00D611D231F849F600D211D822F74
:10163000762F6A2F11249F5750409AF0F1F088239B
:101640004AF0EE0FFF1FBB1F661F771F881F9150C8
:101650005040A9F79E3F510580F00C94520A0C941B
:10166000C40A5F3FE4F3983ED4F386957795679577
:10167000B795F795E7959F5FC1F7FE2B880F911DF2
:101680009695879597F908959B01AC010C94D70A1C
:1016900097FB072E16F4009407D077FD09D00E941F
:1016A0005C0B07FC05D03EF4909581959F4F089503
:1016B000709561957F4F0895AA1BBB1B51E107C030
:1016C000AA1FBB1FA617B70710F0A61BB70B881FD2
:1016D000991F5A95A9F780959095BC01CD01089561
:1016E000EF920F931F93CF93DF93E80147FD16C04E
:1016F00034E0042E000C550B57FF03C05195419563
:101700005109E32E022F242FAE010E94990BCE0126
:10171000DF91CF911F910F91EF90089534E1E9CFC0
:10172000FB01DC018D91019080190110D9F3990B17
:1017300008958F929F92AF92BF92CF92DF92EF92D5
:10174000FF920F931F93CF93DF93CDB7DEB7299707
:101750000FB6F894DEBF0FBECDBF6A01F22EB02ED9
:101760002BE3201708F45FC011E0100F012F27E0D2
:10177000AE014F5F5F4F0E941A0DBC013981832F6C
:101780008970813009F451C0E1FC51C09E2D9170E7
:10179000E0FC90E2AE2DA071832F887033FF5AC019
:1017A000911147C083E08F1508F045C0F81AA111C8
:1017B00008C0F6018F2D20E281113FC0CF0CD11C53
:1017C000F12C992329F0D6019C93F60131966F01F3
:1017D000C6010396E2FE34C02EE4D6012C9331E418
:1017E00011963C93119712962C93FC012F2D30E209
:1017F00021112DC08F0D911DDC011C928EEF9FEFEA
:1018000029960FB6F894DEBF0FBECDBFDF91CF9102
:101810001F910F91FF90EF90DF90CF90BF90AF900E
:101820009F908F9008951CE3A1CF9DE2B3CF9BE2E0
:10183000B1CF84E0B8CFF12CBACF21938150BCCF87
:101840002EE6F601208331E631832283CECF319319
:101850002150CECF232F247032FF41C091112FC0D1
:1018600023E02F1510F48F2D821BA11108C0F60163
:10187000282F30E2211125C0C80ED11C80E0992309
:1018800031F0F601908396012F5F3F4F6901960179
:101890002D5F3F4FE2FE18C099E4D6019C939EE471
:1018A00011969C93119796E412969C93F901982FA8
:1018B00040E2911111C0280F311DD9019ECF24E0C3
:1018C000D0CF31932150D6CF99E6F60190839EE692
:1018D000918396E69283EACF41939150EACF41E01B
:1018E00050E0911102C040E050E0161617060CF0CF
:1018F00075C0FB013196E40FF51FBB2009F471C0E0
:101900004B2D50E04F5F5F4F4E0F5F1FEF2DF0E00C
:101910004E175F0714F42F2D241B8E2D887141F470
:10192000F601822F40E281115FC0C20ED11C20E07F
:10193000992329F0F6019083C60101966C01A1114B
:1019400008C0F601822F90E3811151C0C20ED11C54
:1019500020E0012F060F9A81A32FA071AA2E34FF39
:1019600003C0913309F4015010160CF043C0093044
:1019700008F008E0AB0177FF02C040E050E0FB0157
:101980003196E41BF50BA1E0B0E0AC0FBD1FEA0FF0
:10199000FB1F3EE24B01801A91080B2D10E01195C0
:1019A000019511094F3FBFEF5B0721F4D6013C932E
:1019B00011966D0164177507FCF084169506E4F422
:1019C0008081415051093196D60111967D01401711
:1019D0005107A4F0D6018C936701E4CFE1E0F0E079
:1019E0008ACF40E050E090CF419381509CCF9193BB
:1019F0008150AACF01E0BECF80E3E3CF6417750723
:101A000031F4963390F4953311F4AA2071F0F60175
:101A10008083F701822F90E2811109C0F701E20F64
:101A2000F11D108280E090E0EBCE81E3F0CF919346
:101A30008150F2CF283008F027E03327DA01990FE0
:101A4000311D87FD916000966105710539F43260A2
:101A50002E5F3D9330E32A95E1F708959F3F30F0E4
:101A600080387105610509F03C5F3C5F3D93913022
:101A700008F08068911DDF93CF931F930F93FF921F
:101A8000EF92192F987F9695E92F96959695E90FE5
:101A9000FF27EC5EFE4F99273327EE24FF24A70192
:101AA000E70105900894079428F4360FE71EF81E06
:101AB000491F511D660F771F881F991F0694A1F7B4
:101AC0000590079428F4E70EF81E491F561FC11D04
:101AD000770F881F991F661F0694A1F7059007943A
:101AE00028F4F80E491F561FC71FD11D880F991FD4
:101AF000661F771F0694A1F70590079420F4490FFD
:101B0000561FC71FD81F990F661F771F881F06947F
:101B1000A9F784911095177041F0D695C795579500
:101B20004795F794E7941A95C1F7EAEBF0E06894CB
:101B30001590159135916591959105907FE273957A
:101B4000E118F10A430B560BC90BD009C0F7E10CA1
:101B5000F11E431F561FC91FD01D7EF4703311F4B0
:101B60008A95E6CFE894015030F0080F0AF4002778
:101B7000021708F4202F2395022F7A3328F079E3F7
:101B80007D932A95E9F710C07D932A9589F60694EE
:101B900097956795379517951794E118F10A430BB8
:101BA000560BC90BD00998F023957E9173957A3323
:101BB00008F070E37C932013B8F77E9170617D93F9
:101BC00030F0839571E37D9370E32A95E1F711245A
:101BD000EF90FF900F911F91CF91DF91992787FD93
:081BE00090950895F894FFCFE1
:101BE8005553415254302028525332333229204918
:101BF8006E697469616C697A65640D004465707416
:101C0800683A2000566F6C746167653A2000656514
:101C1800657E006666667E003232327E00466C75EE
:0C1C28007368696E67205541525431000A
:00000001FF
