:100000000C94DA000C94F9000C94F9000C94F900AB
:100010000C94F9000C94FB000C9497010C94F900DB
:100020000C94F9000C94F9000C94F9000C94F9006C
:100030000C94F9000C94F9000C94F9000C94F9005C
:100040000C94F9000C94F9000C94F9000C94F9004C
:100050000C94F9000C94F9000C94F9000C94F9003C
:100060000C94F9000C94F9000C9433020C94F900F0
:100070000C94F9000C94F9000C94F9000C94F9001C
:100080000C94F9000C94F9000C94F900084AD73B41
:100090003BCE016E84BCBFFDC12F3D6C74319ABD57
:1000A00056833DDA3D00C77F11BED9E4BB4C3E917B
:1000B0006BAAAABE000000803F0000407A10F35AED
:1000C00000A0724E18090010A5D4E80000E8764898
:1000D000170000E40B54020000CA9A3B000000E144
:1000E000F505000080969800000040420F000000D7
:1000F000A08601000000102700000000E8030000B7
:1001000000006400000000000A0000000000010080
:10011000000000002C76D888DC674F0823DFC1DFA1
:10012000AE59E1B1B796E5E3E453C63AE6519976A4
:1001300096E8E6C28426EB898C9B62ED407C6FFCDE
:10014000EFBC9C9F40F2BAA56FA5F490055A2AF720
:100150005C936B6CF9676DC11BFCE0E40D47FEF529
:1001600020E6B500D0ED902E030094357705008091
:10017000841E080000204E0A000000C80C333333F0
:10018000330F986E12831141EF8D2114893BE65590
:1001900016CFFEE6DB18D1844B381BF77C1D901D73
:1001A000A4BBE424203284725E228100C9F124ECD5
:1001B000A1E53D2711241FBECFEFD0E1DEBFCDBFAB
:1001C00012E0A0E0B1E0E6E8F1E200E00BBF02C01F
:1001D00007900D92AE33B107D9F722E0AEE3B2E05B
:1001E00001C01D92AE34B207E1F70E945B0A0C9485
:1001F000C1100C9400001F920F920FB60F921124A1
:100200000BB60F92EF92FF920F931F932F933F9392
:100210004F935F936F937F938F939F93AF93BF930E
:10022000EF93FF9381E090E090933F0280933E0232
:1002300082E091E00E94F00784E191E00E94F007E3
:100240006091000170910101072E000C880B990B41
:100250000E94C20C7B018C0120E030E0A901CA01A0
:10026000B9010E9499082FEF83ED90E3215080405F
:100270009040E1F700C00000609100017091010121
:10028000072E000C880B990B0E94C20C7B018C017D
:1002900020E030E048E452E4CA01B9010E94990824
:1002A0002FEF89E698E1215080409040E1F700C0AF
:1002B000000080E291E00E94F007609100017091DF
:1002C0000101072E000C880B990B0E94C20C7B01C8
:1002D0008C0120E030E042E852E460E070E08CE025
:1002E00092E40E9499082FEF83ED90E32150804023
:1002F0009040E1F700C0000080E391E00E94F00729
:10030000FF91EF91BF91AF919F918F917F916F91ED
:100310005F914F913F912F911F910F91FF90EF901F
:100320000F900BBE0F900FBE0F901F9018951F924D
:100330000F920FB60F9211240BB60F92EF92FF920D
:100340000F931F932F933F934F935F936F937F93DD
:100350008F939F93AF93BF93EF93FF9381E090E0D0
:1003600090933F0280933E028BE391E00E94F0075E
:1003700084E191E00E94F007609100017091010119
:10038000072E000C880B990B0E94C20C7B018C017C
:1003900020E030E0A901CA01B9010E9499082FEFBD
:1003A00083ED90E3215080409040E1F700C00000D1
:1003B0006091000170910101072E000C880B990BD0
:1003C0000E94C20C7B018C0120E030E048E452E442
:1003D000CA01B9010E9499082FEF89E698E12150DE
:1003E00080409040E1F700C000008EE491E00E9460
:1003F000F0076091000170910101072E000C880B3D
:10040000990B0E94C20C7B018C0120E030E04CE093
:1004100052E460E070E082E892E40E9499082FEFD5
:1004200083ED90E3215080409040E1F700C0000050
:1004300080E391E00E94F007FF91EF91BF91AF91AF
:100440009F918F917F916F915F914F913F912F91EC
:100450001F910F91FF90EF900F900BBE0F900FBE6A
:100460000F901F9018951F920F920FB60F921124A4
:100470000BB60F920F931F932F933F934F935F935E
:100480006F937F938F939F93AF93BF93EF93FF935C
:100490008DE591E00E94F0070E94520A04E412E008
:1004A00027E043E00E943F0E0E94F0078CEE91E0AF
:1004B0000E94F00785E691E00E94F00780913E02DD
:1004C00090913F02892BC9F582E791E00E94F007E5
:1004D0008CEE91E00E94F00785E791E00E94F00722
:1004E0008FE791E00E94F0078CEE91E00E94F00708
:1004F00083E991E00E94F0078FE791E00E94F00706
:100500008CEE91E00E94F0078CEE91E00E94F007E3
:10051000FF91EF91BF91AF919F918F917F916F91DB
:100520005F914F913F912F911F910F910F900BBEB3
:100530000F900FBE0F901F9018958EE691E00E94CD
:10054000F00710923F0210923E02C2CF4F925F928C
:100550006F927F928F929F92AF92BF92EF92FF9293
:100560000F931F932B013C0120E030E0A9010E9472
:10057000990D18165CF50E94520A4B015C016091BE
:100580000001709101016C5E7F4F072E000C880BFB
:10059000990B0E94C20C7B018C0120E030E048E402
:1005A00052E4CA01B9010E9499082FEF81EE94E04C
:1005B000215080409040E1F700C00000A501940167
:1005C000C301B2010E94990D1816ACF260910001AE
:1005D00070910101072E000C880B990B0E94C20C30
:1005E0007B018C0120E030E048E452E4CA01B9010B
:1005F0000E9499081F910F91FF90EF90BF90AF90CC
:100600009F908F907F906F905F904F900895149877
:1006100015981C9A1D9A8AB782608ABF8AB788602B
:100620008ABF89B7806389BF0895EBE8F0E08081D5
:100630008068808380818F7B8083EAE8F0E080811E
:10064000846080838FB7F89421E030E03093890094
:100650002093880078948FBF8FEF9FEF9093810055
:1006600080938000909387008093860080E1809340
:100670007D000895EF92FF920F931F9381EA91E01E
:100680000E94F0076091000170910101072E000C9B
:10069000880B990B0E94C20C7B018C0120E030E09A
:1006A00046E952E4CA01B9010E9499082FEF87EA8E
:1006B00091E6215080409040E1F700C0000080EBBF
:1006C00091E00E94F007E12CF12C870120E030E05E
:1006D00048E452E4CA01B9010E9499082FEF8BE760
:1006E00092E9215080409040E1F700C000008CEB7F
:1006F00091E00E94F0076091000170910101072EC6
:10070000000C880B990B0E94C20C7B018C0120E02D
:1007100030E046E952E460E070E088EC91E40E9449
:1007200099082FEF87EA91E6215080409040E1F749
:1007300000C0000081EA91E00E94F0076091000192
:1007400070910101072E000C880B990B0E94C20CBE
:100750007B018C0120E030E046E952E4CA01B90196
:100760000E9499082FEF87EA91E62150804090403F
:10077000E1F700C000008CEB91E00E94F00760916F
:10078000000170910101072E000C880B990B0E944B
:10079000C20C7B018C0120E030E046E952E460E0CD
:1007A00070E088EC91E40E9499082FEF87EA91E6C7
:1007B000215080409040E1F700C0000081EA91E0C4
:1007C0000E94F0076091000170910101072E000C5A
:1007D000880B990B0E94C20C7B018C0120E030E059
:1007E00046E952E4CA01B9010E9499082FEF87EA4D
:1007F00091E6215080409040E1F700C0000088EC75
:1008000091E00E94F007E12CF12C08EC12E420E0CA
:1008100030E048E452E4CA01B9010E94990881EA33
:1008200091E00E94F0076091000170910101072E94
:10083000000C880B990B0E94C20C7B018C0120E0FC
:1008400030E046E952E4CA01B9010E9499088CEBF4
:1008500091E00E94F0076091000170910101072E64
:10086000000C880B990B0E94C20C7B018C0120E0CC
:1008700030E046E952E460E070E088EC91E40E94E8
:1008800099082FEF87EA91E6215080409040E1F7E8
:1008900000C000001F910F91FF90EF900895089500
:1008A0000895CF92DF92EF92FF920F931F93CF9311
:1008B000DF93EC0140E050E060E070E080E090E029
:1008C0000E9479096B017C01BE010D2E000C880B82
:1008D000990B0E94C20CA70196010E94350B0E9441
:1008E0008A0CCB0168E671E00E94170E8C01D7FDDF
:1008F00029C0CD2BF1F0C701B6010E948A0C061762
:100900001707B9F0E12CF12C08E412E420E030E004
:1009100040E751EC60E070E080E791E40E949908C4
:1009200040E050E060E070E080E090E00E947909F3
:10093000E9CFDF91CF911F910F91FF90EF90DF9062
:10094000CF900895C701B6010E948A0C06171707B9
:1009500081F3E12CF12C08E412E420E030E040E7E0
:1009600051E460E070E080E791EC0E94990840E07B
:1009700050E060E070E080E090E00E947909E9CF0B
:1009800088E48093700008951092740094EA909324
:1009900074009091740097FFFCCF90917100987F44
:1009A000983011F081E008958093730084E880937B
:1009B00074008091740087FFFCCF80917100887F64
:1009C000883111F0803471F780E0089580937300CE
:1009D00084E8809374008091740087FFFCCF90912D
:1009E0007100987F81E0983209F0089580E00895C1
:1009F00084EC809374008091740087FFFCCF809119
:100A00007300089584E8809374008091740087FFD8
:100A1000FCCF8091730008950F931F93CF93DF93C2
:100A20008B01EA010E94C40481111FC02097A9F024
:100A3000F801C00FD11F24E8919190937300209387
:100A400074009091740097FFFCCF90917100987F93
:100A5000983259F4EC17FD0779F794E990937400F4
:100A6000DF91CF911F910F91089581E0DF91CF9198
:100A70001F910F9108950F931F93CF93DF938B01D5
:100A8000EA0181600E94C404811125C0DE01119732
:100A900041F1F801A00FB11F24EC20937400909154
:100AA000740097FFFCCF909173009193AE17BF072E
:100AB000A1F794E8909374009091740097FFFCCF95
:100AC000909173009C9394E990937400DF91CF917F
:100AD0001F910F91089581E0DF91CF911F910F91A8
:100AE0000895D801E6CFFF920F931F93CF93DF9322
:100AF000162FF42E052FE9010E94C40481112CC089
:100B00001093730094E8909374009091740097FF91
:100B1000FCCF909171002097B1F0EF2DF02FCE0F08
:100B2000DF1F44E89191909373004093740090917B
:100B3000740097FFFCCF90917100987F983261F418
:100B4000EC17FD0779F794E990937400DF91CF914A
:100B50001F910F91FF90089581E0DF91CF911F9138
:100B60000F91FF900895EF92FF920F931F93CF93F1
:100B7000DF93182F062F7A01E9010E94C404811126
:100B800038C00093730084E88093740080917400EF
:100B900087FFFCCF80917100812F81600E94C40487
:100BA000811127C0DE01119761F1F701AE0DBF1D64
:100BB00024EC209374009091740097FFFCCF9091E7
:100BC00073009193EA17FB07A1F794E890937400E0
:100BD0009091740097FFFCCF909173009C9394E9DF
:100BE00090937400DF91CF911F910F91FF90EF9040
:100BF000089581E0DF91CF911F910F91FF90EF90C9
:100C00000895D701E2CF84E980937400089510928B
:100C100061001092620080E487B980E886B986B1ED
:100C2000876086B9369A0895FC010897FCF440E085
:100C300050E061E070E097B19B01042E01C0220FEB
:100C40000A94EAF72095292327B94F5F5F4F453073
:100C5000510589F797B1892F8E2B87B9369A349B26
:100C6000FECF84B125B190E0922B08958FEF9FEFD6
:100C700008958830910520F060E070E0CB01089580
:100C80000E941406BC01990F880B990B0E94C20C9C
:100C900020E030E040EA5BE30E94A60D0895E2E622
:100CA000F0E08081886080838081877F80830895E1
:100CB000779BFECF1FB8779BFECF81E08FB9779BE4
:100CC000FECF809162008860809362008091620014
:100CD000877F809362008FE998E20197F1F700C067
:100CE000000008951FB8779BFECF80EC8FB9779BEB
:100CF000FECF8091620088608093620080916200E4
:100D0000877F8093620085EC8A95F1F70000089553
:100D100091E09FB9779BFECF8FB9779BFECF8091F3
:100D2000620088608093620080916200877F809378
:100D3000620085EC8A95F1F700000895CF93DF9368
:100D4000FC01DC0140E050E061E0779BFECF6FB931
:100D5000779BFECF8D918FB9779BFECF90916200EC
:100D600098609093620090916200977F90936200E8
:100D700085EC8A95F1F700004F5F5F4FEF01099016
:100D80000020E9F79E012E1B3F0B2250310924174A
:100D90003507D8F6DF91CF910895E1E6F0E0808144
:100DA0008860808388B388BB87B3876087BB80E512
:100DB0008DB981E08EB908958FE59AEE0197F1F72C
:100DC00000C0000023E030E090E31FB8779BFECF27
:100DD0009FB9779BFECF809162008860809362000C
:100DE00080916200877F8093620085EC8A95F1F79D
:100DF00000002150310949F71FB8779BFECF88E3E7
:100E00008FB9779BFECF80916200886080936200EB
:100E100080916200877F8093620095EC9A95F1F74C
:100E200000001FB8779BFECF88E08FB9779BFECF7D
:100E30008091620088608093620080916200877F69
:100E40008093620085EC8A95F1F700001FB8779BCC
:100E5000FECF81E08FB9779BFECF809162008860E2
:100E60008093620080916200877F809362008FEFA1
:100E700098E10197F1F700C000001FB8779BFECF03
:100E800086E08FB9779BFECF809162008860809367
:100E9000620080916200877F8093620095EC9A9552
:100EA000F1F700001FB8779BFECF8EE08FB9779BDC
:100EB000FECF809162008860809362008091620022
:100EC000877F8093620085EC8A95F1F70000089592
:100ED000909398008093990088E180939A0086E02F
:100EE00080939D002FEF81EE94E021508040904050
:100EF000E1F700C00000089590919B0095FFFCCFA2
:100F000080939C000895FC012081222351F03196AA
:100F100090919B0095FFFCCF20939C002191211183
:100F2000F7CF089580919B0087FFFCCF80919C00B4
:100F30000895DC01FC019C012B5F3F4F90919B00C9
:100F400097FFFCCF90919C009E3729F0E217F307A2
:100F500019F09193F3CF089582E38C9389E1119670
:100F60008C9311978BE412968C9312978EE71396BD
:100F70008C93139714961C920895E0E3F2E096E4A4
:100F800080919B0085FFFCCF90939C0091919111E3
:100F9000F7CF80919B0087FF0CC090919C008091BF
:100FA0009B0085FFFCCF90939C0080919B0087FD68
:100FB000F4CF08959093900089B988E18AB98EE0C2
:100FC000809395002FEF81EE94E021508040904077
:100FD000E1F700C0000008955D9BFECF8CB9089535
:100FE000FC019081992339F031965D9BFECF9CB92D
:100FF00091919111FACF089580E89DE8ABE5B0E0BA
:1010000004C00197A109B10921F05F9BFACF8CB10F
:1010100008958FEF0895DC01FC019C012B5F3F4F89
:1010200040E85DE86BE570E005C041505109610999
:10103000710961F05F9BF9CF9CB19E37B1F09F3F82
:1010400029F0E217F30711F09193EACF82E38C9332
:1010500011968C93119712968C9312978EE7139694
:101060008C93139714961C92089508955F9B03C068
:101070008CB15F99FDCF089583E090E0C49AEFE6CC
:10108000F7E13197F1F700C00000C498FFEF23EDBE
:1010900030E3F15020403040E1F700C000000197FC
:1010A00069F708958FB580688FBD8FB580628FBD59
:1010B0008FB588608FBD8FB582608FBD8EB588611A
:1010C0008EBD8EB582608EBD8FB7F89421E030E082
:1010D0003DBD2CBD78948FBF8FEF9FEF97BD86BD30
:1010E0002FEF81EE94E0215080409040E1F700C066
:1010F0000000089583E090E0C49AEFE6F7E13197AD
:10110000F1F700C00000C498FFEF23ED30E3F15089
:1011100020403040E1F700C00000019769F70C94CF
:1011200052089C019FB7F8943DBD2CBD78949FBF99
:1011300008954F925F926F927F928F929F92AF929B
:10114000BF92CF92DF92EF92FF920F931F93CF93B4
:10115000DF932B013C0149015A016701780120E02E
:1011600030E040EF51E40E94130C87FD64C020E0A2
:1011700030E04CE852E4C301B2010E94990D181608
:101180000CF067C008EF1CE020E030E040EF51E4D5
:10119000C501B4010E94130C87FD58C020E030E067
:1011A0004CE852E4C501B4010E94990D18160CF0E8
:1011B0006DC0C8EFDCE020E030E040EF51E4C70153
:1011C000B6010E94130C87FD39C020E030E04CE8E6
:1011D00052E4C701B6010E94990D18160CF04BC0DD
:1011E00083E3C82EDC2CEC2C8FE3F82E66B577B5A4
:1011F00080E090E00E94C00CA70196010E94A60D1D
:101200000E94910C1BBD0ABDD9BDC8BD7093790069
:1012100060937800DF91CF911F910F91FF90EF9035
:10122000DF90CF90BF90AF909F908F907F906F9006
:101230005F904F90089508E71AE0A6CF9AE9C92E6B
:1012400099E9D92EED2C9EE3F92ED0CFC8E7DAE04C
:10125000B2CF20E030E040E851E4C301B2010E9487
:10126000A60D20E030E849E055E40E94350B0E94CD
:10127000910C8B0189CF20E030E048EC52E4C701AB
:10128000B6010E94180C6B017C01B0CF20E030E069
:1012900040E851E4C501B4010E94A60D20E030E809
:1012A00049E055E40E94350B0E94910CEB0183CF7D
:1012B0008CE30E94C40480E00E94E60480E70E9460
:1012C000E6040E9403068CE30E94C40481E00E94AD
:1012D000E60480EA0E94E6040E9403068CE30E9472
:1012E000C40482E00E94E60480E00E94E6040C94BC
:1012F0000306CF92DF92EF92FF920F931F93CF934B
:10130000DF938C01EB017A018CE30E94C40483E03B
:101310000E94E6040E9403068DE30E94C4040E941A
:10132000F804F801108281830E94F804F8012081FA
:101330003181282B318320830E94F804F701108229
:1013400081830E94F804F70120813181282B3183A9
:1013500020830E94F804188289830E940205288154
:101360003981282B398328830E940306F801608184
:101370007181072E000C880B990B0E94C20C6B0127
:101380007C0168817981072E000C880B990B0E94E3
:10139000C20CA70196010E94B40B20E030E044E3A8
:1013A00053E40E94A60D2BED3FE049E450E40E9477
:1013B000180C20E030E044E353E40E94350BDF9149
:1013C000CF911F910F91FF90EF90DF90CF900895F4
:1013D00060E070E0CB01089560E070E0CB0108951B
:1013E000439880B5886080BD87B1887F87B9389A77
:1013F000479888B1836088B9439A08954398479A7B
:1014000080B5877F80BD0895C09A0895C0980895DB
:1014100080E090E00E9439066093400270934102A0
:10142000809342029093430208958F929F92AF92CD
:10143000BF92CF92DF92EF92FF9280E090E00E9405
:101440003906209140023091410240914202509170
:1014500043028090400290904102A0904202B090DE
:1014600043020E94340B2AE939E949E95FE30E940B
:10147000A60D6B017C01A501940160E070E080E99C
:1014800090E40E94340B9B01AC01C701B6010E949D
:10149000180CFF90EF90DF90CF90BF90AF909F908F
:1014A0008F9008950E94150A29EF37E447EA53E424
:1014B0000E94A60D0895CF93DF9300D000D01F9215
:1014C000CDB7DEB78FEF87BB18BA87E690E00E94F2
:1014D000DA0782ED91E00E94F00782E390E09093BA
:1014E0000101809300010E9407060E94080A0E94E1
:1014F0007A080E9415030E940703789419821A82C1
:101500001B821D828EE78C83E12CF12C08E412E40F
:10151000A8019701C801B7010E949908CE01019660
:101520000E940B086FEE71E0CE0101960E945F0EE3
:10153000892B89F18981873609F453C063E072E011
:10154000CE0101960E945F0E892B71F16CE172E071
:10155000CE0101960E945F0E892B09F482C061E2E0
:1015600072E0CE0101960E945F0E892B09F050C0F7
:10157000E12CF12C08E412E4A8019701C801B7019D
:101580000E949908CE0101960E94F0078CEE91E02E
:101590000E94F007C3CFCE0101960E94F007549835
:1015A0000E943A03549ABACF60E070E080E291E47E
:1015B0000E94A60288E092E00E94F007CE01019608
:1015C0000E94F0078CEE91E00E94F0072AEA36EEC6
:1015D00086E991E02150304080409040D9F70000EA
:1015E0009DCF8A81873609F0A9CF8C818E3709F08B
:1015F000A5CFCE0101960E94F00784EF91E00E94F2
:10160000F0078B8190E0909301018093000186CFD9
:1016100086E292E00E94F007CE0101960E94F00758
:101620008CEE91E00E94F0076B8170E080E090E02A
:101630000E94C00C6B017C016A8170E080E090E048
:101640000E94C00C4B015C01698170E080E090E079
:101650000E94C00C87017601A50194010E9499089F
:101660005DCF0E94080A8ECF5058BB27AA270E9440
:101670004C0B0C945F0D0E94510D38F00E94580DD8
:1016800020F039F49F3F19F426F40C94270D0EF442
:10169000E095E7FB0C94210DE92F0E94700D58F3A3
:1016A000BA17620773078407950720F079F4A6F547
:1016B0000C94920D0EF4E0950B2EBA2FA02D0B0179
:1016C000B90190010C01CA01A0011124FF27591B87
:1016D00099F0593F50F4503E68F11A16F040A22F8D
:1016E000232F342F4427585FF3CF469537952795FE
:1016F000A795F0405395C9F77EF41F16BA0B620BFD
:10170000730B840BBAF09150A1F0FF0FBB1F661F43
:10171000771F881FC2F70EC0BA0F621F731F841F86
:1017200048F4879577956795B795F7959E3F08F0AC
:10173000B0CF9395880F08F09927EE0F979587956E
:1017400008950E94510D60F080E891E009F49EEF49
:101750000E94580D28F040E851E071F45EEF0CC093
:101760000C94270D0C94920DE92FE0780E94700DD7
:1017700040F3092E052AB1F3261737074807590702
:1017800038F00E2E07F8E02569F0E025E0640AC085
:10179000EF6307F8009407FADB01B9019D01DC0152
:1017A000CA01AD01EF930E942F0C0E945F0D0E94B1
:1017B000E40B5F91552339F02BED3FE049E450FDF8
:1017C00049EC0C94350B0895DF93DD27B92FBF77D3
:1017D00040E85FE31616170648075B0718F4D92F91
:1017E0000E949E0D9F938F937F936F930E94130E81
:1017F000ECE8F0E00E942A0D0E945F0D2F913F91CE
:101800004F915F910E94B90DDD2351F09058A2EAEB
:101810002AED3FE049EC5FE3D0785D270E944C0B56
:10182000DF910C945F0D0E94FD0C08F481E0089597
:101830000E942C0C0C945F0D0E94580D58F00E94D1
:10184000510D40F029F45F3F29F00C94210D511106
:101850000C94930D0C94270D0E94700D68F399233E
:10186000B1F3552391F3951B550BBB27AA2762179C
:101870007307840738F09F5F5F4F220F331F441FA9
:10188000AA1FA9F335D00E2E3AF0E0E832D09150DD
:101890005040E695001CCAF72BD0FE2F29D0660FCA
:1018A000771F881FBB1F261737074807AB07B0E80D
:1018B00009F0BB0B802DBF01FF2793585F4F3AF013
:1018C0009E3F510578F00C94210D0C94930D5F3FD1
:1018D000E4F3983ED4F3869577956795B795F79599
:1018E0009F5FC9F7880F911D9695879597F9089581
:1018F000E1E0660F771F881FBB1F6217730784071D
:10190000BA0720F0621B730B840BBA0BEE1F88F72B
:10191000E09508950E94910C6894B1110C94930D78
:1019200008950E94780D88F09F5798F0B92F992755
:10193000B751B0F0E1F0660F771F881F991F1AF0BA
:10194000BA95C9F714C0B13091F00E94920DB1E080
:1019500008950C94920D672F782F8827B85F39F07F
:10196000B93FCCF3869577956795B395D9F73EF453
:1019700090958095709561957F4F8F4F9F4F0895FB
:10198000E89409C097FB3EF4909580957095619519
:101990007F4F8F4F9F4F9923A9F0F92F96E9BB27CF
:1019A0009395F695879577956795B795F111F8CF4B
:1019B000FAF4BB0F11F460FF1BC06F5F7F4F8F4FB6
:1019C0009F4F16C0882311F096E911C0772321F0AC
:1019D0009EE8872F762F05C0662371F096E8862F44
:1019E00070E060E02AF09A95660F771F881FDAF79B
:1019F000880F9695879597F90895990F0008550FC8
:101A0000AA0BE0E8FEEF16161706E807F907C0F084
:101A100012161306E407F50798F0621B730B840B8C
:101A2000950B39F40A2661F0232B242B252B21F466
:101A300008950A2609F4A140A6958FEF811D811D06
:101A4000089597F99F6780E870E060E008959FEF40
:101A500080EC0895DF93CF931F930F93FF92EF9243
:101A6000DF927B018C01689406C0DA2EEF010E94A0
:101A7000B90DFE01E894A5912591359145915591B7
:101A8000A6F3EF010E944C0BFE019701A801DA9426
:101A900069F7DF90EF90FF900F911F91CF91DF9149
:101AA000089500240A9416161706180609060895C4
:101AB00000240A9412161306140605060895092E2A
:101AC0000394000C11F4882352F0BB0F40F4BF2B99
:101AD00011F460FF04C06F5F7F4F8F4F9F4F0895D9
:101AE00057FD9058440F551F59F05F3F71F04795CF
:101AF000880F97FB991F61F09F3F79F087950895B4
:101B0000121613061406551FF2CF4695F1DF08C0D2
:101B1000161617061806991FF1CF869571056105EF
:101B200008940895E894BB2766277727CB0197F997
:101B300008950E94FD0C08F48FEF08959B01AC01FD
:101B400060E070E080E89FE30C94180C0E94B90DEF
:101B50000C945F0D0E94510D38F00E94580D20F03A
:101B6000952311F00C94210D0C94270D11240C9445
:101B7000930D0E94700D70F3959FC1F3950F50E087
:101B8000551F629FF001729FBB27F00DB11D639F2F
:101B9000AA27F00DB11DAA1F649F6627B00DA11DD5
:101BA000661F829F2227B00DA11D621F739FB00D7B
:101BB000A11D621F839FA00D611D221F749F3327EB
:101BC000A00D611D231F849F600D211D822F762F84
:101BD0006A2F11249F5750409AF0F1F088234AF061
:101BE000EE0FFF1FBB1F661F771F881F91505040CD
:101BF000A9F79E3F510580F00C94210D0C94930D94
:101C00005F3FE4F3983ED4F3869577956795B79553
:101C1000F795E7959F5FC1F7FE2B880F911D96956D
:101C2000879597F908959B01AC010C94A60D97FB3D
:101C3000072E16F4009407D077FD09D00E942B0ED2
:101C400007FC05D03EF4909581959F4F08957095BF
:101C500061957F4F0895AA1BBB1B51E107C0AA1FC6
:101C6000BB1FA617B70710F0A61BB70B881F991F3D
:101C70005A95A9F780959095BC01CD010895EF92F2
:101C80000F931F93CF93DF93E80147FD16C034E015
:101C9000042E000C550B57FF03C051954195510977
:101CA000E32E022F242FAE010E94680ECE01DF9199
:101CB000CF911F910F91EF90089534E1E9CFFB018F
:101CC000DC018D91019080190110D9F3990B0895D1
:101CD0008F929F92AF92BF92CF92DF92EF92FF923C
:101CE0000F931F93CF93DF93CDB7DEB729970FB62E
:101CF000F894DEBF0FBECDBF6A01F22EB02E2BE3EB
:101D0000201708F45FC011E0100F012F27E0AE018B
:101D10004F5F5F4F0E94E90FBC013981832F8970AB
:101D2000813009F451C0E1FC51C09E2D9170E0FC5E
:101D300090E2AE2DA071832F887033FF5AC09111AD
:101D400047C083E08F1508F045C0F81AA11108C0FC
:101D5000F6018F2D20E281113FC0CF0CD11CF12C58
:101D6000992329F0D6019C93F60131966F01C601A3
:101D70000396E2FE34C02EE4D6012C9331E4119692
:101D80003C93119712962C93FC012F2D30E22111D8
:101D90002DC08F0D911DDC011C928EEF9FEF2996B7
:101DA0000FB6F894DEBF0FBECDBFDF91CF911F916C
:101DB0000F91FF90EF90DF90CF90BF90AF909F90EA
:101DC0008F9008951CE3A1CF9DE2B3CF9BE2B1CFEA
:101DD00084E0B8CFF12CBACF21938150BCCF2EE64E
:101DE000F601208331E631832283CECF3193215017
:101DF000CECF232F247032FF41C091112FC023E09A
:101E00002F1510F48F2D821BA11108C0F601282F69
:101E100030E2211125C0C80ED11C80E0992331F099
:101E2000F601908396012F5F3F4F690196012D5F68
:101E30003F4FE2FE18C099E4D6019C939EE41196B0
:101E40009C93119796E412969C93F901982F40E287
:101E5000911111C0280F311DD9019ECF24E0D0CFA0
:101E600031932150D6CF99E6F60190839EE6918377
:101E700096E69283EACF41939150EACF41E050E059
:101E8000911102C040E050E0161617060CF075C024
:101E9000FB013196E40FF51FBB2009F471C04B2DF7
:101EA00050E04F5F5F4F4E0F5F1FEF2DF0E04E177A
:101EB0005F0714F42F2D241B8E2D887141F4F60139
:101EC000822F40E281115FC0C20ED11C20E0992315
:101ED00029F0F6019083C60101966C01A11108C09A
:101EE000F601822F90E3811151C0C20ED11C20E077
:101EF000012F060F9A81A32FA071AA2E34FF03C0D1
:101F0000913309F4015010160CF043C0093008F069
:101F100008E0AB0177FF02C040E050E0FB013196E2
:101F2000E41BF50BA1E0B0E0AC0FBD1FEA0FFB1FF7
:101F30003EE24B01801A91080B2D10E0119501959E
:101F400011094F3FBFEF5B0721F4D6013C93119677
:101F50006D0164177507FCF084169506E4F4808122
:101F6000415051093196D60111967D014017510714
:101F7000A4F0D6018C936701E4CFE1E0F0E08ACFD2
:101F800040E050E090CF419381509CCF919381509D
:101F9000AACF01E0BECF80E3E3CF6417750731F429
:101FA000963390F4953311F4AA2071F0F6018083F2
:101FB000F701822F90E2811109C0F701E20FF11DB4
:101FC000108280E090E0EBCE81E3F0CF91938150DE
:101FD000F2CF283008F027E03327DA01990F311DBE
:101FE00087FD916000966105710539F432602E5FBE
:101FF0003D9330E32A95E1F708959F3F30F0803814
:102000007105610509F03C5F3C5F3D93913008F03C
:102010008068911DDF93CF931F930F93FF92EF92F0
:10202000192F987F9695E92F96959695E90FFF279A
:10203000EC5EFE4F99273327EE24FF24A701E7012A
:1020400005900894079428F4360FE71EF81E491FE0
:10205000511D660F771F881F991F0694A1F70590E1
:10206000079428F4E70EF81E491F561FC11D770F6D
:10207000881F991F661F0694A1F70590079428F4FE
:10208000F80E491F561FC71FD11D880F991F661FC5
:10209000771F0694A1F70590079420F4490F561F67
:1020A000C71FD81F990F661F771F881F0694A9F7AF
:1020B00084911095177041F0D695C795579547951F
:1020C000F794E7941A95C1F7EAEBF0E0689415905D
:1020D000159135916591959105907FE27395E11881
:1020E000F10A430B560BC90BD009C0F7E10CF11EE6
:1020F000431F561FC91FD01D7EF4703311F48A95FB
:10210000E6CFE894015030F0080F0AF400270217D8
:1021100008F4202F2395022F7A3328F079E37D935A
:102120002A95E9F710C07D932A9589F6069497952C
:102130006795379517951794E118F10A430B560BDD
:10214000C90BD00998F023957E9173957A3308F0E6
:1021500070E37C932013B8F77E9170617D9330F02B
:10216000839571E37D9370E32A95E1F71124EF9055
:10217000FF900F911F91CF91DF91992787FD909547
:062180000895F894FFCF62
:1021860032004C6566742042756D70657220486930
:10219600740D0A00526576657273696E670D0A00E2
:1021A6005475726E696E672052696768740D0A000D
:1021B600526573756D696E670D0A005269676874BA
:1021C6002042756D706572204869740D0A00547559
:1021D600726E696E67204C6566740D0A0044657000
:1021E60074683A20004F626A6563743A2000594564
:1021F60053004E4F0048656164696E673A20004E91
:102206006F742079657420696D706C656D656E7488
:102216006564005761746572204C6576656C3A207A
:10222600004D6F766520466F72776172640D0A0005
:102236004D6F766520446F776E0D0A005475726E89
:10224600204C6566740D0A004D6F76652055700D3D
:102256000A00555341525430202852533233322902
:1022660020496E697469616C697A65640D0A006556
:1022760065657E00537461626C65205A20536574EF
:102286000D0A006868687E00446976696E67207486
:102296006F20313020666565740D0A006666667EBD
:1022A600003232327E004D6F76696E673A20004604
:0E22B6006C757368696E672055415254310093
:00000001FF
