S00C00006D61696E2E7372656373
S11300000C94C3000C94E2000C94E2000C94E20003
S11300100C94E2000C94E2000C94E2000C94E200D4
S11300200C94E2000C94E2000C94E2000C94E200C4
S11300300C94E2000C94E2000C94E2000C94E200B4
S11300400C94E2000C94E2000C94E2000C94E200A4
S11300500C94E2000C94E2000C94E2000C94E20094
S11300600C94E2000C94E2000C94E2000C94E20084
S11300700C94E2000C94E2000C94E2000C94E20074
S11300800C94E2000C94E2000C94E20000407A101C
S1130090F35A00A0724E18090010A5D4E80000E835
S11300A07648170000E40B54020000CA9A3B000093
S11300B000E1F505000080969800000040420F0022
S11300C00000A08601000000102700000000E803E3
S11300D0000000006400000000000A0000000000AE
S11300E00100000000002C76D888DC674F0823DF6D
S11300F0C1DFAE59E1B1B796E5E3E453C63AE65140
S1130100997696E8E6C28426EB898C9B62ED407C66
S11301106FFCEFBC9C9F40F2BAA56FA5F490055A02
S11301202AF75C936B6CF9676DC11BFCE0E40D4727
S1130130FEF520E6B500D0ED902E0300943577054A
S11301400080841E080000204E0A000000C80C3302
S11301503333330F986E12831141EF8D2114893B91
S1130160E65516CFFEE6DB18D1844B381BF77C1D11
S1130170901DA4BBE424203284725E228100C9F164
S113018024ECA1E53D2711241FBECFEFD0E1DEBF53
S1130190CDBF11E0A0E0B1E0ECE4F4E100E00BBF7E
S11301A002C007900D92A234B107D9F721E0A2E46E
S11301B0B1E001C01D92A434B207E1F70E945703D5
S11301C00C94240A0C940000C49A8FE697E10197DA
S11301D0F1F700C00000C4989FEF23ED80E3915035
S11301E020408040E1F700C0000008958FB580688A
S11301F08FBD8FB580628FBD8FB588608FBD8FB581
S113020082608FBD8EB588618EBD8EB582608EBDD5
S11302108FB7F89421E030E03DBD2CBD78948FBFBA
S11302208FEF9FEF97BD86BD2FEF81EE94E02150B5
S113023080409040E1F700C0000008959C019FB702
S1130240F8943DBD2CBD78949FBF08954F925F9262
S11302506F927F928F929F92AF92BF92CF92DF92D2
S1130260EF92FF920F931F93CF93DF932B013C01E7
S113027049015A016701780120E030E0A9010E9498
S1130280E10587FD62C020E030E048EC52E4C301A0
S1130290B2010E94390718160CF061C000E11EE09B
S11302A020E030E0A901C501B4010E94E10587FD09
S11302B053C020E030E048EC52E4C501B4010E9490
S11302C0390718160CF05DC0C0E1DEE020E030E034
S11302D0A901C701B6010E94E10587FD39C020E0EC
S11302E030E048EC52E4C701B6010E943907181601
S11302F00CF059C0C12CD12C80E8E82E8FE3F82EE5
S113030066B577B580E090E00E948706A701960164
S11303100E943E070E9458061BBD0ABDD9BDC8BD38
S11303207093790060937800DF91CF911F910F91C2
S1130330FF90EF90DF90CF90BF90AF909F908F9001
S11303407F906F905F904F90089500E619E0A8CFDA
S1130350C12CD12C7601D4CFC0E6D9E0B7CF2BEA9B
S11303603AEA4AEA5DE3C301B2010E94E60520E0ED
S113037030E046E155E40E9475050E9458068B0161
S11303808FCF2BEA3AEA4AEA5DE3C501B4010E9441
S1130390E60520E030E046E155E40E9475050E9440
S11303A05806EB0193CF20E030E048EC52E4C7015B
S11303B0B6010E94E6056B017C01A2CF90939800E0
S11303C08093990088E180939A008CE080939D004B
S11303D02FEF81EE94E0215080409040E1F700C07F
S11303E00000089590919B0095FFFCCF80939C00A2
S11303F00895FC012081222351F0319690919B00B5
S113040095FFFCCF20939C0021912111F7CF0895F3
S113041080E29EE402C0019739F020919B0027FFFF
S1130420FACF80919C0008958FEF0895DC01FC01C0
S1130430AC014C595F4F82E320E23EE403C02150FB
S1130440310991F090919B0097FFF9CF90919C0016
S11304509A3099F09F3F49F09193E417F50761F7BB
S1130460AD59BF4F1C9208959FEF8C9311968C93B6
S1130470119712968C931297EFCF0895E2E6F0E06D
S11304808081886080838081877F80830895779BC3
S1130490FECF1FB8779BFECF81E08FB9779BFECF4D
S11304A08091620088608093620080916200877FFF
S11304B0809362008FE998E20197F1F700C0000091
S11304C008951FB8779BFECF80EC8FB9779BFECF42
S11304D08091620088608093620080916200877FCF
S11304E08093620085EC8A95F1F70000089591E00D
S11304F09FB9779BFECF8FB9779BFECF8091620027
S113050088608093620080916200877F809362009C
S113051085EC8A95F1F700000895CF93DF93FC01F1
S1130520DC0140E050E061E0779BFECF6FB9779B40
S1130530FECF8D918FB9779BFECF9091620098602A
S11305409093620090916200977F9093620085EC93
S11305508A95F1F700004F5F5F4FEF01099000208B
S1130560E9F79E012E1B3F0B225031092417350752
S1130570D8F6DF91CF910895E1E6F0E080818860BC
S1130580808388B388BB87B3876087BB80E58DB9D8
S113059081E08EB908958FE59AEE0197F1F700C0D6
S11305A0000023E030E090E31FB8779BFECF9FB9B3
S11305B0779BFECF80916200886080936200809177
S11305C06200877F8093620085EC8A95F1F70000D2
S11305D02150310949F71FB8779BFECF88E38FB9C3
S11305E0779BFECF80916200886080936200809147
S11305F06200877F8093620095EC9A95F1F7000082
S11306001FB8779BFECF88E08FB9779BFECF809190
S1130610620088608093620080916200877F80938B
S1130620620085EC8A95F1F700001FB8779BFECF36
S113063081E08FB9779BFECF8091620088608093C0
S1130640620080916200877F809362008FEF98E15F
S11306500197F1F700C000001FB8779BFECF86E03A
S11306608FB9779BFECF809162008860809362008F
S113067080916200877F8093620095EC9A95F1F7F0
S113068000001FB8779BFECF8EE08FB9779BFECF1B
S11306908091620088608093620080916200877F0D
S11306A08093620085EC8A95F1F700000895CF935A
S11306B0DF93CDB7DEB760970FB6F894DEBF0FBEF9
S11306C0CDBF8FEF87BB18BA11BA809161008860E3
S11306D08093610088B388BB87B3876087BB80E55C
S11306E08DB981E08EB90E94CB0280E091E00E9436
S11306F08D028099FECF0E944702C49A8FE697E14B
S11307000197F1F700C00000C4989FEF23ED80E348
S1130710915020408040E1F700C000000E94F600A4
S11307201092980087E68093990088E180939A005C
S11307308CE080939D009FEF21EE84E09150204057
S11307408040E1F700C000009FEF21EE84E091506B
S113075020408040E1F700C00000412C512C3201C0
S113076040ECD42E58EB252E5BE0352E68EEA62EF9
S113077060E8B62E70E1872E7EE0972EE0E6EE2E3E
S1130780E9E0FE2E0E944702879953C089E091E078
S11307900E948D0266B577B580E090E00E948706DE
S11307A020E030E0A9010E943E070E945806FBBCED
S11307B0EABCF9BCE8BC7093790060937800B0920D
S11307C07900A09278001FB8779BFECFDFB8779BA3
S11307D0FECF809162008860809362008091620005
S11307E0877F8093620095EC9A95F1F700008E0163
S11307F00F5F1F4F23E042E062EC76EB81E091E46F
S11308000E94AB070E948D0232EC432E36EB532E2E
S11308106624639431E4732E8FEF99EF20E08150C6
S113082090402040E1F700C000000E944702879BEF
S1130830ADCF869B3EC0859B75C0849BA1C0829B27
S1130840AEC0819B1DC18099DEC08AE390E2909383
S113085079008093780083E391E00E948D021FB8B1
S1130860779BFECFDFB8779BFECF809162008860D4
S11308708093620080916200877F8093620095EC90
S11308809A95F1F700008E010F5F1F4F23E042E0BD
S113089062EC76EB81E090E40E94AB070E948D024B
S11308A082EC482E86EB582E6624639480E4782EDE
S11308B0B3CF87E191E00E948D021FB8779BFECFF2
S11308C0DFB8779BFECF80916200886080936200DE
S11308D080916200877F8093620025EC2A95F1F76E
S11308E000008E010F5F1F4F23E042E0C301B201FD
S11308F00E94AB070E948D0266B577B580E090E058
S11309000E94870620E030E0A9010E943E070E9471
S11309105806FBBCEABC99BC88BC70937900609310
S113092078007ACF85E291E00E948D021FB8779B10
S1130930FECFDFB8779BFECF809162008860809302
S1130940620080916200877F8093620085EC8A95C3
S1130950F1F700008E010F5F1F4F23E042E0C30157
S1130960B2010E94AB070E948D0286B597B59BBC6D
S11309708ABC99BC88BC90937900809378004CCF52
S1130980B0927900A092780083E391E00E948D02F6
S11309901FB8779BFECFDFB8779BFECF1ACF8EEAC6
S11309A090E6909379008093780083E391E00E942D
S11309B08D021FB8779BFECFDFB8779BFECF809167
S11309C0620088608093620080916200877F8093D8
S11309D0620095EC9A95F1F700008E010F5F1F4FAE
S11309E023E042E063E272E982EC90E40E94AB0708
S11309F00E948D0223E2422E22E9522E22EC622E24
S1130A0020E4722E09CF83E391E00E948D021FB887
S1130A10779BFECFDFB8779BFECF80916200886022
S1130A208093620080916200877F8093620025EC4E
S1130A302A95F1F700008E010F5F1F4F23E042E07B
S1130A4060E070E0CB010E94AB070E948D0266B5A6
S1130A5077B580E090E00E94870620E030E0A901AD
S1130A600E943E070E9458063BBC2ABC39BC28BCE5
S1130A707093790060937800412C512C3201CCCED4
S1130A8084E790E4909379008093780083E391E085
S1130A900E948D021FB8779BFECFDFB8779BFECFF5
S1130AA08091620088608093620080916200877FF9
S1130AB08093620095EC9A95F1F700008E010F5F28
S1130AC01F4F23E042E062EC76EB81E890E40E9461
S1130AD0AB070E948D0292EC492E96EB592E91E8B9
S1130AE0692E90E4792E98CE5058BB27AA270E94ED
S1130AF08C050C94FF060E94F10638F00E94F8065B
S1130B0020F039F49F3F19F426F40C94EE060EF409
S1130B10E095E7FB0C94E806E92F0E94100758F3D0
S1130B20BA17620773078407950720F079F4A6F5CE
S1130B300C9432070EF4E0950B2EBA2FA02D0B0166
S1130B40B90190010C01CA01A0011124FF27591B0E
S1130B5099F0593F50F4503E68F11A16F040A22F14
S1130B60232F342F4427585FF3CF46953795279585
S1130B70A795F0405395C9F77EF41F16BA0B620B84
S1130B80730B840BBAF09150A1F0FF0FBB1F661FCB
S1130B90771F881FC2F70EC0BA0F621F731F841F0E
S1130BA048F4879577956795B795F7959E3F08F034
S1130BB0B0CF9395880F08F09927EE0F97958795F6
S1130BC008950E94C40608F481E008950E94FA057D
S1130BD00C94FF060E94F80658F00E94F10640F0BB
S1130BE029F45F3F29F00C94E80651110C94330763
S1130BF00C94EE060E94100768F39923B1F3552371
S1130C0091F3951B550BBB27AA276217730784071B
S1130C1038F09F5F5F4F220F331F441FAA1FA9F3B1
S1130C2035D00E2E3AF0E0E832D091505040E6959F
S1130C30001CCAF72BD0FE2F29D0660F771F881F00
S1130C40BB1F261737074807AB07B0E809F0BB0BF3
S1130C50802DBF01FF2793585F4F3AF09E3F510507
S1130C6078F00C94E8060C9433075F3FE4F3983E65
S1130C70D4F3869577956795B795F7959F5FC9F7F0
S1130C80880F911D9695879597F90895E1E0660F71
S1130C90771F881FBB1F621773078407BA0720F0EA
S1130CA0621B730B840BBA0BEE1F88F7E095089553
S1130CB00E94180788F09F5798F0B92F9927B751C9
S1130CC0B0F0E1F0660F771F881F991F1AF0BA95EC
S1130CD0C9F714C0B13091F00E943207B1E0089511
S1130CE00C943207672F782F8827B85F39F0B93F03
S1130CF0CCF3869577956795B395D9F73EF490959F
S1130D008095709561957F4F8F4F9F4F0895E8941C
S1130D1009C097FB3EF490958095709561957F4F3F
S1130D208F4F9F4F9923A9F0F92F96E9BB279395ED
S1130D30F695879577956795B795F111F8CFFAF4FD
S1130D40BB0F11F460FF1BC06F5F7F4F8F4F9F4F2E
S1130D5016C0882311F096E911C0772321F09EE88C
S1130D60872F762F05C0662371F096E8862F70E0F2
S1130D7060E02AF09A95660F771F881FDAF7880FCC
S1130D809695879597F90895990F0008550FAA0B22
S1130D90E0E8FEEF16161706E807F907C0F012168A
S1130DA01306E407F50798F0621B730B840B950B8D
S1130DB039F40A2661F0232B242B252B21F40895E2
S1130DC00A2609F4A140A6958FEF811D811D08957F
S1130DD097F99F6780E870E060E008959FEF80ECEA
S1130DE0089500240A94161617061806090608958D
S1130DF000240A9412161306140605060895092EF3
S1130E000394000C11F4882352F0BB0F40F4BF2B61
S1130E1011F460FF04C06F5F7F4F8F4F9F4F0895A1
S1130E2057FD9058440F551F59F05F3F71F0479597
S1130E30880F97FB991F61F09F3F79F0879508957C
S1130E40121613061406551FF2CF4695F1DF08C09B
S1130E50161617061806991FF1CF869571056105B8
S1130E6008940895E894BB2766277727CB0197F960
S1130E7008950E94C40608F48FEF08950E94510754
S1130E800C94FF060E94F10638F00E94F80620F048
S1130E90952311F00C94E8060C94EE0611240C949E
S1130EA033070E94100770F3959FC1F3950F50E02C
S1130EB0551F629FF001729FBB27F00DB11D639F08
S1130EC0AA27F00DB11DAA1F649F6627B00DA11DAE
S1130ED0661F829F2227B00DA11D621F739FB00D54
S1130EE0A11D621F839FA00D611D221F749F3327C4
S1130EF0A00D611D231F849F600D211D822F762F5D
S1130F006A2F11249F5750409AF0F1F088234AF039
S1130F10EE0FFF1FBB1F661F771F881F91505040A5
S1130F20A9F79E3F510580F00C94E8060C94330712
S1130F305F3FE4F3983ED4F3869577956795B7952C
S1130F40F795E7959F5FC1F7FE2B880F911D969546
S1130F50879597F90895EF920F931F93CF93DF939B
S1130F60E80147FD16C034E0042E000C550B57FF72
S1130F7003C0519541955109E32E022F242FAE0150
S1130F800E94CB07CE01DF91CF911F910F91EF907B
S1130F90089534E1E9CF8F929F92AF92BF92CF929E
S1130FA0DF92EF92FF920F931F93CF93DF93CDB70E
S1130FB0DEB729970FB6F894DEBF0FBECDBF6A0126
S1130FC0F22EB02E2BE3201708F45FC011E0100FAF
S1130FD0012F27E0AE014F5F5F4F0E944C09BC0117
S1130FE03981832F8970813009F451C0E1FC51C0EB
S1130FF09E2D9170E0FC90E2AE2DA071832F88703D
S113100033FF5AC0911147C083E08F1508F045C0E3
S1131010F81AA11108C0F6018F2D20E281113FC0FA
S1131020CF0CD11CF12C992329F0D6019C93F60105
S113103031966F01C6010396E2FE34C02EE4D60158
S11310402C9331E411963C93119712962C93FC0146
S11310502F2D30E221112DC08F0D911DDC011C922A
S11310608EEF9FEF29960FB6F894DEBF0FBECDBF6B
S1131070DF91CF911F910F91FF90EF90DF90CF9070
S1131080BF90AF909F908F9008951CE3A1CF9DE2F5
S1131090B3CF9BE2B1CF84E0B8CFF12CBACF219388
S11310A08150BCCF2EE6F601208331E631832283C2
S11310B0CECF31932150CECF232F247032FF41C0A5
S11310C091112FC023E02F1510F48F2D821BA11135
S11310D008C0F601282F30E2211125C0C80ED11C0A
S11310E080E0992331F0F601908396012F5F3F4F02
S11310F0690196012D5F3F4FE2FE18C099E4D601C5
S11311009C939EE411969C93119796E412969C935B
S1131110F901982F40E2911111C0280F311DD90116
S11311209ECF24E0D0CF31932150D6CF99E6F6015B
S113113090839EE6918396E69283EACF4193915001
S1131140EACF41E050E0911102C040E050E01616B1
S113115017060CF075C0FB013196E40FF51FBB2098
S113116009F471C04B2D50E04F5F5F4F4E0F5F1F6E
S1131170EF2DF0E04E175F0714F42F2D241B8E2D56
S1131180887141F4F601822F40E281115FC0C20EE2
S1131190D11C20E0992329F0F6019083C601019621
S11311A06C01A11108C0F601822F90E3811151C096
S11311B0C20ED11C20E0012F060F9A81A32FA0712B
S11311C0AA2E34FF03C0913309F4015010160CF019
S11311D043C0093008F008E0AB0177FF02C040E0EB
S11311E050E0FB013196E41BF50BA1E0B0E0AC0F3D
S11311F0BD1FEA0FFB1F3EE24B01801A91080B2D25
S113120010E01195019511094F3FBFEF5B0721F4E1
S1131210D6013C9311966D0164177507FCF0841692
S11312209506E4F48081415051093196D601119616
S11312307D0140175107A4F0D6018C936701E4CFD8
S1131240E1E0F0E08ACF40E050E090CF419381505C
S11312509CCF91938150AACF01E0BECF80E3E3CF2E
S11312606417750731F4963390F4953311F4AA207A
S113127071F0F6018083F701822F90E2811109C099
S1131280F701E20FF11D108280E090E0EBCE81E3E4
S1131290F0CF91938150F2CF283008F027E0332724
S11312A0DA01990F311D87FD916000966105710582
S11312B039F432602E5F3D9330E32A95E1F70895C7
S11312C09F3F30F080387105610509F03C5F3C5F59
S11312D03D93913008F08068911DDF93CF931F9365
S11312E00F93FF92EF92192F987F9695E92F969579
S11312F09695E90FFF27EA51FF4F99273327EE24EC
S1131300FF24A701E70105900894079428F4360FF9
S1131310E71EF81E491F511D660F771F881F991F6E
S11313200694A1F70590079428F4E70EF81E491FC8
S1131330561FC11D770F881F991F661F0694A1F7BA
S11313400590079428F4F80E491F561FC71FD11D96
S1131350880F991F661F771F0694A1F705900794BD
S113136020F4490F561FC71FD81F990F661F771FF8
S1131370881F0694A9F784911095177041F0D695AB
S1131380C79557954795F794E7941A95C1F7ECE8F4
S1131390F0E06894159015913591659195910590BB
S11313A07FE27395E118F10A430B560BC90BD00980
S11313B0C0F7E10CF11E431F561FC91FD01D7EF458
S11313C0703311F48A95E6CFE894015030F0080F99
S11313D00AF40027021708F4202F2395022F7A33EA
S11313E028F079E37D932A95E9F710C07D932A9537
S11313F089F6069497956795379517951794E1188C
S1131400F10A430B560BC90BD00998F023957E9132
S113141073957A3308F070E37C932013B8F77E91C8
S113142070617D9330F0839571E37D9370E32A9529
S1131430E1F71124EF90FF900F911F91CF91DF916D
S10F1440992787FD90950895F894FFCF3C
S113144C5072657373205331003132303075732010
S113145C313230307573003132303075732031389D
S113146C303075730031383030757320313830308A
S113147C75730031353030757320313530307573F8
S105148C00005A
S9030000FC
