S00C00006D61696E2E7372656373
S11300000C9446000C9465000C9465000C946500F7
S11300100C9465000C9465000C9465000C946500C8
S11300200C9465000C9465000C9465000C946500B8
S11300300C9465000C9465000C9465000C946500A8
S11300400C9465000C9465000C9465000C94650098
S11300500C9465000C9465000C9465000C94650088
S11300600C9465000C9465000C9465000C94650078
S11300700C9465000C9465000C9465000C94650068
S11300800C9465000C9465000C94650011241FBE4B
S1130090CFEFD0E1DEBFCDBF11E0A0E0B1E0EEECE8
S11300A0FBE000E00BBF02C007900D92A034B10743
S11300B0D9F721E0A0E4B1E001C01D92A234B20757
S11300C0E1F70E9487030C94E5050C940000C49AA0
S11300D08FE697E10197F1F700C00000C4989FEF05
S11300E023ED80E3915020408040E1F700C0000000
S11300F008958FB580688FBD8FB580628FBD8FB531
S113010088608FBD8FB582608FBD8EB588618EBDCE
S11301108EB582608EBD8FB7F89421E030E03DBD8E
S11301202CBD78948FBF8FEF9FEF97BD86BD2FEFC7
S113013081EE94E0215080409040E1F700C000003F
S113014008959C019FB7F8943DBD2CBD78949FBF42
S113015008958F929F92AF92BF92CF92DF92EF92C7
S1130160FF92CF93DF934B015C0169017A0120E098
S113017030E048EC52EC0E94CA0487FD31C020E014
S113018030E048EC52E4C501B4010E94730518162E
S11301906CF5C8EDDEE020E030E048EC52ECC7013D
S11301A0B6010E94CA0487FD1EC020E030E048EC7E
S11301B052E4C701B6010E94730518167CF568ED78
S11301C07EE0DBBDCABD79BD68BDDF91CF91FF90F4
S11301D0EF90DF90CF90BF90AF909F908F90089555
S11301E0C8E9D8E0D8CF68E978E0EBCF20E030E088
S11301F048EC52E4C501B4010E945E0420E030E002
S113020040E051E40E94780520E030E849E055E4FC
S11302100E945E040E94CF04EB01BDCF20E030E0D9
S113022048EC52E4C701B6010E945E0420E030E0CD
S113023040E051E40E94780520E030E849E055E4CC
S11302400E945E040E94CF04BCCF909398008093D8
S1130250990088E180939A008CE080939D00089532
S113026090919B0095FFFCCF80939C000895809112
S11302709B0087FFFCCF80919C000895AC01FC019A
S113028020E030E090919B0097FFFCCF90919C0080
S1130290943059F091932F5F3F4F2436310591F7F5
S11302A04D595F4FFA0110820895240F351FF9014B
S11302B010820895E2E6F0E0808188608083808186
S11302C0877F80830895779BFECF1FB8779BFECFEF
S11302D081E08FB9779BFECF809162008860809324
S11302E0620080916200877F809362008FE998E2C8
S11302F00197F1F700C0000008951FB8779BFECF67
S113030080EC8FB9779BFECF8091620088608093E8
S1130310620080916200877F8093620085EC8A95F9
S1130320F1F70000089591E09FB9779BFECF8FB954
S1130330779BFECF809162008860809362008091F9
S11303406200877F8093620085EC8A95F1F7000054
S11303500895CF93DF93FC01DC0140E050E061E0BD
S1130360779BFECF6FB9779BFECF8D918FB9779B2B
S1130370FECF909162009860909362009091620029
S1130380977F9093620085EC8A95F1F700004F5FA8
S11303905F4FEF0109900020E9F79E012E1B3F0BF0
S11303A02250310924173507D8F6DF91CF910895EB
S11303B0E1E6F0E080818860808388B388BB87B3FE
S11303C0876087BB80E58DB981E08EB908958FE59C
S11303D09AEE0197F1F700C0000023E030E090E3CB
S11303E01FB8779BFECF9FB9779BFECF80916200A9
S11303F088608093620080916200877F80936200AE
S113040085EC8A95F1F700002150310949F71FB8AE
S1130410779BFECF88E38FB9779BFECF80916200F4
S113042088608093620080916200877F809362007D
S113043095EC9A95F1F700001FB8779BFECF88E002
S11304408FB9779BFECF80916200886080936200B1
S113045080916200877F8093620085EC8A95F1F732
S113046000001FB8779BFECF81E08FB9779BFECF4A
S11304708091620088608093620080916200877F2F
S1130480809362008FEF98E10197F1F700C00000BC
S11304901FB8779BFECF86E08FB9779BFECF809104
S11304A0620088608093620080916200877F8093FD
S11304B0620095EC9A95F1F700001FB8779BFECF88
S11304C08EE08FB9779BFECF809162008860809325
S11304D0620080916200877F8093620085EC8A9538
S11304E0F1F70000089588E48093B800089510920D
S11304F0BC0094EA9093BC009091BC0097FFFCCFA1
S11305009091B900987F983011F081E0089580931C
S1130510BB0084E88093BC008091BC0087FFFCCFC3
S11305208091B900887F883111F0803471F780E0C0
S113053008958093BB0084E88093BC008091BC0044
S113054087FFFCCF9091B900987F81E0983209F43D
S113055080E0089584EC8093BC008091BC0087FF08
S1130560FCCF8091BB00089584E88093BC00809107
S1130570BC0087FFFCCF8091BB000895DF92EF920F
S1130580FF920F931F93CF93DF93D62E072F7A01F9
S11305900E947702182F811110C0CD2DD02FEC0EA0
S11305A0FD1ECE15DF0521F484E98093BC0006C04E
S11305B089910E9499028823A1F311E0812FDF9190
S11305C0CF911F910F91FF90EF90DF900895CF92FC
S11305D0DF92FF920F931F93CF93DF93EB018A0176
S11305E081600E947702F82E811120C06E010150B3
S11305F01109C6018C1B9D0B8017910788F0C00F51
S1130600D11F0E94B402888384E98093BC008F2D9B
S1130610DF91CF911F910F91FF90DF90CF900895BC
S11306200E94AA02F60181936F01E3CFFF24F394A1
S1130630EECFDF92EF92FF920F931F93CF93DF934E
S1130640C62FD42E052F79010E947702182F8823F4
S113065051F011E0812FDF91CF911F910F91FF9005
S1130660EF90DF9008958C2F0E949902CD2DD02F0A
S1130670EC0EFD1ECE15DF0521F484E98093BC0049
S1130680E9CF89910E9499028823A1F3E2CFCF9206
S1130690DF92FF920F931F93CF93DF93F82ED62E02
S11306A0EA0189010E947702882359F0FF24F39418
S11306B08F2DDF91CF911F910F91FF90DF90CF90FD
S11306C008958D2D0E9499028F2D81600E947702DA
S11306D0F82E8111EBCF6E0101501109C6018C1B5C
S11306E09D0B8017910748F0C00FD11F0E94B402E0
S11306F0888384E98093BC00DBCF0E94AA02F601C0
S113070081936F01EBCF84E98093BC000895CF936C
S1130710DF93CDB7DEB7C456D1090FB6F894DEBF68
S11307200FBECDBF8FEF87BB18BA11BA809161009D
S113073088608093610088B388BB87B3876087BB78
S113074080E58DB981E08EB90E94E70180E091E0F7
S11307500E94A9018099FECFC49A8FE697E1019780
S1130760F1F700C00000C4989FEFE3EDF0E391506F
S1130770E040F040E1F700C0000008EB1BE088E037
S1130780282E8CE0382E412C9CE0592E28EF622E26
S11307902BE0722E30E1832E37E2932E40EFA42E0D
S11307A04BE0B42E58EEC52E5BE0D52E68EEE62E57
S11307B06DEFF62E0E946301FE01319620E030E0D9
S11307C080919B0087FFFCCF80919C00843049F18D
S11307D081932F5F3F4F2436310591F7A5961FAEC5
S11307E0A597879B28C0869B33C0859B3EC0849B6E
S11307F049C0839B59C081994EC082E391E00E9415
S1130800A90188E49DE09BBD8ABD19BD08BD9FEF89
S1130810E9EFF0E09150E040F040E1F700C0000063
S1130820C9CF81E090E08C0F9D1F280F391FF9017B
S113083010828799D8CF89E091E00E94A901DBBC9E
S1130840CABC19BD08BDF0927900E0927800DFCFF0
S113085081E191E00E94A901BBBCAABC19BD08BDFD
S11308601092790010927800D2CF89E191E00E9431
S1130870A9017BBC6ABC19BD08BD90927900809225
S11308807800C5CF81E291E00E94A9015BBC4ABC1B
S113089019BD08BDBCCF8BE391E00E94A9011BBD2B
S11308A00ABD19BD08BDB3CF89E291E00E94A90138
S11308B03BBC2ABC19BD08BDAACF5058BB27AA27E8
S11308C00E9475040C9439050E942B0538F00E948F
S11308D0320520F039F49F3F19F426F40C942805CE
S11308E00EF4E095E7FB0C942205E92F0E944A05DB
S11308F058F3BA17620773078407950720F079F451
S1130900A6F50C946C050EF4E0950B2EBA2FA02DD1
S11309100B01B90190010C01CA01A0011124FF27A8
S1130920591B99F0593F50F4503E68F11A16F040A3
S1130930A22F232F342F4427585FF3CF46953795A2
S11309402795A795F0405395C9F77EF41F16BA0B67
S1130950620B730B840BBAF09150A1F0FF0FBB1F15
S1130960661F771F881FC2F70EC0BA0F621F731F5E
S1130970841F48F4879577956795B795F7959E3FBB
S113098008F0B0CF9395880F08F09927EE0F97954C
S1130990879508950E94FE0408F481E008950E945A
S11309A0520588F09F5798F0B92F9927B751B0F0A6
S11309B0E1F0660F771F881F991F1AF0BA95C9F7DF
S11309C014C0B13091F00E946C05B1E008950C940C
S11309D06C05672F782F8827B85F39F0B93FCCF3BF
S11309E0869577956795B395D9F73EF4909580955C
S11309F0709561957F4F8F4F9F4F0895990F000811
S1130A00550FAA0BE0E8FEEF16161706E807F907DC
S1130A10C0F012161306E407F50798F0621B730B77
S1130A20840B950B39F40A2661F0232B242B252BF8
S1130A3021F408950A2609F4A140A6958FEF811D9B
S1130A40811D089597F99F6780E870E060E008953C
S1130A509FEF80EC089500240A94161617061806D2
S1130A600906089500240A941216130614060506AE
S1130A700895092E0394000C11F4882352F0BB0F3F
S1130A8040F4BF2B11F460FF04C06F5F7F4F8F4FA2
S1130A909F4F089557FD9058440F551F59F05F3FDD
S1130AA071F04795880F97FB991F61F09F3F79F08C
S1130AB087950895121613061406551FF2CF46950E
S1130AC0F1DF08C0161617061806991FF1CF869590
S1130AD07105610508940895E894BB276627772774
S1130AE0CB0197F908950E94FE0408F48FEF08954E
S1130AF00E948B050C9439050E942B0538F00E9446
S1130B00320520F0952311F00C9422050C9428054D
S1130B1011240C946D050E944A0570F3959FC1F34E
S1130B20950F50E0551F629FF001729FBB27F00D97
S1130B30B11D639FAA27F00DB11DAA1F649F6627EC
S1130B40B00DA11D661F829F2227B00DA11D621F3B
S1130B50739FB00DA11D621F839FA00D611D221FF5
S1130B60749F3327A00D611D231F849F600D211DD9
S1130B70822F762F6A2F11249F5750409AF0F1F05C
S1130B8088234AF0EE0FFF1FBB1F661F771F881FC5
S1130B9091505040A9F79E3F510580F00C942205D6
S1130BA00C946D055F3FE4F3983ED4F386957795F6
S1130BB06795B795F795E7959F5FC1F7FE2B880F6B
S1110BC0911D9695879597F90895F894FFCFA7
S1130BCE5072657373205331004C6566742036255C
S1130BDE004C656674203725004C656674203825F4
S1130BEE004C656674203925004C656674203130DE
S1130BFE25004C656674203530250053746F7000E3
S9030000FC
