S00C00006D61696E2E7372656373
S11300000C9446000C9465000C9465000C946500F7
S11300100C9465000C9465000C9465000C946500C8
S11300200C9465000C9465000C9465000C946500B8
S11300300C9465000C9465000C9465000C946500A8
S11300400C9465000C9465000C9465000C94650098
S11300500C9465000C9465000C9465000C94650088
S11300600C9465000C9465000C9465000C94650078
S11300700C9465000C9465000C9465000C94650068
S11300800C9465000C9465000C94650011241FBE4B
S1130090CFEFD0E1DEBFCDBF11E0A0E0B1E0E4E3FB
S11300A0FEE000E00BBF02C007900D92AA30B1073A
S11300B0D9F721E0AAE0B1E001C01D92AC30B2074B
S11300C0E1F70E9436040C9418070C940000C49ABB
S11300D08FE697E10197F1F700C00000C4989FEF05
S11300E023ED80E3915020408040E1F700C0000000
S11300F008958FB580688FBD8FB580628FBD8FB531
S113010088608FBD8FB582608FBD8EB588618EBDCE
S11301108EB582608EBD8FB7F89421E030E03DBD8E
S11301202CBD78948FBF8FEF9FEF97BD86BD2FEFC7
S113013081EE94E0215080409040E1F700C000003F
S113014008959C019FB7F8943DBD2CBD78949FBF42
S11301500895909398008093990088E180939A0081
S11301608CE080939D002FEF81EE94E0215080403D
S11301709040E1F700C00000089590919B0095FF26
S1130180FCCF80939C000895FC012081222351F030
S1130190319690919B0095FFFCCF20939C00219178
S11301A02111F7CF089580E29EE402C0019739F04F
S11301B020919B0027FFFACF80919C0008958FEF38
S11301C00895DC01FC01AC014C595F4F82E320E24D
S11301D03EE403C02150310991F090919B0097FFB8
S11301E0F9CF90919C009E3799F09F3F49F09193ED
S11301F0E417F50761F7AD59BF4F1C9208959FEFBF
S11302008C9311968C93119712968C931297EFCF2F
S11302100895E2E6F0E08081886080838081877FB2
S113022080830895779BFECF1FB8779BFECF81E034
S11302308FB9779BFECF80916200886080936200C3
S113024080916200877F809362008FE998E2019732
S1130250F1F700C0000008951FB8779BFECF80EC33
S11302608FB9779BFECF8091620088608093620093
S113027080916200877F8093620085EC8A95F1F714
S11302800000089591E09FB9779BFECF8FB9779BCB
S1130290FECF80916200886080936200809162004A
S11302A0877F8093620085EC8A95F1F700000895BA
S11302B0CF93DF93FC01DC0140E050E061E0779BE9
S11302C0FECF6FB9779BFECF8D918FB9779BFECF11
S11302D09091620098609093620090916200977F81
S11302E09093620085EC8A95F1F700004F5F5F4FB1
S11302F0EF0109900020E9F79E012E1B3F0B2250CD
S1130300310924173507D8F6DF91CF9108954F921C
S11303105F926F927F928F929F92AF92BF92CF9291
S1130320DF92EF92FF920F931F93CF93DF93CDB79A
S1130330DEB764970FB6F894DEBF0FBECDBF698BEE
S11303407A8B8B8B9C8B29013A014701580120E061
S113035030E040EF51E40E94240587FDA2C020E074
S113036030E04CE852E469897A898B899C890E943F
S11303707C0618160CF09AC028EFC22E2CE0D22E60
S113038020E030E040EF51E4C301B2010E942405B3
S113039087FD84C020E030E04CE852E4C301B201A0
S11303A00E947C0618160CF0A0C008EF1CE020E0A8
S11303B030E040EF51E4C501B4010E94240587FDFB
S11303C065C020E030E04CE852E4C501B4010E946D
S11303D07C0618160CF07EC083E3882E982CA82C7B
S11303E08FE3B82E66B577B580E090E00E94CA0529
S11303F0A50194010E9481060E949B05DBBCCABC36
S113040019BD08BD70937900609378000E941201B1
S11304104AE0BE016F5F7F4FC6010E94EE060E9454
S113042058011FB8779BFECF80EC8FB9779BFECF26
S11304308091620088608093620080916200877F6F
S11304408093620085EC8A95F1F700004AE0BE01D2
S11304506F5F7F4FC8010E94EE060E9458016496A8
S11304600FB6F894DEBF0FBECDBFDF91CF911F91C1
S11304700F91FF90EF90DF90CF90BF90AF909F903F
S11304808F907F906F905F904F9008959AE9892E96
S113049099E9992EA92C9EE3B92EA4CF08E71AE076
S11304A086CF38E7C32E3AE0D32E6ACF20E030E07F
S11304B040E851E469897A898B899C890E94810684
S11304C020E030E849E055E40E94B8040E949B050E
S11304D06B0156CF20E030E048EC52E4C501B40192
S11304E00E9429054B015C017DCF20E030E040E80B
S11304F051E4C301B2010E94810620E030E849E0E2
S113050055E40E94B8040E949B058B0150CFE1E69C
S1130510F0E080818860808388B388BB87B387607C
S113052087BB80E58DB981E08EB908958FE59AEE99
S11305300197F1F700C0000023E030E090E31FB81A
S1130540779BFECF9FB9779BFECF80916200886036
S11305508093620080916200877F8093620085ECC3
S11305608A95F1F700002150310949F71FB8779BAC
S1130570FECF88E38FB9779BFECF809162008860BD
S11305808093620080916200877F8093620095EC83
S11305909A95F1F700001FB8779BFECF88E08FB9DA
S11305A0779BFECF80916200886080936200809187
S11305B06200877F8093620085EC8A95F1F70000E2
S11305C01FB8779BFECF81E08FB9779BFECF8091D8
S11305D0620088608093620080916200877F8093CC
S11305E062008FEF98E10197F1F700C000001FB897
S11305F0779BFECF86E08FB9779BFECF8091620018
S113060088608093620080916200877F809362009B
S113061095EC9A95F1F700001FB8779BFECF8EE01A
S11306208FB9779BFECF80916200886080936200CF
S113063080916200877F8093620085EC8A95F1F750
S11306400000089588E48093B80008951092BC00D7
S113065094EA9093BC009091BC0097FFFCCF9091DA
S1130660B900987F983011F081E008958093BB0021
S113067084E88093BC008091BC0087FFFCCF80910C
S1130680B900887F883111F0803471F780E00895D3
S11306908093BB0084E88093BC008091BC0087FFFA
S11306A0FCCF9091B900987F81E0983209F480E002
S11306B0089584EC8093BC008091BC0087FFFCCF3C
S11306C08091BB00089584E88093BC008091BC00B5
S11306D087FFFCCF8091BB000895DF92EF92FF92D9
S11306E00F931F93CF93DF93D62E072F7A010E9487
S11306F02603182F811110C0CD2DD02FEC0EFD1E16
S1130700CE15DF0521F484E98093BC0006C08991ED
S11307100E9448038823A1F311E0812FDF91CF9138
S11307201F910F91FF90EF90DF900895CF92DF9289
S1130730FF920F931F93CF93DF93EB018A018160A4
S11307400E942603F82E811120C06E010150110968
S1130750C6018C1B9D0B8017910788F0C00FD11F19
S11307600E946303888384E98093BC008F2DDF910A
S1130770CF911F910F91FF90DF90CF9008950E9429
S11307805903F60181936F01E3CFFF24F394EECF75
S1130790DF92EF92FF920F931F93CF93DF93C62FB5
S11307A0D42E052F79010E942603182F882351F097
S11307B011E0812FDF91CF911F910F91FF90EF9066
S11307C0DF9008958C2F0E944803CD2DD02FEC0E7E
S11307D0FD1ECE15DF0521F484E98093BC00E9CF2A
S11307E089910E9448038823A1F3E2CFCF92DF923C
S11307F0FF920F931F93CF93DF93F82ED62EEA0127
S113080089010E942603882359F0FF24F3948F2D35
S1130810DF91CF911F910F91FF90DF90CF900895BA
S11308208D2D0E9448038F2D81600E942603F82E8F
S11308308111EBCF6E0101501109C6018C1B9D0B78
S11308408017910748F0C00FD11F0E94630388836B
S113085084E98093BC00DBCF0E945903F6018193A5
S11308606F01EBCF84E98093BC000895CF93DF93AD
S113087000D000D0CDB7DEB78FEF87BB18BA11BA5E
S113088080E289838A838B838C8380916100886072
S11308908093610088B388BB87B3876087BB80E59A
S11308A08DB981E08EB90E94960280E091E00E94A9
S11308B058018099FECF0E941201C49A8FE697E1F5
S11308C00197F1F700C00000C4989FEF23ED80E387
S11308D0915020408040E1F700C000000E94790060
S11308E01092980087E68093990088E180939A009B
S11308F08CE080939D009FEF21EE84E09150204096
S11309008040E1F700C000009FEF21EE84E09150A9
S113091020408040E1F700C00000CE0101960E9413
S1130920E1006B8170E080E090E00E94CA056B01F9
S11309307C016A8170E080E090E00E94CA054B016E
S11309405C01698170E080E090E00E94CA05870143
S11309507601A50194010E9487019FEF29EF80E0B1
S1130960915020408040E1F700C00000D6CF50589D
S1130970BB27AA270E94CF040C9442060E94340687
S113098038F00E943B0620F039F49F3F19F426F416
S11309900C9431060EF4E095E7FB0C942B06E92F3A
S11309A00E94530658F3BA17620773078407950722
S11309B020F079F4A6F50C9475060EF4E0950B2E50
S11309C0BA2FA02D0B01B90190010C01CA01A0019D
S11309D01124FF27591B99F0593F50F4503E68F1F8
S11309E01A16F040A22F232F342F4427585FF3CF39
S11309F0469537952795A795F0405395C9F77EF40A
S1130A001F16BA0B620B730B840BBAF09150A1F052
S1130A10FF0FBB1F661F771F881FC2F70EC0BA0FD8
S1130A20621F731F841F48F4879577956795B79560
S1130A30F7959E3F08F0B0CF9395880F08F099275B
S1130A40EE0F9795879508950E94070608F481E0B4
S1130A5008950E943D050C9442060E943B0658F0FE
S1130A600E94340640F029F45F3F29F00C942B06D1
S1130A7051110C9476060C9431060E94530668F3C7
S1130A809923B1F3552391F3951B550BBB27AA2743
S1130A9062177307840738F09F5F5F4F220F331F7D
S1130AA0441FAA1FA9F335D00E2E3AF0E0E832D045
S1130AB091505040E695001CCAF72BD0FE2F29D048
S1130AC0660F771F881FBB1F261737074807AB071A
S1130AD0B0E809F0BB0B802DBF01FF2793585F4F8F
S1130AE03AF09E3F510578F00C942B060C94760650
S1130AF05F3FE4F3983ED4F3869577956795B79571
S1130B00F7959F5FC9F7880F911D9695879597F97B
S1130B100895E1E0660F771F881FBB1F62177307F4
S1130B208407BA0720F0621B730B840BBA0BEE1F09
S1130B3088F7E09508950E945B0688F09F5798F027
S1130B40B92F9927B751B0F0E1F0660F771F881FCE
S1130B50991F1AF0BA95C9F714C0B13091F00E94E8
S1130B607506B1E008950C947506672F782F8827D1
S1130B70B85F39F0B93FCCF3869577956795B3950F
S1130B80D9F73EF490958095709561957F4F8F4F7E
S1130B909F4F0895E89409C097FB3EF49095809583
S1130BA0709561957F4F8F4F9F4F9923A9F0F92F2F
S1130BB096E9BB279395F695879577956795B795AD
S1130BC0F111F8CFFAF4BB0F11F460FF1BC06F5F93
S1130BD07F4F8F4F9F4F16C0882311F096E911C0A5
S1130BE0772321F09EE8872F762F05C0662371F0C6
S1130BF096E8862F70E060E02AF09A95660F771FDA
S1130C00881FDAF7880F9695879597F90895990FB5
S1130C100008550FAA0BE0E8FEEF16161706E807C2
S1130C20F907C0F012161306E407F50798F0621BE3
S1130C30730B840B950B39F40A2661F0232B242BB8
S1130C40252B21F408950A2609F4A140A6958FEFD7
S1130C50811D811D089597F99F6780E870E060E029
S1130C6008959FEF80EC089500240A941616170641
S1130C7018060906089500240A9412161306140689
S1130C8005060895092E0394000C11F4882352F0EC
S1130C90BB0F40F4BF2B11F460FF04C06F5F7F4FA4
S1130CA08F4F9F4F089557FD9058440F551F59F08B
S1130CB05F3F71F04795880F97FB991F61F09F3F45
S1130CC079F087950895121613061406551FF2CF6E
S1130CD04695F1DF08C0161617061806991FF1CFBE
S1130CE086957105610508940895E894BB276627E5
S1130CF07727CB0197F908950E94070608F48FEF30
S1130D0008950E9494060C9442060E94340638F01A
S1130D100E943B0620F0952311F00C942B060C94B2
S1130D20310611240C9476060E94530670F3959FA5
S1130D30C1F3950F50E0551F629FF001729FBB27CE
S1130D40F00DB11D639FAA27F00DB11DAA1F649F6A
S1130D506627B00DA11D661F829F2227B00DA11D1D
S1130D60621F739FB00DA11D621F839FA00D611DA3
S1130D70221F749F3327A00D611D231F849F600DC4
S1130D80211D822F762F6A2F11249F5750409AF0ED
S1130D90F1F088234AF0EE0FFF1FBB1F661F771F79
S1130DA0881F91505040A9F79E3F510580F00C9444
S1130DB02B060C9476065F3FE4F3983ED4F38695B5
S1130DC077956795B795F795E7959F5FC1F7FE2BE4
S1130DD0880F911D9695879597F90895BB27FB0178
S1130DE05527AA27880F991FAA1FA41710F0A41B20
S1130DF083955051B9F7A05DAA3308F0A95DA1937A
S1130E00009779F7B111B1931192CB010C940807B3
S1130E10DC01FC01672F71917723E1F7329704C05D
S1130E207C916D9370836291AE17BF07C8F30895E8
S1070E30F894FFCF60
S10D0E3450726573732053310000FF
S9030000FC
