S00C00006D61696E2E7372656373
S11300000C94C3000C94E2000C94E2000C94E20003
S11300100C94E2000C94E2000C94E2000C94E200D4
S11300200C94E2000C94E2000C94E2000C94E200C4
S11300300C94E2000C94E2000C94E2000C94E200B4
S11300400C94E2000C94E2000C94E2000C94E200A4
S11300500C94E2000C94E2000C94E2000C94E20094
S11300600C94E2000C94E2000C94E2000C94E20084
S11300700C94E2000C94E2000C94E2000C94E20074
S11300800C94E2000C94E2000C94E20000407A101C
S1130090F35A00A0724E18090010A5D4E80000E835
S11300A07648170000E40B54020000CA9A3B000093
S11300B000E1F505000080969800000040420F0022
S11300C00000A08601000000102700000000E803E3
S11300D0000000006400000000000A0000000000AE
S11300E00100000000002C76D888DC674F0823DF6D
S11300F0C1DFAE59E1B1B796E5E3E453C63AE65140
S1130100997696E8E6C28426EB898C9B62ED407C66
S11301106FFCEFBC9C9F40F2BAA56FA5F490055A02
S11301202AF75C936B6CF9676DC11BFCE0E40D4727
S1130130FEF520E6B500D0ED902E0300943577054A
S11301400080841E080000204E0A000000C80C3302
S11301503333330F986E12831141EF8D2114893B91
S1130160E65516CFFEE6DB18D1844B381BF77C1D11
S1130170901DA4BBE424203284725E228100C9F164
S113018024ECA1E53D2711241FBECFEFD0E1DEBF53
S1130190CDBF11E0A0E0B1E0E0E0F5E100E00BBF8D
S11301A002C007900D92A032B107D9F721E0A0E276
S11301B0B1E001C01D92A232B207E1F70E949F0490
S11301C00C947E0A0C94000010926100109262005C
S11301D090EC97B997B1892B87B980E886B986B135
S11301E0876086B9339A369A0895FC010897FCF41F
S11301F040E050E061E070E097B19B01042E01C043
S1130200220F0A94EAF72095292327B94F5F5F4FFD
S11302104530510589F797B1892F8E2B87B9369AC6
S1130220349BFECF84B125B190E0922B08958FEFDB
S11302309FEF08958830910520F060E070E0CB01D5
S113024008950E94F500BC01990F880B990B0E9438
S1130250AE062AE037ED43E25BE30E9463070895AC
S113026080E090E00E94F500BC01990F880B990B87
S11302700E94AE062AE037ED43E25BE30E94630787
S113028020E030E040E05FE30E9499052AE939E983
S113029049E95FE30E94630720E030E040E85EE361
S11302A00E946307089580E090E00E94F500BC017D
S11302B0990F880B990B0E94AE062AE037ED43E2B2
S11302C05BE30E94630720E030E040E05FE30E94CC
S11302D099052AE939E949E95FE30E94630720E0C7
S11302E030E040E85EE30E94630729EF37E447EA21
S11302F053E40E9463070895C49A8FE697E1019737
S1130300F1F700C00000C4989FEF23ED80E3915003
S113031020408040E1F700C0000008958FB5806858
S11303208FBD8FB580628FBD8FB588608FBD8FB54F
S113033082608FBD8EB588618EBD8EB582608EBDA4
S11303408FB7F89421E030E03DBD2CBD78948FBF89
S11303508FEF9FEF97BD86BD2FEF81EE94E0215084
S113036080409040E1F700C0000008959C019FB7D1
S1130370F8943DBD2CBD78949FBF08959093980048
S11303808093990088E180939A0086E080939D0091
S11303902FEF81EE94E0215080409040E1F700C0BF
S11303A00000089590919B0095FFFCCF80939C00E2
S11303B00895FC012081222351F0319690919B00F5
S11303C095FFFCCF20939C0021912111F7CF089534
S11303D080E593EC05C020EA2A95F1F7019739F0FE
S11303E020919B0027FFF7CF80919C0008958FEF09
S11303F00895DC01FC0140E050E020E533EC06C048
S113040080EA8A95F1F72150310999F090919B0087
S113041097FFF6CF90919C009E37B1F09F3F49F033
S113042091934F5F5F4F4031510539F71F961C92EE
S1130430089582E38C9311968C93119712968C9362
S1130440129713961C920895A40FB51F1C92089539
S11304509093900089B988E18AB986E080939500E9
S11304602FEF81EE94E0215080409040E1F700C0EE
S1130470000008955D9BFECF8CB90895FC01908126
S1130480992339F031965D9BFECF9CB991919111DE
S1130490FACF089580E593EC06C025E32A95F1F799
S11304A00000019721F05F9BF8CF8CB108958FEF86
S11304B00895DC01FC0140E050E020E533EC07C086
S11304C085E38A95F1F700002150310981F05F9BA3
S11304D0F7CF9CB19E37B1F09F3F49F091934F5FA6
S11304E05F4F4031510549F71F961C92089582E3EE
S11304F08C9311968C93119712968C931297139652
S11305001C920895A40FB51F1C920895E2E6F0E032
S11305108081886080838081877F80830895779B32
S1130520FECF1FB8779BFECF81E08FB9779BFECFBC
S11305308091620088608093620080916200877F6E
S1130540809362008FE998E20197F1F700C0000000
S113055008951FB8779BFECF80EC8FB9779BFECFB1
S11305608091620088608093620080916200877F3E
S11305708093620085EC8A95F1F70000089591E07C
S11305809FB9779BFECF8FB9779BFECF8091620096
S113059088608093620080916200877F809362000C
S11305A085EC8A95F1F700000895CF93DF93FC0161
S11305B0DC0140E050E061E0779BFECF6FB9779BB0
S11305C0FECF8D918FB9779BFECF9091620098609A
S11305D09093620090916200977F9093620085EC03
S11305E08A95F1F700004F5F5F4FEF0109900020FB
S11305F0E9F79E012E1B3F0B2250310924173507C2
S1130600D8F6DF91CF9108954F925F926F927F92C7
S11306108F929F92AF92BF92CF92DF92EF92FF920E
S11306200F931F93CF93DF93CDB7DEB764970FB6C5
S1130630F894DEBF0FBECDBF698B7A8B8B8B9C8BFE
S113064029013A014701580120E030E040EF51E42C
S11306500E94060687FDA2C020E030E04CE852E488
S113066069897A898B899C890E945E0718160CF027
S11306709AC028EFC22E2CE0D22E20E030E040EFCA
S113068051E4C301B2010E94060687FD84C020E044
S113069030E04CE852E4C301B2010E945E07181630
S11306A00CF0A0C008EF1CE020E030E040EF51E483
S11306B0C501B4010E94060687FD65C020E030E054
S11306C04CE852E4C501B4010E945E0718160CF010
S11306D07EC083E3882E982CA82C8FE3B82E66B5B1
S11306E077B580E090E00E94AC06A50194010E94D9
S11306F063070E947D06DBBCCABC19BD08BD7093AC
S11307007900609378000E948F024AE0BE016F5F17
S11307107F4FC6010E94FB070E94D5021FB8779B3A
S1130720FECF80EC8FB9779BFECF8091620088600A
S11307308093620080916200877F8093620085ECE1
S11307408A95F1F700004AE0BE016F5F7F4FC80150
S11307500E94FB070E94D50264960FB6F894DEBF90
S11307600FBECDBFDF91CF911F910F91FF90EF90FE
S1130770DF90CF90BF90AF909F908F907F906F90BD
S11307805F904F9008959AE9892E99E9992EA92CA2
S11307909EE3B92EA4CF08E71AE086CF38E7C32E2C
S11307A03AE0D32E6ACF20E030E040E851E4698992
S11307B07A898B899C890E94630720E030E849E0AC
S11307C055E40E949A050E947D066B0156CF20E0F5
S11307D030E048EC52E4C501B4010E940B064B0121
S11307E05C017DCF20E030E040E851E4C301B20178
S11307F00E94630720E030E849E055E40E949A052E
S11308000E947D068B0150CFE1E6F0E08081886094
S1130810808388B388BB87B3876087BB80E58DB945
S113082081E08EB908958FE59AEE0197F1F700C043
S1130830000023E030E090E31FB8779BFECF9FB920
S1130840779BFECF809162008860809362008091E4
S11308506200877F8093620085EC8A95F1F700003F
S11308602150310949F71FB8779BFECF88E38FB930
S1130870779BFECF809162008860809362008091B4
S11308806200877F8093620095EC9A95F1F70000EF
S11308901FB8779BFECF88E08FB9779BFECF8091FE
S11308A0620088608093620080916200877F8093F9
S11308B0620085EC8A95F1F700001FB8779BFECFA4
S11308C081E08FB9779BFECF80916200886080932E
S11308D0620080916200877F809362008FEF98E1CD
S11308E00197F1F700C000001FB8779BFECF86E0A8
S11308F08FB9779BFECF80916200886080936200FD
S113090080916200877F8093620095EC9A95F1F75D
S113091000001FB8779BFECF8EE08FB9779BFECF88
S11309208091620088608093620080916200877F7A
S11309308093620085EC8A95F1F700000895CF93C7
S1130940DF93CDB7DEB760970FB6F894DEBF0FBE66
S1130950CDBF8FEF87BB18BA84E081BBFE0131960F
S11309609E012F5E3F4F80E28193E217F307E1F788
S11309708091610088608093610088B388BB87B3ED
S1130980876087BB80E58DB981E08EB90E9413042E
S113099080E091E00E94D5028099FECF0E948F02F0
S11309A0109261001092620080EC87B987B187B918
S11309B080E886B986B1876086B9339A369A1092F0
S11309C0980027E62093990098E190939A0086E096
S11309D080939D003FEF41EE54E031504040504041
S11309E0E1F700C000001092900029B99AB98093F1
S11309F095008FEF91EE24E0815090402040E1F784
S1130A0000C000003FEF41EE54E031504040504000
S1130A10E1F700C0000080ECF82E80E090E00E9436
S1130A20F500BC01990F880B990B0E94AE062AE0D1
S1130A3037ED43E25BE30E94630720E030E040E0EF
S1130A405FE30E9499052AE939E949E95FE30E94D5
S1130A50630720E030E040E85EE30E94630729EF8B
S1130A6037E447EA53E40E9463078E010F5F1F4F88
S1130A7028E042E00E94D0070E948F02C8010E9431
S1130A80D502EAE0F1E086E45D9BFECF8CB981916A
S1130A908111FACF8981882341F0FE0132965D9B52
S1130AA0FECF8CB981918111FACF1FB8779BFECF0D
S1130AB0FFB8779BFECF80916200886080936200CC
S1130AC080916200877F8093620085EC8A95F1F7BC
S1130AD0000080E090E00E94F5004AE0BE016F5FF4
S1130AE07F4F0E94F007CE0101960E94D502E1E1FA
S1130AF0F1E080E25D9BFECF8CB981918111FACF48
S1130B008981882341F0FE0132965D9BFECF8CB92A
S1130B1081918111FACF5D9BFECF8AE08CB99FEF62
S1130B2021EE34E0915020403040E1F700C0000055
S1130B3074CF5058BB27AA270E94B1050C942407F0
S1130B400E94160738F00E941D0720F039F49F3FD9
S1130B5019F426F40C9413070EF4E095E7FB0C94B7
S1130B600D07E92F0E94350758F3BA176207730778
S1130B708407950720F079F4A6F50C9457070EF432
S1130B80E0950B2EBA2FA02D0B01B90190010C0199
S1130B90CA01A0011124FF27591B99F0593F50F4B1
S1130BA0503E68F11A16F040A22F232F342F442709
S1130BB0585FF3CF469537952795A795F040539501
S1130BC0C9F77EF41F16BA0B620B730B840BBAF0D1
S1130BD09150A1F0FF0FBB1F661F771F881FC2F73C
S1130BE00EC0BA0F621F731F841F48F48795779550
S1130BF06795B795F7959E3F08F0B0CF9395880F0A
S1130C0008F09927EE0F9795879508950E94E906B5
S1130C1008F481E008950E941F060C9424070E94A2
S1130C201D0758F00E94160740F029F45F3F29F091
S1130C300C940D0751110C9458070C9413070E943F
S1130C40350768F39923B1F3552391F3951B550B9D
S1130C50BB27AA2762177307840738F09F5F5F4F8B
S1130C60220F331F441FAA1FA9F335D00E2E3AF0CA
S1130C70E0E832D091505040E695001CCAF72BD0E2
S1130C80FE2F29D0660F771F881FBB1F2617370733
S1130C904807AB07B0E809F0BB0B802DBF01FF2765
S1130CA093585F4F3AF09E3F510578F00C940D072E
S1130CB00C9458075F3FE4F3983ED4F386957795F8
S1130CC06795B795F7959F5FC9F7880F911D96951E
S1130CD0879597F90895E1E0660F771F881FBB1F7A
S1130CE0621773078407BA0720F0621B730B840B27
S1130CF0BA0BEE1F88F7E09508950E943D0788F02F
S1130D009F5798F0B92F9927B751B0F0E1F0660FCB
S1130D10771F881F991F1AF0BA95C9F714C0B1300C
S1130D2091F00E945707B1E008950C945707672F7C
S1130D30782F8827B85F39F0B93FCCF3869577953B
S1130D406795B395D9F73EF4909580957095619524
S1130D507F4F8F4F9F4F0895E89409C097FB3EF44F
S1130D6090958095709561957F4F8F4F9F4F9923F4
S1130D70A9F0F92F96E9BB279395F6958795779572
S1130D806795B795F111F8CFFAF4BB0F11F460FF32
S1130D901BC06F5F7F4F8F4F9F4F16C0882311F08A
S1130DA096E911C0772321F09EE8872F762F05C09E
S1130DB0662371F096E8862F70E060E02AF09A9539
S1130DC0660F771F881FDAF7880F9695879597F92E
S1130DD00895990F0008550FAA0BE0E8FEEF1616C8
S1130DE01706E807F907C0F012161306E407F5071B
S1130DF098F0621B730B840B950B39F40A2661F08F
S1130E00232B242B252B21F408950A2609F4A14031
S1130E10A6958FEF811D811D089597F99F6780E83E
S1130E2070E060E008959FEF80EC089500240A9438
S1130E301616170618060906089500240A941216B1
S1130E401306140605060895092E0394000C11F4E4
S1130E50882352F0BB0F40F4BF2B11F460FF04C091
S1130E606F5F7F4F8F4F9F4F089557FD9058440FEA
S1130E70551F59F05F3F71F04795880F97FB991FF5
S1130E8061F09F3F79F087950895121613061406B2
S1130E90551FF2CF4695F1DF08C01616170618063F
S1130EA0991FF1CF86957105610508940895E8941A
S1130EB0BB2766277727CB0197F908950E94E90697
S1130EC008F48FEF08950E9476070C9424070E947B
S1130ED0160738F00E941D0720F0952311F00C949A
S1130EE00D070C94130711240C9458070E9435071E
S1130EF070F3959FC1F3950F50E0551F629FF00169
S1130F00729FBB27F00DB11D639FAA27F00DB11D81
S1130F10AA1F649F6627B00DA11D661F829F22270A
S1130F20B00DA11D621F739FB00DA11D621F839F91
S1130F30A00D611D221F749F3327A00D611D231F67
S1130F40849F600D211D822F762F6A2F11249F57B5
S1130F5050409AF0F1F088234AF0EE0FFF1FBB1FB8
S1130F60661F771F881F91505040A9F79E3F510577
S1130F7080F00C940D070C9458075F3FE4F3983EFF
S1130F80D4F3869577956795B795F795E7959F5F21
S1130F90C1F7FE2B880F911D9695879597F90895B3
S1130FA0EF920F931F93CF93DF93E80147FD16C091
S1130FB034E0042E000C550B57FF03C051954195A6
S1130FC05109E32E022F242FAE010E941508CE01F1
S1130FD0DF91CF911F910F91EF90089534E1E9CF04
S1130FE0BB274A3031F4992322F4BDE290958195D0
S1130FF09F4F0C94FC07BB27FB015527AA27880F9A
S1131000991FAA1FA41710F0A41B83955051B9F778
S1131010A05DAA3308F0A95DA193009779F7B111F7
S1131020B1931192CB010C946E0A8F929F92AF925E
S1131030BF92CF92DF92EF92FF920F931F93CF93C1
S1131040DF93CDB7DEB729970FB6F894DEBF0FBE96
S1131050CDBF6A01F22EB02E2BE3201708F45FC037
S113106011E0100F012F27E0AE014F5F5F4F0E9488
S11310709609BC013981832F8970813009F451C0EC
S1131080E1FC51C09E2D9170E0FC90E2AE2DA07168
S1131090832F887033FF5AC0911147C083E08F15A6
S11310A008F045C0F81AA11108C0F6018F2D20E2FE
S11310B081113FC0CF0CD11CF12C992329F0D6010A
S11310C09C93F60131966F01C6010396E2FE34C08B
S11310D02EE4D6012C9331E411963C931197129689
S11310E02C93FC012F2D30E221112DC08F0D911D69
S11310F0DC011C928EEF9FEF29960FB6F894DEBFA9
S11311000FBECDBFDF91CF911F910F91FF90EF9054
S1131110DF90CF90BF90AF909F908F9008951CE385
S1131120A1CF9DE2B3CF9BE2B1CF84E0B8CFF12C45
S1131130BACF21938150BCCF2EE6F601208331E64D
S113114031832283CECF31932150CECF232F2470ED
S113115032FF41C091112FC023E02F1510F48F2DC1
S1131160821BA11108C0F601282F30E2211125C0ED
S1131170C80ED11C80E0992331F0F60190839601CA
S11311802F5F3F4F690196012D5F3F4FE2FE18C06C
S113119099E4D6019C939EE411969C93119796E44E
S11311A012969C93F901982F40E2911111C0280FD7
S11311B0311DD9019ECF24E0D0CF31932150D6CF19
S11311C099E6F60190839EE6918396E69283EACFB0
S11311D041939150EACF41E050E0911102C040E0C8
S11311E050E0161617060CF075C0FB013196E40F9B
S11311F0F51FBB2009F471C04B2D50E04F5F5F4FCA
S11312004E0F5F1FEF2DF0E04E175F0714F42F2DE4
S1131210241B8E2D887141F4F601822F40E2811146
S11312205FC0C20ED11C20E0992329F0F6019083FF
S1131230C60101966C01A11108C0F601822F90E34A
S1131240811151C0C20ED11C20E0012F060F9A81DA
S1131250A32FA071AA2E34FF03C0913309F40150C7
S113126010160CF043C0093008F008E0AB0177FF1A
S113127002C040E050E0FB013196E41BF50BA1E015
S1131280B0E0AC0FBD1FEA0FFB1F3EE24B01801A1A
S113129091080B2D10E01195019511094F3FBFEFF7
S11312A05B0721F4D6013C9311966D016417750711
S11312B0FCF084169506E4F480814150510931967E
S11312C0D60111967D0140175107A4F0D6018C93E5
S11312D06701E4CFE1E0F0E08ACF40E050E090CF56
S11312E0419381509CCF91938150AACF01E0BECF0E
S11312F080E3E3CF6417750731F4963390F49533A4
S113130011F4AA2071F0F6018083F701822F90E294
S1131310811109C0F701E20FF11D108280E090E015
S1131320EBCE81E3F0CF91938150F2CF283008F0D7
S113133027E03327DA01990F311D87FD916000966C
S11313406105710539F432602E5F3D9330E32A95CF
S1131350E1F708959F3F30F080387105610509F089
S11313603C5F3C5F3D93913008F08068911DDF93B2
S1131370CF931F930F93FF92EF92192F987F969517
S1131380E92F96959695E90FFF27EA51FF4F992784
S11313903327EE24FF24A701E7010590089407945E
S11313A028F4360FE71EF81E491F511D660F771FDC
S11313B0881F991F0694A1F70590079428F4E70E57
S11313C0F81E491F561FC11D770F881F991F661FDE
S11313D00694A1F70590079428F4F80E491F561FA8
S11313E0C71FD11D880F991F661F771F0694A1F789
S11313F00590079420F4490F561FC71FD81F990F53
S1131400661F771F881F0694A9F78491109517709B
S113141041F0D695C79557954795F794E7941A9553
S1131420C1F7ECE8F0E06894159015913591659159
S1131430959105907FE27395E118F10A430B560BE1
S1131440C90BD009C0F7E10CF11E431F561FC91F79
S1131450D01D7EF4703311F48A95E6CFE8940150E0
S113146030F0080F0AF40027021708F4202F239500
S1131470022F7A3328F079E37D932A95E9F710C097
S11314807D932A9589F606949795679537951795D0
S11314901794E118F10A430B560BC90BD00998F0C5
S11314A023957E9173957A3308F070E37C9320132F
S11314B0B8F77E9170617D9330F0839571E37D93ED
S11314C070E32A95E1F71124EF90FF900F911F919B
S11314D0CF91DF91992787FD90950895DC01FC0158
S11314E0672F71917723E1F7329704C07C916D9354
S11314F070836291AE17BF07C8F30895F894FFCFC5
S1131500507265737320533100466565743A200048
S1131510202020204144432056616C75653A200008
S9030000FC
