:100000000C9446000C9465000C9465000C946500FB
:100010000C9465000C9465000C9465000C946500CC
:100020000C9465000C9465000C9465000C946500BC
:100030000C9465000C9465000C9465000C946500AC
:100040000C9465000C9465000C9465000C9465009C
:100050000C9465000C9465000C9465000C9465008C
:100060000C9465000C9465000C9465000C9465007C
:100070000C9465000C9465000C9465000C9465006C
:100080000C9465000C9465000C94650011241FBE4F
:10009000CFEFD0E1DEBFCDBF11E0A0E0B1E0E8EEF0
:1000A000FCE000E00BBF02C007900D92AA30B10740
:1000B000D9F721E0AAE0B1E001C01D92AC30B2074F
:1000C000E1F70E948A030C9472060C940000C49A13
:1000D0008FE697E10197F1F700C00000C4989FEF09
:1000E00023ED80E3915020408040E1F700C0000004
:1000F00008958FB580688FBD8FB580628FBD8FB535
:1001000088608FBD8FB582608FBD8EB588618EBDD2
:100110008EB582608EBD8FB7F89421E030E03DBD92
:100120002CBD78948FBF8FEF9FEF97BD86BD2FEFCB
:1001300081EE94E0215080409040E1F700C0000043
:1001400008959C019FB7F8943DBD2CBD78949FBF46
:100150000895909398008093990088E180939A0085
:1001600086E080939D002FEF81EE94E02150804047
:100170009040E1F700C00000089590919B0095FF2A
:10018000FCCF80939C000895FC012081222351F034
:10019000319690919B0095FFFCCF20939C0021917C
:1001A0002111F7CF089580E593EC05C020EA2A9548
:1001B000F1F7019739F020919B0027FFF7CF80914D
:1001C0009C0008958FEF0895DC01FC0140E050E0B1
:1001D00020E533EC06C080EA8A95F1F72150310919
:1001E00099F090919B0097FFF6CF90919C009E37DD
:1001F000B1F09F3F49F091934F5F5F4F44305105FD
:1002000039F713961C92089582E38C9311968C9380
:10021000119712968C93129713961C920895A40F1F
:10022000B51F1C9208959093900089B988E18AB90E
:1002300086E0809395002FEF81EE94E0215080407E
:100240009040E1F700C0000008955D9BFECF8CB99F
:100250000895FC019081992339F031965D9BFECF82
:100260009CB991919111FACF089580E593EC06C065
:1002700025E32A95F1F70000019721F05F9BF8CF65
:100280008CB108958FEF0895DC01FC0140E050E04F
:1002900020E533EC07C085E38A95F1F70000215093
:1002A000310981F05F9BF7CF9CB19E37B1F09F3F42
:1002B00049F091934F5F5F4F4430510549F71396D2
:1002C0001C92089582E38C9311968C931197129649
:1002D0008C93129713961C920895A40FB51F1C922D
:1002E0000895E2E6F0E08081886080838081877FE6
:1002F00080830895779BFECF1FB8779BFECF81E068
:100300008FB9779BFECF80916200886080936200F6
:1003100080916200877F809362008FE998E2019765
:10032000F1F700C0000008951FB8779BFECF80EC66
:100330008FB9779BFECF80916200886080936200C6
:1003400080916200877F8093620085EC8A95F1F747
:100350000000089591E09FB9779BFECF8FB9779BFE
:10036000FECF80916200886080936200809162007D
:10037000877F8093620085EC8A95F1F700000895ED
:10038000CF93DF93FC01DC0140E050E061E0779B1C
:10039000FECF6FB9779BFECF8D918FB9779BFECF44
:1003A0009091620098609093620090916200977FB4
:1003B0009093620085EC8A95F1F700004F5F5F4FE4
:1003C000EF0109900020E9F79E012E1B3F0B225000
:1003D000310924173507D8F6DF91CF9108954F9250
:1003E0005F926F927F928F929F92AF92BF92CF92C5
:1003F000DF92EF92FF920F931F93CF93DF93CDB7CE
:10040000DEB764970FB6F894DEBF0FBECDBF698B21
:100410007A8B8B8B9C8B29013A014701580120E094
:1004200030E040EF51E40E947E0487FDA2C020E04E
:1004300030E04CE852E469897A898B899C890E9472
:10044000D60518160CF09AC028EFC22E2CE0D22E3A
:1004500020E030E040EF51E4C301B2010E947E048D
:1004600087FD84C020E030E04CE852E4C301B201D3
:100470000E94D60518160CF0A0C008EF1CE020E082
:1004800030E040EF51E4C501B4010E947E0487FDD5
:1004900065C020E030E04CE852E4C501B4010E94A0
:1004A000D60518160CF07EC083E3882E982CA82C55
:1004B0008FE3B82E66B577B580E090E00E94240502
:1004C000A50194010E94DB050E94F504DBBCCABCB7
:1004D00019BD08BD70937900609378000E947A017D
:1004E0004AE0BE016F5F7F4FC6010E9448060E942E
:1004F000C0011FB8779BFECF80EC8FB9779BFECFF2
:100500008091620088608093620080916200877FA2
:100510008093620085EC8A95F1F700004AE0BE0105
:100520006F5F7F4FC8010E9448060E94C001649619
:100530000FB6F894DEBF0FBECDBFDF91CF911F91F4
:100540000F91FF90EF90DF90CF90BF90AF909F9072
:100550008F907F906F905F904F9008959AE9892EC9
:1005600099E9992EA92C9EE3B92EA4CF08E71AE0A9
:1005700086CF38E7C32E3AE0D32E6ACF20E030E0B2
:1005800040E851E469897A898B899C890E94DB055E
:1005900020E030E849E055E40E9412040E94F5048E
:1005A0006B0156CF20E030E048EC52E4C501B401C5
:1005B0000E9483044B015C017DCF20E030E040E8E5
:1005C00051E4C301B2010E94DB0520E030E849E0BC
:1005D00055E40E9412040E94F5048B0150CFE1E61D
:1005E000F0E080818860808388B388BB87B38760B0
:1005F00087BB80E58DB981E08EB908958FE59AEECD
:100600000197F1F700C0000023E030E090E31FB84D
:10061000779BFECF9FB9779BFECF80916200886069
:100620008093620080916200877F8093620085ECF6
:100630008A95F1F700002150310949F71FB8779BDF
:10064000FECF88E38FB9779BFECF809162008860F0
:100650008093620080916200877F8093620095ECB6
:100660009A95F1F700001FB8779BFECF88E08FB90D
:10067000779BFECF809162008860809362008091BA
:100680006200877F8093620085EC8A95F1F7000015
:100690001FB8779BFECF81E08FB9779BFECF80910B
:1006A000620088608093620080916200877F8093FF
:1006B00062008FEF98E10197F1F700C000001FB8CA
:1006C000779BFECF86E08FB9779BFECF809162004B
:1006D00088608093620080916200877F80936200CF
:1006E00095EC9A95F1F700001FB8779BFECF8EE04E
:1006F0008FB9779BFECF8091620088608093620003
:1007000080916200877F8093620085EC8A95F1F783
:1007100000000895CF93DF9300D000D0CDB7DEB7AF
:100720008FEF87BB18BA84E081BB80E289838A831C
:100730008B838C838091610088608093610088B393
:1007400088BB87B3876087BB80E58DB981E08EB9B0
:100750000E94FE0280E091E00E94C0018099FECFDD
:100760000E947A01C49A8FE697E10197F1F700C0E1
:100770000000C4989FEF23ED30E3915020403040BB
:10078000E1F700C000000E9479001092980027E66F
:100790002093990098E190939A0086E080939D00C1
:1007A0004FEF51EE34E0415050403040E1F700C08F
:1007B00000001092900029B99AB9809395004FEFEC
:1007C00051EE84E0415050408040E1F700C000000D
:1007D0009FEF21EE34E0915020403040E1F700C01F
:1007E0000000CE0101960E9444018981811109C057
:1007F0008A81811106C08B81811103C08C8188237D
:1008000081F30E947A01CE0101960E94C0014FEF50
:1008100059EF80E0415050408040E1F700C00000B7
:10082000E0CF5058BB27AA270E9429040C949C05AE
:100830000E948E0538F00E94950520F039F49F3F04
:1008400019F426F40C948B050EF4E095E7FB0C9458
:100850008505E92F0E94AD0558F3BA1762077307A3
:100860008407950720F079F4A6F50C94CF050EF4D3
:10087000E0950B2EBA2FA02D0B01B90190010C01B0
:10088000CA01A0011124FF27591B99F0593F50F4C8
:10089000503E68F11A16F040A22F232F342F442720
:1008A000585FF3CF469537952795A795F040539518
:1008B000C9F77EF41F16BA0B620B730B840BBAF0E8
:1008C0009150A1F0FF0FBB1F661F771F881FC2F753
:1008D0000EC0BA0F621F731F841F48F48795779567
:1008E0006795B795F7959E3F08F0B0CF9395880F21
:1008F00008F09927EE0F9795879508950E94610556
:1009000008F481E008950E9497040C949C050E94CD
:10091000950558F00E948E0540F029F45F3F29F0BC
:100920000C94850551110C94D0050C948B050E94F4
:10093000AD0568F39923B1F3552391F3951B550B3E
:10094000BB27AA2762177307840738F09F5F5F4FA2
:10095000220F331F441FAA1FA9F335D00E2E3AF0E1
:10096000E0E832D091505040E695001CCAF72BD0F9
:10097000FE2F29D0660F771F881FBB1F261737074A
:100980004807AB07B0E809F0BB0B802DBF01FF277C
:1009900093585F4F3AF09E3F510578F00C948505CF
:1009A0000C94D0055F3FE4F3983ED4F38695779599
:1009B0006795B795F7959F5FC9F7880F911D969535
:1009C000879597F90895E1E0660F771F881FBB1F91
:1009D000621773078407BA0720F0621B730B840B3E
:1009E000BA0BEE1F88F7E09508950E94B50588F0D0
:1009F0009F5798F0B92F9927B751B0F0E1F0660FE3
:100A0000771F881F991F1AF0BA95C9F714C0B13023
:100A100091F00E94CF05B1E008950C94CF05672FA7
:100A2000782F8827B85F39F0B93FCCF38695779552
:100A30006795B395D9F73EF490958095709561953B
:100A40007F4F8F4F9F4F0895E89409C097FB3EF466
:100A500090958095709561957F4F8F4F9F4F99230B
:100A6000A9F0F92F96E9BB279395F6958795779589
:100A70006795B795F111F8CFFAF4BB0F11F460FF49
:100A80001BC06F5F7F4F8F4F9F4F16C0882311F0A1
:100A900096E911C0772321F09EE8872F762F05C0B5
:100AA000662371F096E8862F70E060E02AF09A9550
:100AB000660F771F881FDAF7880F9695879597F945
:100AC0000895990F0008550FAA0BE0E8FEEF1616DF
:100AD0001706E807F907C0F012161306E407F50732
:100AE00098F0621B730B840B950B39F40A2661F0A6
:100AF000232B242B252B21F408950A2609F4A14049
:100B0000A6958FEF811D811D089597F99F6780E855
:100B100070E060E008959FEF80EC089500240A944F
:100B20001616170618060906089500240A941216C8
:100B30001306140605060895092E0394000C11F4FB
:100B4000882352F0BB0F40F4BF2B11F460FF04C0A8
:100B50006F5F7F4F8F4F9F4F089557FD9058440F01
:100B6000551F59F05F3F71F04795880F97FB991F0C
:100B700061F09F3F79F087950895121613061406C9
:100B8000551FF2CF4695F1DF08C016161706180656
:100B9000991FF1CF86957105610508940895E89431
:100BA000BB2766277727CB0197F908950E94610537
:100BB00008F48FEF08950E94EE050C949C050E94A6
:100BC0008E0538F00E94950520F0952311F00C94C5
:100BD00085050C948B0511240C94D0050E94AD055D
:100BE00070F3959FC1F3950F50E0551F629FF00180
:100BF000729FBB27F00DB11D639FAA27F00DB11D99
:100C0000AA1F649F6627B00DA11D661F829F222721
:100C1000B00DA11D621F739FB00DA11D621F839FA8
:100C2000A00D611D221F749F3327A00D611D231F7E
:100C3000849F600D211D822F762F6A2F11249F57CC
:100C400050409AF0F1F088234AF0EE0FFF1FBB1FCF
:100C5000661F771F881F91505040A9F79E3F51058E
:100C600080F00C9485050C94D0055F3FE4F3983E2A
:100C7000D4F3869577956795B795F795E7959F5F38
:100C8000C1F7FE2B880F911D9695879597F90895CA
:100C9000BB27FB015527AA27880F991FAA1FA41756
:100CA00010F0A41B83955051B9F7A05DAA3308F04A
:100CB000A95DA193009779F7B111B1931192CB017E
:100CC0000C946206DC01FC01672F71917723E1F738
:100CD000329704C07C916D9370836291AE17BF0709
:080CE000C8F30895F894FFCF5A
:0A0CE8005072657373205331000051
:00000001FF
