S00C00006D61696E2E7372656373
S11300000C945D000C9474000C9474000C947400B3
S11300100C9474000C9474000C9474000C9474008C
S11300200C9474000C9474000C9474000C9474007C
S11300300C9474000C9474000C9474000C9474006C
S11300400C9474000C9474000C9474000C9474005C
S11300500C9474000C9474000C9474000C9474004C
S11300600C9474000C9474000C9474000C9474003C
S11300700C9474000C9474000C9474000C9474002C
S11300800C9474000C9474000C947400084AD73BCC
S11300903BCE016E84BCBFFDC12F3D6C74319ABD53
S11300A056833DDA3D00C77F11BED9E4BB4C3E9177
S11300B06BAAAABE000000803F0011241FBECFEF30
S11300C0D0E1DEBFCDBF11E0A0E0B1E0E8E4F4E1AF
S11300D000E00BBF02C007900D92A031B107D9F721
S11300E00E949E060C94220A0C9400000895089520
S11300F0CF92DF92EF92FF920F931F93CF93DF93F0
S1130100EC0140E050E060E070E080E090E00E94AC
S1130110DB056B017C01BE010D2E000C880B990BD5
S11301200E947008A70196010E94E3060E94380805
S1130130CB0168E671E00E94C5098C01D7FD29C096
S1130140CD2BF1F0C701B6010E9438080617170736
S1130150B9F0E12CF12C08E412E420E030E040E7AF
S113016051EC60E070E080E791E40E94FB0440E021
S113017050E060E070E080E090E00E94DB05E9CFB1
S1130180DF91CF911F910F91FF90EF90DF90CF906F
S11301900895C701B6010E9438080617170781F3AE
S11301A0E12CF12C08E412E420E030E040E751E4D3
S11301B060E070E080E791EC0E94FB0440E050E0D6
S11301C060E070E080E090E00E94DB05E9CFEF9210
S11301D0FF920F931F93E12CF12C08E412E420E02A
S11301E030E046E952E4CA01B9010E94FB042FEF52
S11301F087EA91E6215080409040E1F700C000007A
S1130200E12CF12C870120E030E048E452E4CA01FB
S1130210B9010E94FB042FEF8BE792E92150804043
S11302209040E1F700C0000086EA9FEF0E9478004A
S1130230E12CF12C08E412E420E030E046E952E439
S1130240CA01B9010E94FB042FEF87EA91E621500D
S113025080409040E1F700C0000086EA9FEF0E94D2
S1130260780020E030E046E952E4CA01B9010E9476
S1130270FB042FEF87EA91E6215080409040E1F79C
S113028000C00000E12CF12C08EC12E420E030E086
S113029048E452E4CA01B9010E94FB0486EA9FEFD4
S11302A00E947800E12CF12C08E412E420E030E014
S11302B046E952E4CA01B9010E94FB0486EA9FEFB1
S11302C01F910F91FF90EF900C94780088E4809335
S11302D0700008951092740094EA909374009091C1
S11302E0740097FFFCCF90917100987F983011F0C3
S11302F081E008958093730084E880937400809172
S1130300740087FFFCCF80917100887F883111F0E1
S1130310803471F780E008958093730084E88093BB
S113032074008091740087FFFCCF90917100987FD6
S113033081E0983209F0089580E0089584EC809378
S113034074008091740087FFFCCF8091730008953E
S113035084E8809374008091740087FFFCCF8091BF
S1130360730008950F931F93CF93DF938B01EA01DA
S11303700E946A0181111FC02097A9F0F801C00FE3
S1130380D11F24E89191909373002093740090916D
S1130390740097FFFCCF90917100987F983259F4C4
S11303A0EC17FD0779F794E990937400DF91CF91EE
S11303B01F910F91089581E0DF91CF911F910F91CB
S11303C008950F931F93CF93DF938B01EA0181600C
S11303D00E946A01811125C0DE01119741F1F801E3
S11303E0A00FB11F24EC209374009091740097FF28
S11303F0FCCF909173009193AE17BF07A1F794E8D7
S1130400909374009091740097FFFCCF90917300C7
S11304109C9394E990937400DF91CF911F910F9175
S1130420089581E0DF91CF911F910F910895D80134
S1130430E6CFFF920F931F93CF93DF93162FF42EE3
S1130440052FE9010E946A0181112CC010937300E9
S113045094E8909374009091740097FFFCCF90916E
S113046071002097B1F0EF2DF02FCE0FDF1F44E87D
S1130470919190937300409374009091740097FF4E
S1130480FCCF90917100987F983261F4EC17FD07CE
S113049079F794E990937400DF91CF911F910F91B4
S11304A0FF90089581E0DF91CF911F910F91FF900C
S11304B00895EF92FF920F931F93CF93DF93182F1A
S11304C0062F7A01E9010E946A01811138C0009364
S11304D0730084E8809374008091740087FFFCCFDC
S11304E080917100812F81600E946A01811127C06F
S11304F0DE01119761F1F701AE0DBF1D24EC2093CD
S113050074009091740097FFFCCF909173009193C5
S1130510EA17FB07A1F794E8909374009091740094
S113052097FFFCCF909173009C9394E9909374008F
S1130530DF91CF911F910F91FF90EF90089581E08B
S1130540DF91CF911F910F91FF90EF900895D70104
S1130550E2CF84E9809374000895109261001092B0
S1130560620080E487B980E886B986B1876086B97D
S1130570339A369A0895FC010897FCF440E050E061
S113058061E070E097B19B01042E01C0220F0A9430
S1130590EAF72095292327B94F5F5F4F453051056E
S11305A089F797B1892F8E2B87B9369A349BFECF62
S11305B084B125B190E0922B08958FEF9FEF0895B9
S11305C08830910520F060E070E0CB0108950E942E
S11305D0BB02BC01990F880B990B0E94700820E0A4
S11305E030E040EA5BE30E9454090895E2E6F0E05B
S11305F08081886080838081877F80830895779B52
S1130600FECF1FB8779BFECF81E08FB9779BFECFDB
S11306108091620088608093620080916200877F8D
S1130620809362008FE998E20197F1F700C000001F
S113063008951FB8779BFECF80EC8FB9779BFECFD0
S11306408091620088608093620080916200877F5D
S11306508093620085EC8A95F1F70000089591E09B
S11306609FB9779BFECF8FB9779BFECF80916200B5
S113067088608093620080916200877F809362002B
S113068085EC8A95F1F700000895CF93DF93FC0180
S1130690DC0140E050E061E0779BFECF6FB9779BCF
S11306A0FECF8D918FB9779BFECF909162009860B9
S11306B09093620090916200977F9093620085EC22
S11306C08A95F1F700004F5F5F4FEF01099000201A
S11306D0E9F79E012E1B3F0B2250310924173507E1
S11306E0D8F6DF91CF910895E1E6F0E0808188604B
S11306F0808388B388BB87B3876087BB80E58DB967
S113070081E08EB908958FE59AEE0197F1F700C064
S1130710000023E030E090E31FB8779BFECF9FB941
S1130720779BFECF80916200886080936200809105
S11307306200877F8093620085EC8A95F1F7000060
S11307402150310949F71FB8779BFECF88E38FB951
S1130750779BFECF809162008860809362008091D5
S11307606200877F8093620095EC9A95F1F7000010
S11307701FB8779BFECF88E08FB9779BFECF80911F
S1130780620088608093620080916200877F80931A
S1130790620085EC8A95F1F700001FB8779BFECFC5
S11307A081E08FB9779BFECF80916200886080934F
S11307B0620080916200877F809362008FEF98E1EE
S11307C00197F1F700C000001FB8779BFECF86E0C9
S11307D08FB9779BFECF809162008860809362001E
S11307E080916200877F8093620095EC9A95F1F77F
S11307F000001FB8779BFECF8EE08FB9779BFECFAA
S11308008091620088608093620080916200877F9B
S11308108093620085EC8A95F1F700000895909327
S113082098008093990088E180939A008CE08093EB
S11308309D002FEF81EE94E0215080409040E1F73D
S113084000C00000089590919B0095FFFCCF809319
S11308509C000895FC012081222351F0319690914F
S11308609B0095FFFCCF20939C0021912111F7CF91
S1130870089580919B0087FFFCCF80919C00089590
S1130880DC01FC0182E390919B0097FFFCCF9091E7
S11308909C009E3769F09F3F11F09193F4CF8C93A5
S11308A011968C93119712968C9312979193EBCF88
S11308B008959093900089B988E18AB986E080937D
S11308C095002FEF81EE94E0215080409040E1F7B5
S11308D000C0000008955D9BFECF8CB90895FC0113
S11308E09081992339F031965D9BFECF9CB991910B
S11308F09111FACF08955F9BFECF8CB10895DC016E
S1130900FC0120E030E05F9BFECF9CB19E3731F0CC
S11309109F3F41F091932F5F3F4FF5CFA20FB31F3D
S11309201C92089582E38C9311968C9311971296DE
S11309308C93129713961C92089583E090E0C49AC6
S1130940EFE6F7E13197F1F700C00000C498FFEF3C
S113095023ED30E3F15020403040E1F700C00000C7
S1130960019769F708958FB580688FBD8FB5806250
S11309708FBD8FB588608FBD8FB582608FBD8EB5FA
S113098088618EBD8EB582608EBD8FB7F89421E0EC
S113099030E03DBD2CBD78948FBF8FEF9FEF97BDA6
S11309A086BD2FEF81EE94E0215080409040E1F726
S11309B000C0000008950E94B30483E090E0C49A4C
S11309C0EFE6F7E13197F1F700C00000C498FFEFBC
S11309D023ED30E3F15020403040E1F700C0000047
S11309E0019769F708959C019FB7F8943DBD2CBD0C
S11309F078949FBF08954F925F926F927F928F92E7
S1130A009F92AF92BF92CF92DF92EF92FF920F9399
S1130A101F93CF93DF932B013C0149015A016701D6
S1130A20780120E030E040EF51E40E94C10787FDE7
S1130A3064C020E030E04CE852E4C301B2010E94FB
S1130A40470918160CF067C008EF1CE020E030E0FE
S1130A5040EF51E4C501B4010E94C10787FD58C0AD
S1130A6020E030E04CE852E4C501B4010E9447099B
S1130A7018160CF06DC0C8EFDCE020E030E040EF69
S1130A8051E4C701B6010E94C10787FD39C020E0C7
S1130A9030E04CE852E4C701B6010E944709181639
S1130AA00CF04BC083E3C82EDC2CEC2C8FE3F82E27
S1130AB066B577B580E090E00E946E08A7019601C4
S1130AC00E9454090E943F081BBD0ABDD9BDC8BD80
S1130AD07093790060937800DF91CF911F910F910B
S1130AE0FF90EF90DF90CF90BF90AF909F908F904A
S1130AF07F906F905F904F90089508E71AE0A6CF1B
S1130B009AE9C92E99E9D92EED2C9EE3F92ED0CF7E
S1130B10C8E7DAE0B2CF20E030E040E851E4C301B6
S1130B20B2010E94540920E030E849E055E40E94F3
S1130B30E3060E943F088B0189CF20E030E048ECB7
S1130B4052E4C701B6010E94C6076B017C01B0CF15
S1130B5020E030E040E851E4C501B4010E945409AA
S1130B6020E030E849E055E40E94E3060E943F0893
S1130B70EB0183CF8CE30E946A0180E00E948C0128
S1130B8080E70E948C010E94A9028CE30E946A0102
S1130B9081E00E948C0180EA0E948C010E94A902DB
S1130BA08CE30E946A0182E00E948C0180E00E9432
S1130BB08C010C94A902CF92DF92EF92FF920F93D3
S1130BC01F93CF93DF938C01EB017A018CE30E9496
S1130BD06A0183E00E948C010E94A9028DE30E94B5
S1130BE06A010E949E01F801108281830E949E0185
S1130BF0F80120813181282B318320830E949E01BA
S1130C00F701108281830E949E01F70120813181C6
S1130C10282B318320830E949E01188289830E949D
S1130C20A80128813981282B398328830E94A902AD
S1130C30F80160817181072E000C880B990B0E94CA
S1130C4070086B017C0168817981072E000C880B88
S1130C50990B0E947008A70196010E94620720E088
S1130C6030E044E353E40E9454092BED3FE049E4AF
S1130C7050E40E94C60720E030E044E353E40E94BD
S1130C80E306DF91CF911F910F91FF90EF90DF90DA
S1130C90CF90089560E070E0CB01089560E070E0CB
S1130CA0CB010895439880B5886080BD87B1887F63
S1130CB087B9389A479888B1836088B9439A089568
S1130CC04398479A80B5877F80BD0895C09A089558
S1130CD0C098089580E090E00E94E00220E030E0B7
S1130CE040E05FE30E94E2062AE939E949E95FE36B
S1130CF00E94540920E030E040E85EE30E94540979
S1130D00089580E090E00E94E00220E030E040E0BE
S1130D105FE30E94E2062AE939E949E95FE30E94B8
S1130D20540920E030E040E85EE30E94540929EFD2
S1130D3037E447EA53E40E9454090895CF93DF93BC
S1130D40CDB7DEB7C456D1090FB6F894DEBF0FBED7
S1130D50CDBF8FEF87BB18BA87E690E00E94590495
S1130D600E94AD020E9474030E9483030E946806DD
S1130D7081E090E00E94BB028C0180E091E00E943F
S1130D806F044AE0BE016F5F7F4FC8010E94ED0906
S1130D900E946F040E94FF024AE0BE016F5F7F4F12
S1130DA0C8010E94ED090E9445032FEF81EE94E0F3
S1130DB0215080409040E1F700C000008AE00E948A
S1130DC06B04D4CF5058BB27AA270E94FA060C9470
S1130DD00D090E94FF0838F00E94060920F039F43A
S1130DE09F3F19F426F40C94D5080EF4E095E7FB24
S1130DF00C94CF08E92F0E941E0958F3BA17620712
S1130E0073078407950720F079F4A6F50C9440093C
S1130E100EF4E0950B2EBA2FA02D0B01B901900111
S1130E200C01CA01A0011124FF27591B99F0593F55
S1130E3050F4503E68F11A16F040A22F232F342F9D
S1130E404427585FF3CF469537952795A795F040EB
S1130E505395C9F77EF41F16BA0B620B730B840B00
S1130E60BAF09150A1F0FF0FBB1F661F771F881FB8
S1130E70C2F70EC0BA0F621F731F841F48F4879510
S1130E8077956795B795F7959E3F08F0B0CF939502
S1130E90880F08F09927EE0F9795879508950E947B
S1130EA0FF0860F080E891E009F49EEF0E940609D3
S1130EB028F040E851E071F45EEF0CC00C94D508C2
S1130EC00C944009E92FE0780E941E0940F3092E92
S1130ED0052AB1F3261737074807590738F00E2EAD
S1130EE007F8E02569F0E025E0640AC0EF6307F83D
S1130EF0009407FADB01B9019D01DC01CA01AD01CF
S1130F00EF930E94DD070E940D090E9492075F91F2
S1130F10552339F02BED3FE049E450FD49EC0C94A6
S1130F20E3060895DF93DD27B92FBF7740E85FE339
S1130F301616170648075B0718F4D92F0E944C09A8
S1130F409F938F937F936F930E94C109ECE8F0E025
S1130F500E94D8080E940D092F913F914F915F91F3
S1130F600E946709DD2351F09058A2EA2AED3FE080
S1130F7049EC5FE3D0785D270E94FA06DF910C9478
S1130F800D090E94AB0808F481E008950E94DA0775
S1130F900C940D090E94060958F00E94FF0840F0C5
S1130FA029F45F3F29F00C94CF0851110C944109A6
S1130FB00C94D5080E941E0968F39923B1F35523B4
S1130FC091F3951B550BBB27AA2762177307840758
S1130FD038F09F5F5F4F220F331F441FAA1FA9F3EE
S1130FE035D00E2E3AF0E0E832D091505040E695DC
S1130FF0001CCAF72BD0FE2F29D0660F771F881F3D
S1131000BB1F261737074807AB07B0E809F0BB0B2F
S1131010802DBF01FF2793585F4F3AF09E3F510543
S113102078F00C94CF080C9441095F3FE4F3983EA8
S1131030D4F3869577956795B795F7959F5FC9F72C
S1131040880F911D9695879597F90895E1E0660FAD
S1131050771F881FBB1F621773078407BA0720F026
S1131060621B730B840BBA0BEE1F88F7E09508958F
S11310700E943F086894B1110C94410908950E949C
S1131080260988F09F5798F0B92F9927B751B0F0E7
S1131090E1F0660F771F881F991F1AF0BA95C9F7F8
S11310A014C0B13091F00E944009B1E008950C944D
S11310B04009672F782F8827B85F39F0B93FCCF300
S11310C0869577956795B395D9F73EF49095809575
S11310D0709561957F4F8F4F9F4F0895E89409C095
S11310E097FB3EF490958095709561957F4F8F4F57
S11310F09F4F9923A9F0F92F96E9BB279395F6956D
S1131100879577956795B795F111F8CFFAF4BB0FEA
S113111011F460FF1BC06F5F7F4F8F4F9F4F16C04E
S1131120882311F096E911C0772321F09EE8872FD8
S1131130762F05C0662371F096E8862F70E060E094
S11311402AF09A95660F771F881FDAF7880F96950D
S1131150879597F90895990F0008550FAA0BE0E8B1
S1131160FEEF16161706E807F907C0F01216130665
S1131170E407F50798F0621B730B840B950B39F4A5
S11311800A2661F0232B242B252B21F408950A260B
S113119009F4A140A6958FEF811D811D089597F94B
S11311A09F6780E870E060E008959FEF80EC089509
S11311B0DF93CF931F930F93FF92EF92DF927B0104
S11311C08C01689406C0DA2EEF010E946709FE01C3
S11311D0E894A5912591359145915591A6F3EF0198
S11311E00E94FA06FE019701A801DA9469F7DF90DC
S11311F0EF90FF900F911F91CF91DF9108950024FC
S11312000A941616170618060906089500240A9467
S113121012161306140605060895092E0394000CED
S113122011F4882352F0BB0F40F4BF2B11F460FF7C
S113123004C06F5F7F4F8F4F9F4F089557FD9058A5
S1131240440F551F59F05F3F71F04795880F97FB86
S1131250991F61F09F3F79F0879508951216130640
S11312601406551FF2CF4695F1DF08C0161617066F
S11312701806991FF1CF86957105610508940895A4
S1131280E894BB2766277727CB0197F908950E9436
S1131290AB0808F48FEF08959B01AC0160E070E0A7
S11312A080E89FE30C94C6070E9467090C940D091B
S11312B00E94FF0838F00E94060920F0952311F0DF
S11312C00C94CF080C94D50811240C9441090E9465
S11312D01E0970F3959FC1F3950F50E0551F629F4F
S11312E0F001729FBB27F00DB11D639FAA27F00D7B
S11312F0B11DAA1F649F6627B00DA11D661F829FA2
S11313002227B00DA11D621F739FB00DA11D621F86
S1131310839FA00D611D221F749F3327A00D611DA3
S1131320231F849F600D211D822F762F6A2F112485
S11313309F5750409AF0F1F088234AF0EE0FFF1FB8
S1131340BB1F661F771F881F91505040A9F79E3F0F
S1131350510580F00C94CF080C9441095F3FE4F3ED
S1131360983ED4F3869577956795B795F795E79565
S11313709F5FC1F7FE2B880F911D9695879597F96E
S113138008959B01AC010C94540997FB072E16F4A5
S1131390009407D077FD09D00E94D90907FC05D035
S11313A03EF4909581959F4F0895709561957F4F78
S11313B00895AA1BBB1B51E107C0AA1FBB1FA61798
S11313C0B70710F0A61BB70B881F991F5A95A9F7EA
S11313D080959095BC01CD010895BB274A3031F426
S11313E0992322F4BDE2909581959F4F0C94F909BD
S11313F0BB27FB015527AA27880F991FAA1FA417EB
S113140010F0A41B83955051B9F7A05DAA3308F0DE
S1131410A95DA193009779F7B111B1931192CB0112
S11314200C94120ADC01FC01672F71917723E1F718
S1131430329704C07C916D9370836291AE17BF079D
S10B1440C8F30895F894FFCFEE
S11314484144432056616C7565204F4E3A20000094
S9030000FC
