S00C00006D61696E2E7372656373
S11300000C945D000C9474000C9474000C947400B3
S11300100C9474000C9474000C9474000C9474008C
S11300200C9474000C9474000C9474000C9474007C
S11300300C9474000C9474000C9474000C9474006C
S11300400C9474000C9474000C9474000C9474005C
S11300500C9474000C9474000C9474000C9474004C
S11300600C9474000C9474000C9474000C9474003C
S11300700C9474000C9474000C9474000C9474002C
S11300800C9474000C9474000C947400084AD73BCC
S11300903BCE016E84BCBFFDC12F3D6C74319ABD53
S11300A056833DDA3D00C77F11BED9E4BB4C3E9177
S11300B06BAAAABE000000803F0011241FBECFEF30
S11300C0D0E1DEBFCDBF12E0A0E0B1E0E2EAF2E1B0
S11300D000E00BBF02C007900D92A837B107D9F713
S11300E00E94BE050C944F090C94000088E4809390
S11300F0700008951092740094EA909374009091A3
S1130100740097FFFCCF90917100987F983011F0A4
S113011081E008958093730084E880937400809153
S1130120740087FFFCCF80917100887F883111F0C3
S1130130803471F780E008958093730084E880939D
S113014074008091740087FFFCCF90917100987FB8
S113015081E0983209F0089580E0089584EC80935A
S113016074008091740087FFFCCF80917300089520
S113017084E8809374008091740087FFFCCF8091A1
S1130180730008950F931F93CF93DF938B01EA01BC
S11301900E947A0081111FC02097A9F0F801C00FB6
S11301A0D11F24E89191909373002093740090914F
S11301B0740097FFFCCF90917100987F983259F4A6
S11301C0EC17FD0779F794E990937400DF91CF91D0
S11301D01F910F91089581E0DF91CF911F910F91AD
S11301E008950F931F93CF93DF938B01EA018160EE
S11301F00E947A00811125C0DE01119741F1F801B6
S1130200A00FB11F24EC209374009091740097FF09
S1130210FCCF909173009193AE17BF07A1F794E8B8
S1130220909374009091740097FFFCCF90917300A9
S11302309C9394E990937400DF91CF911F910F9157
S1130240089581E0DF91CF911F910F910895D80116
S1130250E6CFFF920F931F93CF93DF93162FF42EC5
S1130260052FE9010E947A0081112CC010937300BC
S113027094E8909374009091740097FFFCCF909150
S113028071002097B1F0EF2DF02FCE0FDF1F44E85F
S1130290919190937300409374009091740097FF30
S11302A0FCCF90917100987F983261F4EC17FD07B0
S11302B079F794E990937400DF91CF911F910F9196
S11302C0FF90089581E0DF91CF911F910F91FF90EE
S11302D00895EF92FF920F931F93CF93DF93182FFC
S11302E0062F7A01E9010E947A00811138C0009337
S11302F0730084E8809374008091740087FFFCCFBE
S113030080917100812F81600E947A00811127C041
S1130310DE01119761F1F701AE0DBF1D24EC2093AE
S113032074009091740097FFFCCF909173009193A7
S1130330EA17FB07A1F794E8909374009091740076
S113034097FFFCCF909173009C9394E99093740071
S1130350DF91CF911F910F91FF90EF90089581E06D
S1130360DF91CF911F910F91FF90EF900895D701E6
S1130370E2CF84E980937400089510926100109292
S1130380620080E487B980E886B986B1876086B95F
S1130390339A369A0895FC010897FCF440E050E043
S11303A061E070E097B19B01042E01C0220F0A9412
S11303B0EAF72095292327B94F5F5F4F4530510550
S11303C089F797B1892F8E2B87B9369A349BFECF44
S11303D084B125B190E0922B08958FEF9FEF08959B
S11303E08830910520F060E070E0CB0108950E9410
S11303F0CB01BC01990F880B990B0E94F10720E0F7
S113040030E040EA5BE30E94D5080895E2E6F0E0BC
S11304108081886080838081877F80830895779B33
S1130420FECF1FB8779BFECF81E08FB9779BFECFBD
S11304308091620088608093620080916200877F6F
S1130440809362008FE998E20197F1F700C0000001
S113045008951FB8779BFECF80EC8FB9779BFECFB2
S11304608091620088608093620080916200877F3F
S11304708093620085EC8A95F1F70000089591E07D
S11304809FB9779BFECF8FB9779BFECF8091620097
S113049088608093620080916200877F809362000D
S11304A085EC8A95F1F700000895CF93DF93FC0162
S11304B0DC0140E050E061E0779BFECF6FB9779BB1
S11304C0FECF8D918FB9779BFECF9091620098609B
S11304D09093620090916200977F9093620085EC04
S11304E08A95F1F700004F5F5F4FEF0109900020FC
S11304F0E9F79E012E1B3F0B2250310924173507C3
S1130500D8F6DF91CF910895E1E6F0E0808188602C
S1130510808388B388BB87B3876087BB80E58DB948
S113052081E08EB908958FE59AEE0197F1F700C046
S1130530000023E030E090E31FB8779BFECF9FB923
S1130540779BFECF809162008860809362008091E7
S11305506200877F8093620085EC8A95F1F7000042
S11305602150310949F71FB8779BFECF88E38FB933
S1130570779BFECF809162008860809362008091B7
S11305806200877F8093620095EC9A95F1F70000F2
S11305901FB8779BFECF88E08FB9779BFECF809101
S11305A0620088608093620080916200877F8093FC
S11305B0620085EC8A95F1F700001FB8779BFECFA7
S11305C081E08FB9779BFECF809162008860809331
S11305D0620080916200877F809362008FEF98E1D0
S11305E00197F1F700C000001FB8779BFECF86E0AB
S11305F08FB9779BFECF8091620088608093620000
S113060080916200877F8093620095EC9A95F1F760
S113061000001FB8779BFECF8EE08FB9779BFECF8B
S11306208091620088608093620080916200877F7D
S11306308093620085EC8A95F1F700000895909309
S113064098008093990088E180939A0086E08093D3
S11306509D002FEF81EE94E0215080409040E1F71F
S113066000C00000089590919B0095FFFCCF8093FB
S11306709C000895FC012081222351F03196909131
S11306809B0095FFFCCF20939C0021912111F7CF73
S1130690089580919B0087FFFCCF80919C00089572
S11306A0FC0190919B0097FFFCCF90919C009E379A
S11306B011F09193F6CF0895EAE6F2E096E4809182
S11306C09B0085FFFCCF90939C0091919111F7CFF3
S11306D080919B0087FF0CC090919C0080919B00AF
S11306E085FFFCCF90939C0080919B0087FDF4CF05
S11306F008959093900089B988E18AB98EE0809337
S113070095002FEF81EE94E0215080409040E1F776
S113071000C0000008955D9BFECF8CB90895FC01D4
S11307209081992339F031965D9BFECF9CB99191CC
S11307309111FACF08955F9BFECF8CB10895DC012F
S1130740FC015F9BFECF9CB19E3721F09F3F19F0C7
S11307509193F7CF089582E38C9311968C9311971C
S113076012968C9312978EE713968C9308955F9B41
S113077003C08CB15F99FDCF089583E090E0C49AE3
S1130780EFE6F7E13197F1F700C00000C498FFEFFE
S113079023ED30E3F15020403040E1F700C0000089
S11307A0019769F708958FB580688FBD8FB5806212
S11307B08FBD8FB588608FBD8FB582608FBD8EB5BC
S11307C088618EBD8EB582608EBD8FB7F89421E0AE
S11307D030E03DBD2CBD78948FBF8FEF9FEF97BD68
S11307E086BD2FEF81EE94E0215080409040E1F7E8
S11307F000C0000008950E94D30383E090E0C49AEF
S1130800EFE6F7E13197F1F700C00000C498FFEF7D
S113081023ED30E3F15020403040E1F700C0000008
S1130820019769F708959C019FB7F8943DBD2CBDCD
S113083078949FBF08954F925F926F927F928F92A8
S11308409F92AF92BF92CF92DF92EF92FF920F935B
S11308501F93CF93DF932B013C0149015A01670198
S1130860780120E030E040EF51E40E94490787FD21
S113087064C020E030E04CE852E4C301B2010E94BD
S1130880C80818160CF067C008EF1CE020E030E040
S113089040EF51E4C501B4010E94490787FD58C0E7
S11308A020E030E04CE852E4C501B4010E94C808DD
S11308B018160CF06DC0C8EFDCE020E030E040EF2B
S11308C051E4C701B6010E94490787FD39C020E001
S11308D030E04CE852E4C701B6010E94C80818167B
S11308E00CF04BC083E3C82EDC2CEC2C8FE3F82EE9
S11308F066B577B580E090E00E94EF07A701960106
S11309000E94D5080E94C0071BBD0ABDD9BDC8BD41
S11309107093790060937800DF91CF911F910F91CC
S1130920FF90EF90DF90CF90BF90AF909F908F900B
S11309307F906F905F904F90089508E71AE0A6CFDC
S11309409AE9C92E99E9D92EED2C9EE3F92ED0CF40
S1130950C8E7DAE0B2CF20E030E040E851E4C30178
S1130960B2010E94D50820E030E849E055E40E9435
S11309706B060E94C0078B0189CF20E030E048EC71
S113098052E4C701B6010E944E076B017C01B0CF4F
S113099020E030E040E851E4C501B4010E94D508EC
S11309A020E030E849E055E40E946B060E94C0074D
S11309B0EB0183CF8CE30E947A0080E00E949C00CC
S11309C080E70E949C000E94B9018CE30E947A0097
S11309D081E00E949C0080EA0E949C000E94B90170
S11309E08CE30E947A0082E00E949C0080E00E94D6
S11309F09C000C94B901CF92DF92EF92FF920F9377
S1130A001F93CF93DF938C01EB017A018CE30E9457
S1130A107A0083E00E949C000E94B9018DE30E9449
S1130A207A000E94AE00F801108281830E94AE0019
S1130A30F80120813181282B318320830E94AE006C
S1130A40F701108281830E94AE00F7012081318179
S1130A50282B318320830E94AE00188289830E9450
S1130A60B80028813981282B398328830E94B90151
S1130A70F80160817181072E000C880B990B0E948C
S1130A80F1076B017C0168817981072E000C880BCA
S1130A90990B0E94F107A70196010E94EA0620E043
S1130AA030E044E353E40E94D5082BED3FE049E4F1
S1130AB050E40E944E0720E030E044E353E40E94F7
S1130AC06B06DF91CF911F910F91FF90EF90DF9014
S1130AD0CF90089560E070E0CB01089560E070E08D
S1130AE0CB010895439880B5886080BD87B1887F25
S1130AF087B9389A479888B1836088B9439A08952A
S1130B004398479A80B5877F80BD0895C09A089519
S1130B10C098089580E090E00E94F00120E030E069
S1130B2040E05FE30E946A062AE939E949E95FE3A4
S1130B300E94D50820E030E040E85EE30E94D5083A
S1130B40089580E090E00E94F00120E030E040E071
S1130B505FE30E946A062AE939E949E95FE30E94F2
S1130B60D50820E030E040E85EE30E94D50829EF94
S1130B7037E447EA53E40E94D5080895CF93DF93FE
S1130B8000D000D0CDB7DEB78FEF87BB18BA87E6A9
S1130B9090E00E94790380E091E00E948F0387E651
S1130BA090E00E941F038DE191E00E943A030E94AD
S1130BB084020E9493028EE391E00E9455022FEF7B
S1130BC083ED90E3215080409040E1F700C00000A5
S1130BD019821A821B821C825AC082E891E00E9408
S1130BE08F03CE0101960E948F038BE191E00E9456
S1130BF08F038AE991E00E948F030E940F0280EB29
S1130C0091E00E9455028FEB91E00E943A03CE01DD
S1130C1001960E9450030E942902CE0101960E946F
S1130C2055026EE771E0CE0101960E944609892BB8
S1130C3009F44DC088EE91E00E943A03CE0101967A
S1130C400E943A038BE191E00E943A038EEE91E018
S1130C500E943A0388E092E00E948F0388E092E0C9
S1130C600E943A030E940F028DE492E00E94550212
S1130C700E9429028CE592E00E9455022FEF87EA38
S1130C8091E6215080409040E1F700C000000E94AE
S1130C900F028EE491E00E94550289E591E00E94E2
S1130CA08F03CE0101960E949F030E942902CE0168
S1130CB001960E9455026EE771E0CE0101960E94F2
S1130CC04609892B09F089CF8AE891E088CF8AE820
S1130CD091E0B2CF5058BB27AA270E9482060C94F9
S1130CE08E080E94800838F00E94870820F039F4AA
S1130CF09F3F19F426F40C9456080EF4E095E7FB94
S1130D000C945008E92F0E949F0858F3BA17620701
S1130D1073078407950720F079F4A6F50C94C108AD
S1130D200EF4E0950B2EBA2FA02D0B01B901900102
S1130D300C01CA01A0011124FF27591B99F0593F46
S1130D4050F4503E68F11A16F040A22F232F342F8E
S1130D504427585FF3CF469537952795A795F040DC
S1130D605395C9F77EF41F16BA0B620B730B840BF1
S1130D70BAF09150A1F0FF0FBB1F661F771F881FA9
S1130D80C2F70EC0BA0F621F731F841F48F4879501
S1130D9077956795B795F7959E3F08F0B0CF9395F3
S1130DA0880F08F09927EE0F9795879508950E946C
S1130DB0800860F080E891E009F49EEF0E948708C3
S1130DC028F040E851E071F45EEF0CC00C94560832
S1130DD00C94C108E92FE0780E949F0840F3092E83
S1130DE0052AB1F3261737074807590738F00E2E9E
S1130DF007F8E02569F0E025E0640AC0EF6307F82E
S1130E00009407FADB01B9019D01DC01CA01AD01BF
S1130E10EF930E9465070E948E080E941A075F9153
S1130E20552339F02BED3FE049E450FD49EC0C9497
S1130E306B060895DF93DD27B92FBF7740E85FE3A2
S1130E401616170648075B0718F4D92F0E94CD0819
S1130E509F938F937F936F930E944209ECE8F0E095
S1130E600E9459080E948E082F913F914F915F91E3
S1130E700E94E808DD2351F09058A2EA2AED3FE0F1
S1130E8049EC5FE3D0785D270E948206DF910C94E1
S1130E908E080E942C0808F481E008950E946207DD
S1130EA00C948E080E94870858F00E94800840F035
S1130EB029F45F3F29F00C94500851110C94C20896
S1130EC00C9456080E949F0868F39923B1F35523A4
S1130ED091F3951B550BBB27AA2762177307840749
S1130EE038F09F5F5F4F220F331F441FAA1FA9F3DF
S1130EF035D00E2E3AF0E0E832D091505040E695CD
S1130F00001CCAF72BD0FE2F29D0660F771F881F2D
S1130F10BB1F261737074807AB07B0E809F0BB0B20
S1130F20802DBF01FF2793585F4F3AF09E3F510534
S1130F3078F00C9450080C94C2085F3FE4F3983E98
S1130F40D4F3869577956795B795F7959F5FC9F71D
S1130F50880F911D9695879597F90895E1E0660F9E
S1130F60771F881FBB1F621773078407BA0720F017
S1130F70621B730B840BBA0BEE1F88F7E095089580
S1130F800E94A70888F09F5798F0B92F9927B75166
S1130F90B0F0E1F0660F771F881F991F1AF0BA9519
S1130FA0C9F714C0B13091F00E94C108B1E00895AE
S1130FB00C94C108672F782F8827B85F39F0B93FA0
S1130FC0CCF3869577956795B395D9F73EF49095CC
S1130FD08095709561957F4F8F4F9F4F0895E8944A
S1130FE009C097FB3EF490958095709561957F4F6D
S1130FF08F4F9F4F9923A9F0F92F96E9BB2793951B
S1131000F695879577956795B795F111F8CFFAF42A
S1131010BB0F11F460FF1BC06F5F7F4F8F4F9F4F5B
S113102016C0882311F096E911C0772321F09EE8B9
S1131030872F762F05C0662371F096E8862F70E01F
S113104060E02AF09A95660F771F881FDAF7880FF9
S11310509695879597F90895990F0008550FAA0B4F
S1131060E0E8FEEF16161706E807F907C0F01216B7
S11310701306E407F50798F0621B730B840B950BBA
S113108039F40A2661F0232B242B252B21F408950F
S11310900A2609F4A140A6958FEF811D811D0895AC
S11310A097F99F6780E870E060E008959FEF80EC17
S11310B00895DF93CF931F930F93FF92EF92DF92E4
S11310C07B018C01689406C0DA2EEF010E94E808C7
S11310D0FE01E894A5912591359145915591A6F38A
S11310E0EF010E948206FE019701A801DA9469F7D4
S11310F0DF90EF90FF900F911F91CF91DF910895B2
S113110000240A94161617061806090608950024E2
S11311100A9412161306140605060895092E03945C
S1131120000C11F4882352F0BB0F40F4BF2B11F4D0
S113113060FF04C06F5F7F4F8F4F9F4F089557FD2F
S11311409058440F551F59F05F3F71F04795880F31
S113115097FB991F61F09F3F79F0879508951216C8
S113116013061406551FF2CF4695F1DF08C0161674
S113117017061806991FF1CF869571056105089425
S11311800895E894BB2766277727CB0197F908953C
S11311900E942C0808F48FEF08959B01AC0160E0D5
S11311A070E080E89FE30C944E070E94E8080C94DA
S11311B08E080E94800838F00E94870820F095234A
S11311C011F00C9450080C94560811240C94C20885
S11311D00E949F0870F3959FC1F3950F50E0551F2F
S11311E0629FF001729FBB27F00DB11D639FAA2778
S11311F0F00DB11DAA1F649F6627B00DA11D661FC7
S1131200829F2227B00DA11D621F739FB00DA11DE7
S1131210621F839FA00D611D221F749F3327A00DA1
S1131220611D231F849F600D211D822F762F6A2F3D
S113123011249F5750409AF0F1F088234AF0EE0FA2
S1131240FF1FBB1F661F771F881F91505040A9F7CF
S11312509E3F510580F00C9450080C94C2085F3FE7
S1131260E4F3983ED4F3869577956795B795F7950B
S1131270E7959F5FC1F7FE2B880F911D9695879583
S113128097F908959B01AC010C94D508FB01DC018E
S11312908D91019080190110D9F3990B0895F89458
S10512A0FFCF7A
S11312A25553415254302028525332333229204963
S11312B26E697469616C697A6564200D00555341E5
S11312C25254312028426C7565746F6F74682920FA
S11312D2496E697469616C697A6564200D004C43D6
S11312E24420496E697469616C697A656400525379
S11312F2323332205465737400506C656173652017
S113130273656E6420737472696E6720223132339E
S113131222206F7665722052533233320D003132FD
S113132233004572726F723A2000526563656976C2
S1131332656420446174613A20005253323332208E
S11313425465737420436F6D706C657465640D002D
S1131352426C7565746F6F746820546573740050C1
S11313626C656173652073656E6420737472696E53
S113137267202231323322206F76657220626C75C7
S113138265746F6F74680D004572726F7200426CFF
S11313927565746F6F7468205465737420436F6D40
S11313A2706C657465640D00414C4C205445535473
S11313B25320434F4D504C455445442E20524553DF
S11313C2455454494E472E2E2E0D2D2D2D2D2D2DA7
S11313D22D2D2D2D2D2D2D2D2D2D2D2D2D2D2D2D37
S11313E22D2D2D2D2D2D2D2D2D2D2D0D00546573CF
S11313F2747320436F6D706C657465005265736518
S11314027474696E672E2E2E00466C757368696E4D
S10B14126720554152543100DA
S9030000FC
