:100000000C9446000C945D000C945D000C945D0013
:100010000C945D000C945D000C945D000C945D00EC
:100020000C945D000C945D000C945D000C945D00DC
:100030000C945D000C945D000C945D000C945D00CC
:100040000C945D000C945D000C945D000C945D00BC
:100050000C945D000C945D000C945D000C945D00AC
:100060000C945D000C945D000C945D000C945D009C
:100070000C945D000C945D000C945D000C945D008C
:100080000C945D000C945D000C945D0011241FBE67
:10009000CFEFD0E1DEBFCDBF11E0A0E0B1E0EEE2F6
:1000A000F5E000E00BBF02C007900D92AC33B10742
:1000B000D9F70E9443020C9495020C94000090938F
:1000C00098008093990088E180939A0086E080935D
:1000D0009D002FEF81EE94E0215080409040E1F7A9
:1000E00000C00000089590919B0095FFFCCF809385
:1000F0009C000895FC012081222351F031969091BB
:100100009B0095FFFCCF20939C0021912111F7CFFC
:10011000089580919B0087FFFCCF80919C000895FB
:10012000FC01DC0120E030E082E34EE790919B008F
:1001300097FFFCCF90919C009E3761F025303105F0
:100140002CF0808381838283438314829D932F5F6D
:100150003F4FECCF0895EEE2F1E096E480919B00F2
:1001600085FFFCCF90939C0091919111F7CF8091E6
:100170009B0087FF0CC090919C0080919B0085FFA5
:10018000FCCF90939C0080919B0087FDF4CF089555
:100190009093900089B988E18AB98EE080939500A8
:1001A0002FEF81EE94E0215080409040E1F700C0B5
:1001B000000008955D9BFECF8CB90895FC019081ED
:1001C000992339F031965D9BFECF9CB991919111A5
:1001D000FACF089580E89DE8ABE5B0E004C0019750
:1001E000A109B10921F05F9BFACF8CB108958FEF7F
:1001F0000895DC01FC019C012B5F3F4F40E85DE866
:100200006BE570E005C0415051096109710961F069
:100210005F9BF9CF9CB19E37B1F09F3F29F0E21769
:10022000F30711F09193EACF82E38C9311968C93AC
:10023000119712968C9312978EE713968C931397BF
:1002400014961C92089508955F9B03C08CB15F992A
:10025000FDCF0895E2E6F0E08081886080838081B0
:10026000877F80830895779BFECF1FB8779BFECF53
:1002700081E08FB9779BFECF809162008860809388
:10028000620080916200877F809362008FE998E22C
:100290000197F1F700C0000008951FB8779BFECFCB
:1002A00080EC8FB9779BFECF80916200886080934D
:1002B000620080916200877F8093620085EC8A955E
:1002C000F1F70000089591E09FB9779BFECF8FB9B9
:1002D000779BFECF8091620088608093620080915E
:1002E0006200877F8093620085EC8A95F1F70000B9
:1002F0000895CF93DF93FC01DC0140E050E061E022
:10030000779BFECF6FB9779BFECF8D918FB9779B8F
:10031000FECF90916200986090936200909162008D
:10032000977F9093620085EC8A95F1F700004F5F0C
:100330005F4FEF0109900020E9F79E012E1B3F0B54
:100340002250310924173507D8F6DF91CF9108954F
:10035000E1E6F0E080818860808388B388BB87B362
:10036000876087BB80E58DB981E08EB908958FE500
:100370009AEE0197F1F700C0000023E030E090E32F
:100380001FB8779BFECF9FB9779BFECF809162000D
:1003900088608093620080916200877F8093620012
:1003A00085EC8A95F1F700002150310949F71FB813
:1003B000779BFECF88E38FB9779BFECF8091620059
:1003C00088608093620080916200877F80936200E2
:1003D00095EC9A95F1F700001FB8779BFECF88E067
:1003E0008FB9779BFECF8091620088608093620016
:1003F00080916200877F8093620085EC8A95F1F797
:1004000000001FB8779BFECF81E08FB9779BFECFAE
:100410008091620088608093620080916200877F93
:10042000809362008FEF98E10197F1F700C0000020
:100430001FB8779BFECF86E08FB9779BFECF809168
:10044000620088608093620080916200877F809361
:10045000620095EC9A95F1F700001FB8779BFECFEC
:100460008EE08FB9779BFECF809162008860809389
:10047000620080916200877F8093620085EC8A959C
:10048000F1F700000895CF93DF93CDB7DEB72A9739
:100490000FB6F894DEBF0FBECDBF87E690E00E9496
:1004A000C80087E690E00E945F0080E091E00E9433
:1004B0007A001E821F8218861A868EE78987198223
:1004C0001A821B821D828C830E94A8010E94B701A0
:1004D0000E94330187E191E00E947901CE010696E6
:1004E0000E9490008DE191E00E947A00CE01069674
:1004F0000E947A0085E191E00E947A00CE01069682
:100500000E94DE00CE0101960E94F900CE01019604
:100510000E947A0085E191E00E947A008FE39CE9D5
:0E0520000197F1F700C00000D9CFF894FFCF8B
:10052E00426C7565746F6F746820496E6974696189
:10053E006C697A65640D005265616479004461747A
:10054E00612072656365697665643A2000466C7554
:0C055E007368696E6720554152543100EB
:00000001FF
